:020000040000FA
:04003B00020030008F
:0D300000C0E0439A80E59A20E0FBD0E0326A
:1060200002992A0203BEACE4FFFE120083F8600C62
:106030000FEF70010E09E970F10A80EE2249444C1D
:106040004500220200EEB02D252E346600252E34A8
:10605000660022020374884755445042435F496EEC
:10606000697428292E2E2E0A0D002202039B3F431D
:106070008F02220203849D41B43B0041B43C0041A5
:10608000B4390041B43A0041B43D0041B438004253
:10609000B00C000042B007000041B00E0041B73222
:1060A0000042B692000042B627000141B6261941CF
:1060B000B62501612C891C000000000000000000D2
:1060C00000000000000000000000000000000000D0
:1060D00000000000000000000000000000000000C0
:1060E00000000000000000000000000000000000B0
:1060F00000000000000000000000000000000000A0
:10610000000000000000000000000000000000008F
:10611000000000000000000000000000000000007F
:10612000000000000000000000000000000000006F
:10613000000000000000000000000000000000005F
:10614000000000000000000000000000000000004F
:10615000000000000000000000000000000000003F
:10616000000000000000000000000000000000002F
:10617000000000000000000000000000000000001F
:10618000000000000000000000000000000000000F
:1061900000000000000000000000000000000000FF
:1061A00000000000000000000000000000000000EF
:1061B00000000000000000000000000000000000DF
:1061C00000000000000000000000000000000000CF
:1061D00000000000000000000000000000000000BF
:1061E0000000004286AC00004286BB00004286BD33
:1061F00000004186B000612C86C400000000000051
:10620000000000000000000000000000000000008E
:10621000000000000000000000000000000000007E
:10622000000000000000000000000000000000006E
:10623000000000000000000000000000000000005E
:10624000000000000000000000000000000000004E
:10625000000000000000000000000000000000003E
:10626000000000000000000000000000000000002E
:10627000000000000000000000000000000000001E
:10628000000000000000000000000000000000000E
:1062900000000000000000000000000000000000FE
:1062A00000000000000000000000000000000000EE
:1062B00000000000000000000000000000000000DE
:1062C00000000000000000000000000000000000CE
:1062D00000000000000000000000000000000000BE
:1062E00000000000000000000000000000000000AE
:1062F000000000000000000000000000000000009E
:10630000000000000000000000000000000000008D
:10631000000000000000000000000000000000007D
:106320000000000000004286A800004286B3000082
:10633000418B77004286B500004286AE000042865F
:10634000BF00004286C200004186B1004286AA001A
:10635000004286B70000418B78004286B9000041B8
:1063600086C108418B7400418B7A00E00101E65C34
:1063700028E00101E65B28E00101E45200E00101B0
:10638000E65D00014000E00101E55300418B75002E
:106390004186B200418B7900E00101E45300E0FF47
:1063A00001E55400000000000000000000000000B3
:1063B00000000000000000000000000000000000DD
:1063C00000000000000000000000000000000000CD
:1063D00000000000000000000000000000000000BD
:1063E00000000000000000000000000000000000AD
:1063F000000000000000000000000000000000009D
:10640000000000000000000000000000000000008C
:10641000000000000000000000000000000000007C
:10642000000000000000000000000000000000006C
:10643000000000000000000000000000000000005C
:10644000000000000000000000000000000000004C
:10645000000000000000000000000000000000003C
:10646000000000000000000000000000000000002C
:10647000000000000000000000000000000000001C
:10648000000000000000000000000000000000000C
:1064900000000000000000000000000000000000FC
:1064A0000000419AEE00419AC400419C1E00419CAC
:1064B0001B00419AED00449C2100000000E0010116
:1064C000E92100419AE2004A9AE301020304050629
:1064D00007080900419C20000141FFE0B401E86D7C
:1064E00074696D652E77696E646F77732E636F6D57
:1064F00000000000000000000000000000007469BF
:106500006D652E73746474696D652E676F762E7475
:10651000770000000000000000000000636C6F6363
:106520006B2E73746474696D652E676F762E747745
:106530002000000000000000000077617463682EF6
:1065400073746474696D652E676F762E74770000BE
:106550000000000000000000706F6F6C2E6E747001
:106560002E6F7267000000000000000000000000B5
:10657000000000000000000000000000000000001B
:10658000000000000000000000000000000000000B
:1065900000000000E01801E8553B7CC454DC829EFA
:1065A00048DA4B04827AE2C0043B7CC45500000008
:1065B00000419ACF00419A4600419A4700429C1CF4
:1065C0000001489AC7FE06015B00192C20419C2857
:1065D00000419406004191E600419407004191CDAD
:1065E000004194050041925F0043482801482D4333
:1065F000471501482D43470601482D46A78D001237
:106600003456789AE00201DDEF0000E00201DDF18E
:106610000000E00101DDEB00E00201DDD40000E05C
:106620000201DDDA0000E00201DDD80000E0020135
:10663000DDE60000E00101E1F400E00101DDD6004B
:10664000E00101DDF300E00101DDCE00E00101DD4C
:10665000D300E00201DDED0000E00401DDCF000029
:106660000000E00401DDDD00000000E00101DDD7F5
:1066700000E00201DDE40000E00101DDEA00E001EC
:1066800001DDE900E00101DDE300E00101DDDC0006
:10669000E00101DDE200E00101DDE800E00101DDF3
:1066A000CD00E00101DDE100E00101DDCC00E00111
:1066B00001DDEC284191BF0042918F000041919192
:1066C000004491C0000000004691B90000000000A5
:1066D0000041AD0B0041AD1A0041AD120041AD15B6
:1066E0000042AD13000042AD0C000044AD0E0000AE
:1066F000000544AD160000000041A2EA004BA330A3
:106700004D5352415653352E3130004DA33F4D531A
:106710005241562D302D41534958006021A30F7529
:106720007365726E616D650000000000000000007E
:106730000000000000000000000000000000000059
:106740006021A2A370617373776F72640000000010
:106750000000000000000000000000000000000039
:10676000000000000041A2FE0048A6154153495810
:106770005849534142A5DD00466036A5DF000100BF
:1067800008001000180030006000C10182030400FE
:1067900002001000200030006000C10181030406E7
:1067A00007000400200040006000C10182030406CD
:1067B000070C0E41A3790042A42F04D26028A4073D
:1067C00065000E0000000000000000000000000056
:1067D00000000000000000000000000000000000B9
:1067E000000000000000000041A3780141A4310036
:1067F00041A61E0041A6210041A6AB0042A61F00F3
:106800000042A6A8000041A6AA0043A62500000059
:1068100043A62200000041A61D0042A88D00504260
:10682000A88F07D04146BA0042B7096000E5DC01F5
:10683000CE3B00000000000000000000000000004F
:106840000000000000000000000000000000000048
:106850000000000000000000000000000000000038
:106860000000000000000000000000000000000028
:106870000000000000000000000000000000000018
:106E000000000000000000000000000000004195AC
:106E10003B0041953A0041953E0041953C0042942B
:106E20000E000042940C00004194080041953F0080
:106E300041953D004294E20000419539004194099A
:106E4000005894E400000000000000000000000072
:106E50000000000000000000000000004295150046
:106E600000429513000042953700004294E0000074
:106E700042940A0000602095170000000100010004
:106E800000000100000000000100010000000000FF
:106E900001000000010001000061009540005EBC9F
:106EA000E2613FDD83C29C7E20A3FD1F419DC32183
:106EB0007FFCA2401E5F01E3BD3E6082DC237D9F1C
:106EC000C1421CFEA0E1BF5D0380DE3C62BEE00269
:106ED0005CDF81633D7C22C09E1D43A1FF4618FA02
:106EE000A427799BC584DA3866E5BB5907DB85673B
:106EF00039BAE406581947A5FB7826C49A653BD9E8
:106F000087045AB8E6A7F91B45C6987A24F8A64420
:106F10001A99C7257B3A6486D85B05E7B98CD230CD
:106F20006EEDB3510F4E10F2AC2F7193CD114FADEA
:106F3000F3702ECC92D38D6F31B2EC0E50AFF113B3
:106F40004DCE90722C6D33D18F0C52B0EE326C8ED0
:106F5000D0530DEFB1F0AE4C1291CF2D73CA947691
:106F600028ABF517490856B4EA6937D58B5709EBB2
:106F7000B536688AD495CB2977F4AA4816E9B7556F
:106F80000B88D6346A2B7597C94A14F6A8742AC898
:106F900096154BA9F7B6E80A54D7896B35604EA70A
:106FA000F284EE9D84EEC684EEEF84EF1884EF4108
:106FB00084EF6A84EF9384EFBC00000084ECD284F9
:106FC000ECFC84ED2684ED5084ED7A84EDA484ED10
:106FD000CE84EDF884874884E60784E63984E66B3E
:106FE00084E69D84E6CF84E70184E73384E7654146
:106FF000811A0041869E00E12C01DAEA00000000BF
:107000000000000000000000000000000000000080
:107010000000000000000000000000000000000070
:107020000000000000000000000000000000000060
:107030000000000000000000000000000000000050
:107040000000000000000000000000000000000040
:107050000000000000000000000000000000000030
:107060000000000000000000000000000000000020
:107070000000000000000000000000000000000010
:107080000000000000000000000000000000000000
:1070900000000000000000000000000000000000F0
:1070A00000000000000000000000000000000000E0
:1070B00000000000000000000000000000000000D0
:1070C00000000000000000000000000000000000C0
:1070D00000000000000000000000000000000000B0
:1070E00000000000000000000000000000000000A0
:1070F0000000000000000000000000000000000090
:10710000000000000000000000000000000000007F
:10711000000000000000000000000000000000006F
:10712000000000000000000041821B0046801400A7
:107130000000000000E19001DC16000600000000E5
:107140000000000A003F0009006400FF00FF00FF8C
:107150000014000000FF00FF00FF00010018000203
:107160000001000100010003000100010001000115
:107170000001000100010001000100010001000107
:1071800000010001000100010001000100010001F7
:1071900000010001000100010001000100010001E7
:1071A00000010001000100010001000100010001D7
:1071B00000010001000100010001000100010001C7
:1071C00000010001000100010001000100010001B7
:1071D00000010001000100010001000100010001A7
:1071E0000001000100010001000100010001000098
:1071F0000001000100000001000100010001000188
:1072000000040000000100FF00FF00FF00FF00007D
:1072100000C000A80000000300FF00FF00FF000006
:1072200000C000A80000000400FF177100FF00FF6D
:1072300000FF00FFFFFFFFFFFFFF00FFFFFF00FF5A
:1072400000FF00FF00FF0000000000000000000041
:10725000000000000000000000010001000100012A
:107260000001000100010001000100010001000116
:107270000001000100010001000100010001000106
:1072800000010001000100010001000100010001F6
:1072900000010001000100010001000100000041A7
:1072A00000370015000F003D0081002A002C00016E
:1072B00000010001000100010001000100010001C6
:1072C0000001000100010001000044869F00000051
:1072D000006100801A00C1814001C0804101C0806E
:1072E0004100C1814001C0804100C1814000C18195
:1072F0004001C0804101C0804100C1814000C18186
:107300004001C0804100C1814001C0804101C08076
:107310004100C1814001C0804100C1814000C18164
:107320004001C0804100C1814001C0804101C08056
:107330004100C1814000C1814001C0804101C08045
:107340004100C1814001C0804100C1814000C18134
:107350004001C0804101C0804100C1814000C18125
:107360004001C0804100C1814001C0804101C08016
:107370004100C1814000C1814001C0804101C08005
:107380004100C1814001C0804100C1814000C181F4
:107390004001C0804100C1814001C0804101C080E6
:1073A0004100C1814001C0804100C1814000C181D4
:1073B0004001C0804101C0804100C1814000C181C5
:1073C0004001C0804100C1814001C0804101C080B6
:1073D0004100C181406100811B00C0C101C30302A3
:1073E000C2C60607C705C5C404CC0C0DCD0FCFCE51
:1073F0000E0ACACB0BC90908C8D81819D91BDBDA81
:107400001A1EDEDF1FDD1D1CDC14D4D515D71716A0
:10741000D6D21213D311D1D010F03031F133F3F2B0
:107420003236F6F737F53534F43CFCFD3DFF3F3E90
:10743000FEFA3A3BFB39F9F83828E8E929EB2B2A20
:10744000EAEE2E2FEF2DEDEC2CE42425E527E7E6E0
:107450002622E2E323E12120E0A06061A163A3A250
:107460006266A6A767A56564A46CACAD6DAF6F6ED0
:10747000AEAA6A6BAB69A9A86878B8B979BB7B7A00
:10748000BABE7E7FBF7DBDBC7CB47475B577B7B620
:107490007672B2B373B17170B050909151935352F0
:1074A0009296565797559594549C5C5D9D5F9F9E10
:1074B0005E5A9A9B5B99595898884849894B8B8AA0
:1074C0004A4E8E8F4F8D4D4C8C4484854587474660
:1074D0008682424383418180404C568D1F1C1F1E73
:1074E0001F1E1F1F1E1F1E1F4C56A11F1D1F1E1FCC
:1074F0001E1F1F1E1F1E1F4156B000435650000086
:107500000042564E0000425617000044561A000032
:1075100000004156190041568C0041568B004156DF
:107520005300415657004155260041B6D90042B696
:10753000D700004200010000E10001C51B0000006F
:10754000000000000000000000000000000000003B
:10755000000000000000000000000000000000002B
:10756000000000000000000000000000000000001B
:10757000000000000000000000000000000000000B
:1075800000000000000000000000000000000000FB
:1075900000000000000000000000000000000000EB
:1075A00000000000000000000000000000000000DB
:1075B00000000000000000000000000000000000CB
:1075C00000000000000000000000000000000000BB
:1075D00000000000000000000000000000000000AB
:1075E000000000000000000000000000000000009B
:1075F000000000000000000000000000000000008B
:10760000000000000000000000000000000000007A
:10761000000000000000000000000000000000006A
:10762000000000000000000000000000000000005A
:107630000000000000000000000000000001770AC8
:10764000E00201C95D0000E00301CE18000000E087
:107650000301C63B000000E00301C63E000000E05D
:107660002001C642000000000000000000000000F1
:10767000000000000000000000000000000000000A
:1076800000000000E02001C4FB000000000000003A
:1076900000000000000000000000000000000000EA
:1076A000000000000000000000E02001C61B0000F8
:1076B00000000000000000000000000000000000CA
:1076C0000000000000000000000000000000E020BA
:1076D00001CE1B00000000000000000000000000C0
:1076E000000000000000000000000000000000009A
:1076F000000000E00801C960000000000000000078
:10770000012300C130012100012200012000E0011D
:1077100001C95C0052A46A1201100102000008C0F5
:1077200016E1050001010203016043A47C09024344
:1077300000020100C0190904000001020201000555
:10774000240010010424020205240600010524017E
:1077500003010705810308001409040100020A005F
:1077600000000705020240000007058202400000F9
:1077700044A46604030904602CA43A2C0377007720
:107780000077002E00740065006D0063006F0063D9
:10779000006F006E00740072006F006C0073002EAA
:1077A0000063006F006D006026A4BF26034E0065D5
:1077B00000740077006F0072006B00200043006FC0
:1077C000006E00740072006F006C006C0065007247
:1077D0000056A4E5160332003000310032002D00BF
:1077E000300035002D0031003100C138C1B5E00155
:1077F00001E32305E00201E3210000E00201E4507F
:107800000000E02001D4180000000000000000008B
:107810000000000000000000000000000000000068
:1078200000000000000000E02001D438000000004B
:107830000000000000000000000000000000000048
:1078400000000000000000000000000041B3E30061
:10785000429E150400419DB903429E680000449D6C
:107860009400000000449E6402004E20449E2500C7
:10787000800001449E2D00800002449E350080005F
:1078800003449E3900800004449E5000800005445B
:107890009E5400800006449E5800800007449E5C71
:1078A00000800008449E6000800009449D8B008099
:1078B000000A449D8F0080000B449DE10000000100
:1078C000449DE500000002449DE900000003449D42
:1078D000ED00000004449DF100000005449DF5000A
:1078E000000006449DF900000007449E01000000CE
:1078F00008449E0900000009449E840000000A44D8
:107900009DFD01000001449E0501000002449E0D02
:1079100001000003449E1101000004449E1901006F
:107920000005449E1D01000006449E210100000741
:10793000449E2901000008449E3101000009449E34
:10794000940100000A419DD000539E3D4E6574771E
:107950006F726B20436F6E74726F6C6C6572005542
:107960009DA454656D636F20436F6E74726F6C736A
:107970002C204C74642E00419DD100E0C801E78AA0
:1079800000000000000000000000000000000000F7
:1079900000000000000000000000000000000000E7
:1079A00000000000000000000000000000000000D7
:1079B00000000000000000000000000000000000C7
:1079C00000000000000000000000000000000000B7
:1079D00000000000000000000000000000000000A7
:1079E0000000000000000000000000000000000097
:1079F0000000000000000000000000000000000087
:107A00000000000000000000000000000000000076
:107A10000000000000000000000000000000000066
:107A20000000000000000000000000000000000056
:107A30000000000000000000000000000000000046
:107A40000000000000000000E12C01E65E000000E4
:107A50000000000000000000000000000000000026
:107A60000000000000000000000000000000000016
:107A70000000000000000000000000000000000006
:107A800000000000000000000000000000000000F6
:107A900000000000000000000000000000000000E6
:107AA00000000000000000000000000000000000D6
:107AB00000000000000000000000000000000000C6
:107AC00000000000000000000000000000000000B6
:107AD00000000000000000000000000000000000A6
:107AE0000000000000000000000000000000000096
:107AF0000000000000000000000000000000000086
:107B00000000000000000000000000000000000075
:107B10000000000000000000000000000000000065
:107B20000000000000000000000000000000000055
:107B30000000000000000000000000000000000045
:107B40000000000000000000000000000000000035
:107B50000000000000000000000000000000000025
:107B60000000000000000000000000000000000015
:107B70000000000000000000004A9D9A0000000084
:107B800000000000000054A9B50000000000000043
:107B90000000000001020304050607080941A9CC02
:107BA0000041A9CD0041A9D00042A9D3000A42A9B1
:107BB000D1000042A9CE000042A9C9000041A9CBD2
:107BC0000042A9D5000059A6D90000819802000101
:107BD0008198070002819810000381981700000027
:107BE00000006032A6F20000819824000181980212
:107BF000000281982F000381983900048198480081
:107C0000058198580006819863000781986C0008E8
:107C100081987C0000000000602DA6AC00008198D7
:107C200090000181986C000281989600038198AFC2
:107C300000048198BC00058198CA00068198E6007E
:107C40000781990600000000006100A1A300000068
:107C50000000000000000000000000000000000024
:107C60000000000000000000000000000000000014
:107C70000000000000000000000000000000000004
:107C800000000000000000000000000000000000F4
:107C900000000000000000000000000000000000E4
:107CA00000000000000000000000000000000000D4
:107CB00000000000000000000000000000000000C4
:107CC00000000000000000000000000000000000B4
:107CD00000000000000000000000000000000000A4
:107CE0000000000000000000000000000000000094
:107CF0000000000000000000000000000000000084
:107D00000000000000000000000000000001010170
:107D10000101010101010101010101010101010153
:107D20000101010101010101010101010102020240
:107D30000202020202020202020202020203030320
:107D4000030303030304040404050505056048A8B0
:107D5000D7004B000C004D0007004F0009007000D9
:107D600009007900070078000200460007002C0097
:107D700007000C000700620002005F0002006100C3
:107D80000800600008003E0002006B0009000B00C4
:107D90000200490002FFFFFFFF43B0E00000004483
:107DA000B0E30000000044B0E70000000044B5F379
:107DB0000000000041B5F200419D7500549D760021
:107DC00000000000000000000000000000000000B3
:107DD0000000004F9C382B38363133313237353084
:107DE0003632393900419D74050048B39D000000CA
:107DF0000000000000EC4D6011E8497018ED33EC14
:107E00003304600DE4FCFFFEFD22E933E833047027
:107E1000F8020080551200802058046009E4CC2448
:107E200081500728500B0200805F28400402008028
:107E30005CC0E0EB4A7046B98007D0E0FB020080EE
:107E40004BEF4E701DBD8008EBFFEAFEE9FD80EAB6
:107E5000E98DF0A4FEE5F002007EE4E9CDF9EAFE4A
:107E6000EBFFEF89F0A4FCE5F0CE89F0A42EFFE44F
:107E700035F0CD89F0A42DFEE435F08067EF4E702B
:107E800005BD80D780C2EF8BF0A4ACF0EE8BF0A4E0
:107E90002CFCE435F0F8EF8AF0A42CE5F038FCE493
:107EA00033CB8DF0A42CFCE5F03BF8EE8AF0A42C4B
:107EB000FCE5F038F8E433CF89F0A42CFCE5F03889
:107EC000CF3400CE89F0A42FFFE5F03EFEE433C9A5
:107ED0008DF0A42EFEE5F039CD8AF0A42FFFE5F059
:107EE0003EFEE43DFD33D0E0FB50080BBB0010022A
:107EF00000805FEC2CFCEF33FFEE33FEED33FD0230
:107F00000080370200805FEC5D046005E859047072
:107F1000040200805512008020580460F4EC486090
:107F2000F0EC7004FDFEFF22C860D82481C8500A1E
:107F3000C398600250070200805C9850C6F582E941
:107F4000294B4A7006AB820200804B75F0007C1A08
:107F50007880C3EF9BEE9AED99400DC3EF9BFFEE47
:107F60009AFEED99FDE842F0DC24ACF0D0E0FFD0C1
:107F7000E0FED0E0FDAB8220E7101BEB60B8EC2CFC
:107F8000FCEF33FFEE33FEED33FD02008037E803F4
:107F9000F830E705C0F075F000EF2FFFEE33FEED8F
:107FA00033FD40B730E7C180A975F020800E75F031
:107FB00010800575F0087D007E007F003392D5307B
:107FC000D504120086B2EC334010EF33FFEE33FEDF
:107FD000ED33FDEC33FCD5F0ED22E5F0247EA2D5A7
:107FE00013CC92E7CDCEFF22EDD2E7CD33EC339226
:107FF000D524814006E4FFFEFDFC22FCE4CFCECD7B
:10800000CC24E0501174FF80EDC3CC13CCCD13CD44
:10801000CE13CECF13CF0470F030D5DE020086B27F
:10802000E9D2E7C933E833F892D5EDD2E7CD33ECA6
:1080300033FC5002B2D522EC30E7100FBF000C0E1B
:10804000BE00080DBD00040BEB6014A2D5EB13FCC1
:10805000ED92E7FD2274FFFCFDFEFF22E480F8A212
:10806000D574FF13FC7D80E480EFF920E73624F916
:1080700050037907E4F42402FBE5821582700215AF
:1080800083DBF6E024FB501BE96014E4F0E5821585
:108090008270021583E004F0B40A08E4F0D9EE74AB
:1080A00001F00A22C2D522ED33EC3392D5FA602AD0
:1080B000B4FF33EDC2E77B8160067A8079CCE4229D
:1080C0007A8079D520D5047A8079D0224E614E000D
:1080D0002B494E46002D494E4600E47A08F0A3DABB
:1080E000FC7B00740722C093C083C082ECC0E0ED2B
:1080F000C0E0EEC0E0EFC0E0EA75F010A4CAABF05B
:1081000075F04DA42BFBE435F0FCEA2410FAEB34B7
:10811000C5FBEC34D9FCEDC2E7FF75F056A4F4249E
:1081200011C5F0F434C58FF0A42AE5F03BE43CF02F
:1081300020E716120082E4D0E0FFD0E0FED0E0FDA0
:10814000D0E0FC12007F078016F404120082E4D015
:10815000E0FFD0E0FED0E0FDD0E0FC12007DF5D0E5
:1081600082D083D093E0FAEDD2E7CD33EC33248292
:10817000FBE4C3CF33CFCE33CECD33CD33DBF37B74
:108180000775F00A846004F0A31B0AE5F0F0A38FE2
:10819000F0740AA4FFACF08EF0740AA42CFEACF0CC
:1081A00050010C8DF0740AA42CFDE435F0F0A3DB33
:1081B000DE74072202008055E86480F8E933E83372
:1081C00060110460EFED33EC337009E8FCE9FDEA7F
:1081D000FEEBFF220460DDD3EB9FEA9EE99DE8C23F
:1081E000E78CF0C2F795F0400CE8CCF8E9CDF9EA5D
:1081F000CEFAEBCFFB1200802085D0F0580470033C
:1082000020D5B1E80470085002B2D50200805F9218
:10821000D5EC0460F6E4CCC0E0C398F8603C941858
:108220006009400ED0E0FB02008037E4FBFAC9FC95
:108230008028E830E406E4C9FBE4CAFCE830E30542
:10824000E4C9CACBFCE854076010F8C3E913F9EAA3
:1082500013FAEB13FBEC13FCD8F130F531C3E49CBB
:10826000FCEF9BFFEE9AFEED99FDD0E0FBEF4E4D4B
:108270004C701322DB040200805CEC2CFCEF33FF1B
:10828000EE33FEED33FDED30E7EA02008037EF2BF1
:10829000FFEE3AFEED39FDD0E0FB50140BBB0004BD
:1082A0000200805FED13FDEE13FEEF13FFEC13FCF5
:1082B000020080373F8000004120000042C80000DB
:1082C000447A0000461C400047C350004974240013
:1082D0004B1896804CBEBC205A0E1BCA6753C21C5A
:1082E000749DC5AEFB6006540760202323120083F3
:1082F00017EB5438600C1200830212008312120034
:108300007DF5ECF8EDF9EEFAEFCB22EB12008312DB
:1083100080F0543803241C900082B4FE93FC0EEECF
:1083200093FD0EEE930ECE93FF22EB7008E709F655
:1083300008DFFA801B89828A831410E70AF593E02C
:10834000A3F608DFFA8009F593E493A3F608DFF9B2
:10835000ECFAA9F0EDFB2288F0EF60010E4E60F020
:1083600088F0ED60C51410E7E7CB700E88828C832F
:108370008B93E709F0A3DFFA80D61410E72A8982ED
:108380008A83F593ECFAE0A3C8C582C8CCC583CC38
:10839000CBC593CBF0A3C8C582C8CCC583CCCBC515
:1083A00093CBDFE2DEE080AA89828A83F593ECFA40
:1083B000E493A3C8C582C8CCC583CCCBC593CBF00E
:1083C000A3C8C582C8CCC583CCCBC593CBDFE1DEC7
:1083D000DF02008352C2D530F707B2D563F0FF0544
:1083E000F030E70DB2D5F404008463F0FF05F080AF
:1083F000018430D502F40422EB7002E72289828ADC
:10840000831410E704F593E022F593E49322F8EB4C
:108410007006E7C828F3E82289828A831410E708E7
:10842000F593E0C828F0E822F593E49322BB00031B
:1084300027F722F8EB89828A831410E706F593E088
:1084400028F022F593E4932822BB0002F722BB8098
:1084500000500989828A838B931593F022EF8DF067
:10846000A4A8F0CF8CF0A428CE8DF0A42EFE22BCC0
:10847000000BBE0029EF8DF084FFADF022E4CCF8B4
:1084800075F008EF2FFFEE33FEEC33FCEE9DEC9819
:108490004005FCEE9DFE0FD5F0E9E4CEFD22EDF89F
:1084A000F5F0EE008420D21CFEADF075F008EF2F41
:1084B000FFED33FD4007985006D5F0F222C398FD3A
:1084C0000FD5F0EA22C2D5EC30E709B2D5E4C39D5E
:1084D000FDE49CFCEE30E716B2D5E4C39FFFE49EBA
:1084E000FE1200846FC3E49DFDE49CFC8004120036
:1084F000846F30D507C3E49FFFE49EFE22C5F0F8E9
:10850000A3E028F0C5F0F8E582158270021583E03B
:1085100038F022A3F8E0C5F025F0F0E5821582706E
:10852000021583E0C838F0E822EB7007E7F5F009A0
:10853000E7192289828A831410E708F593E0F5F0A1
:10854000A3E022F593E493F5F074019322BB000BB2
:1085500009C5F027F7C5F01937F722F8EB89828AA9
:10856000831410E707F593E8020084FDF593740186
:108570009325F0F5F0E4933822BB0006F709A7F045
:108580001922BB8000500D89828A838B931593F04A
:10859000E5F0A3F022E88FF0A4CC8BF0A42CFCE94A
:1085A0008EF0A42CFC8AF0EDA42CFCEA8EF0A4CD75
:1085B000A8F08BF0A42DCC3825F0FDE98FF0A42C89
:1085C000CD35F0FCEB8EF0A4FEA9F0EB8FF0A4CF3C
:1085D000C5F02ECD39FEE43CFCEAA42DCE35F0FDED
:1085E000E43CFC2275F008758200EF2FFFEE33FEAD
:1085F000CD33CDCC33CCC58233C5829BED9AEC997B
:10860000E58298400CF582EE9BFEED9AFDEC99FC1C
:108610000FD5F0D6E4CEFBE4CDFAE4CCF9A8822263
:10862000B800C1B90059BA002DEC8BF084CFCECD83
:10863000FCE5F0CBF97818EF2FFFEE33FEED33FDBC
:10864000EC33FCEB33FB10D703994004EB99FB0FA1
:10865000D8E5E4F9FA227818EF2FFFEE33FEED3378
:10866000FDEC33FCC933C910D7059BE99A4007ECF0
:108670009BFCE99AF90FD8E0E4C9FAE4CCFB227537
:10868000F010EF2FFFEE33FEED33FDCC33CCC833CB
:10869000C810D7079BEC9AE899400AED9BFDEC9A2D
:1086A000FCE899F80FD5F0DAE4CDFBE4CCFAE4C8A5
:1086B000F922C3E49FFFE49EFEE49DFDE49CFC22BE
:1086C000EB9FF5F0EA9E42F0E99D42F0EC6480C831
:1086D00064809845F022EB9FF5F0EA9E42F0E99D18
:1086E00042F0E89C45F022E8600FECC313FCED1368
:1086F000FDEE13FEEF13FFD8F122E86010ECA2E7C5
:1087000013FCED13FDEE13FEEF13FFD8F022E8602B
:108710000FEFC333FFEE33FEED33FDEC33FCD8F146
:1087200022EB7006E9F802008CAA89828A83141071
:10873000E706F59302008CB6F59302008CC2BB00ED
:1087400006E9F802008CFBBB8000500C89828A830A
:108750008B931593020087AB22EB7006E9F80200B9
:108760008CD289828A831410E706F59302008CDF8D
:10877000F59302008CEB7401FF3395E0FEFDFCA342
:10878000A3A3E0CF2FF0E582158270021583E0CE1F
:108790003EF0E582158270021583E0CD3DF0E58262
:1087A000158270021583E0CC3CF022ECF0A3EDF0D2
:1087B000A3EEF0A3EFF022A42582F582E5F0358345
:1087C000F58322F8E0FBA3A3E0F925F0F0E582159C
:1087D0008270021583E0FA38F022EBF0A3EAF0A3EE
:1087E000E9F022EB7006E9F802008D0789828A839E
:1087F0001410E706F59302008D19F59302008D22FF
:10880000BB001CD093D0F0D0E0F8D0E0C9FBD0E0A2
:10881000FAD0E0CBC8C0E0C0F0C09302008D10BB1E
:1088200080005022D093D0F0D0E0F8D0E0C9F5829B
:10883000D0E0CAF583D0E0CB14C8C0E0C0F0C0934C
:108840008893020087DAD093D083D082D0E0D0E042
:10885000D0E0E473D093D083D082F8E493701274A4
:108860000193700DA3A393F8740193F5828883E4B8
:10887000737402936860EFA3A3A380DFD093D083C7
:10888000D082F8E4937012740193700DA3A393F84F
:10889000740193F5828883E473740293B5F00674CF
:1088A00003936860E9A3A3A3A380D8D093D083D017
:1088B00082E4937012740193700DA3A393F8740172
:1088C00093F5828883E4737402936C70127403933B
:1088D0006D700C7404936E70067405936F60DDA365
:1088E000A3A3A3A3A380CA8B938A838982159353DE
:1088F000937FE473759300E5362582F582E535357F
:1089000083F583B535048582362210AF068582361D
:10891000F53522858236F535D2AF22759300E536DE
:108920002582F582E5353583F58322EC8EF0A4CCE3
:10893000C5F0CCCDF8EFA4CEC5F02DFDE43CFCE8AD
:10894000A42EC8C5F03DFDE43CFCEFA4FFE5F028F3
:10895000FEE43DFDE43CFC22EB700C87F009E608E8
:10896000B5F041603F80F489828A831410E70FF5E7
:1089700093E0F5F0A3E608B5F02A602880F3F593BC
:10898000E493F5F0A3E608B5F01A601880F2CB7016
:108990001588828C838B9387F009E493A3B5F00448
:1089A000600280F380611410E72E89828A83F59338
:1089B000ECFAE0F5F0A3C8C582C8CCC583CCCBC522
:1089C00093CBE493A3C8C582C8CCC583CCCBC59355
:1089D000CBB5F033603180DA89828A83F593ECFA83
:1089E000E493F5F0A3C8C582C8CCC583CCCBC593AE
:1089F000CBE493A3C8C582C8CCC583CCCBC593CBED
:108A0000B5F004600280D97FFFB5F0020F2240026A
:108A10007F0122020089580200898EED60F5141052
:108A2000E7F5CB701488828C83F59387F009E0A377
:108A3000B5F0D460D280F480CE1410E72D89828AFC
:108A400083F593ECFAE0F5F0A3C8C582C8CCC583E2
:108A5000CCCBC593CBE0A3C8C582C8CCC583CCCB57
:108A6000C593CBB5F0A1609F80DB89828A83F593A3
:108A7000ECFAE493F5F0A3C8C582C8CCC583CCCB8F
:108A8000C593CBE0A3C8C582C8CCC583CCCBC59366
:108A9000CBB5F0A360A180DAEB7008E709F60870A7
:108AA000FA801B89828A831410E70AF593E0A3F603
:108AB0000870FA8009F593E493A3F60870F9ECFACC
:108AC000A9F0EDFB2288F0ED60CE1410E7F0CB703A
:108AD0000E88828C83F593E709F0A370FA80DF1487
:108AE00010E72889828A83F593ECFAE0A3C8C5824F
:108AF000C8CCC583CCCBC593CBF0A3C8C582C8CCAA
:108B0000C583CCCBC593CB70E280B589828A83F5CF
:108B100093ECFAE493A3C8C582C8CCC583CCCBC57B
:108B200093CBF0A3C8C582C8CCC583CCCBC593CBAF
:108B300070E1808CEB700C87F009E608B5F019DF66
:108B4000F6801589828A831410E711F593E0F5F019
:108B5000A3E608B5F002DFF502008BE5F593E49398
:108B6000F5F0A3E608B5F07DDFF48079CB701388CB
:108B7000828C838B9387F009E493A3B5F067DFF5CC
:108B800080631410E73089828A83F593ECFAE0F56C
:108B9000F0A3C8C582C8CCC583CCCBC593CBE49326
:108BA000A3C8C582C8CCC583CCCBC593CBB5F035A3
:108BB000DFDCDEDA802F89828A83F593ECFAE49396
:108BC000F5F0A3C8C582C8CCC583CCCBC593CBE494
:108BD00093A3C8C582C8CCC583CCCBC593CBB5F015
:108BE00004DFDBDED97FFFB5F0020F2240027F01F8
:108BF0002202008B3402008B6C88F0EF60010E4E75
:108C000060EEED60EC1410E7ECCB701288828C8380
:108C1000F59387F009E0A3B5F0CBDFF680C7141019
:108C2000E72F89828A83F593ECFAE0F5F0A3C8C5B3
:108C300082C8CCC583CCCBC593CBE0A3C8C582C8C2
:108C4000CCC583CCCBC593CBB5F09ADFDDDEDB8022
:108C50009489828A83F593ECFAE493F5F0A3C8C56E
:108C600082C8CCC583CCCBC593CBE0A3C8C582C892
:108C7000CCC583CCCBC593CBB5F004DFDCDEDA0208
:108C8000008BE5EF4E6022EF60010EEDBB0007F7B1
:108C900009DFFCA9F022BB8000500E89828A838BF9
:108CA000931593F0A3DFFCDEFA22E6FC08E6FD084C
:108CB000E6FE08E6FF22E0FCA3E0FDA3E0FEA3E061
:108CC000FF22E493FC740193FD740293FE740393FA
:108CD000FF22E6FB08E6F908E6FA08E6CBF822E010
:108CE000F8A3E0F9A3E0FAA3E0FB22E493F874010F
:108CF00093F9740293FA740393FB22ECF608EDF6F1
:108D000008EEF608EFF622E6FB08E6FA08E6F92296
:108D1000EBF608EAF608E9F622E0FBA3E0FAA3E0A6
:108D2000F922E493FB740193FA740293F922E52883
:108D3000245BF582E434A9F583759300E0052822CD
:108D40009000A9583027049000A95BE475F0011247
:108D50000087C3020083F82020E57F2ED2208018F0
:108D6000EF540F2490D43440D4FF30240BEF24BFB1
:108D7000B41A0050032461FFE52960021529052C6F
:108D8000E52C7002052B3027119000A958E475F0EE
:108D900001120087C3EF020084490203FE1C740322
:108DA000D2278003E4C227F5289000A95812008733
:108DB000DAE4F529F52BF52CE52960087F2012006F
:108DC0008D7880F4752AFFC221C220C222C223C23C
:108DD00025C226C22812008D40FF700E3027067F64
:108DE0000012008D89AF2CAE2B22B42563C2D5C2F0
:108DF0002412008D40FF24D0B40A00501A75F00AE6
:108E0000782930D50508B6FF0106C6A426F620D578
:108E1000047002D22380D824CFB41A00EF5004C2C9
:108E2000E5D224020090C6D22180C4D22080BED2D6
:108E30002280BAD2D580B8D22580B27F2012008D90
:108E4000782022077401B5290040F012008D2EFF12
:108E500012008D7802008DB8D228D226808F1200A1
:108E60008D2EFB12008D2EFA12008D2EF94A4B70BA
:108E70000679D37A917B8120223DE52960397E00F5
:108E8000E9C0E02EF9EAC0E03400FA120083F8F9F4
:108E9000D0E0FAD0E0C960060EEE652A70E2C2D5D5
:108EA000EBC0E0EAC0E0E9C0E0EE1200912ED0E0B5
:108EB000F9D0E0FAD0E0FB120083F8FF6096EBC037
:108EC000E0EAC0E0E9C0E012008D78D0E02401F9CA
:108ED000D0E03400FAD0E0FBE52A0460DAD52AD7E6
:108EE00002008E54D222808F1200910A60F6E52A89
:108EF0007001041200806AA92A600EE52A600A1433
:108F0000F52A120091BDEF60F2EA30E702F404C3E3
:108F100099400402008F9DEAF4252A0430E701E419
:108F200004F52A800F1200910A60B9EA052A252A61
:108F30001200806AEA9000A987F030E701E4252A50
:108F400004D52A04202501141200912EE4C0E01259
:108F50000091BD9000A987E0601420E70814F0128A
:108F6000008D60802604F0D0E014C0E07F00120085
:108F70008D60E52A600812008D57152A800D302576
:108F80000412008D57D0E002008DB8D0E00480BDFF
:108F90001200910A6093E52A041200806A9000A9E9
:108FA00087EAF0E52A2025026001042404120091DA
:108FB0002E74FF04C0E0120091BD12008D60E52AFE
:108FC000202502600412008D57D0E0B52AE57F45C8
:108FD00012008D6A9000A987E07F2B30E7047F2D77
:108FE000F404C0E012008D78D0E075F00A84C0F07F
:108FF00012008D61D0E012008D6102008DB87910F1
:1090000080027908C226C2288008D2D5790A800455
:10901000790AC2D5E52A047002F52AE4FAFDFEFFBA
:1090200012008D2EFC7B0820211612008D2EFD7B58
:109030001030200C12008D2EFE12008D2EFF7B2092
:10904000EC3382D592D55013C3E43020069FFFE461
:109050009EFEE42021039DFDE49CFCE4CBF8C221AC
:10906000EC700CCFCECDCCE824F8F870F38017C3A9
:10907000EF33FFEE33FEED33FDEC33FCEB33FB99C6
:109080004002FB0FD8E9EB302105F8D0E0C448B22C
:1090900021C0E00AEC4D4E4F78207B0070C2EAB54B
:1090A0002A0040BCC0E012009130D0F0D0E0202176
:1090B00004C4C0E0C4B221C0F012008D61D0F0D56C
:1090C000F0EA02008DB8120088548E5E538FFE586D
:1090D0008E2B4C8E274290024F900A44900A498E64
:1090E00041439010558F25468F90458EE84791F06B
:1090F000508E2F2D8E332E8E5A2B8E37238E582046
:1091000091DC2A8DED4800008E50E52AB4FF0375EE
:109110002A0612008D2EFC12008D2EFD12008D2EBF
:10912000FE12008D2EFF9000A980020080A7790A10
:10913000A2D5202314302509B910020404B908016E
:1091400004A2D520260250010420226D9222B529C6
:10915000005036C0E07F2030231A7F30A2227226D2
:109160007225501012009189C222C226C225C2283F
:109170007F308010302503E9C0E012008D78302563
:1091800003D0E0F9D0E0B529CA3025197F30B910F5
:109190000D12008D787F583024077F788003B9083E
:1091A0000412008D783022067F2D02008D787F20FA
:1091B0002028F77F2B2026F222922280CC7F00B439
:1091C0000700500E2480F582E434A9F583759300DE
:1091D000E0FF22286E756C6C2900D22112008D2EC2
:1091E0003021F7C221782930D50108F602008DED33
:1091F00012008D2E7F4960087F4310E7027F5814CC
:10920000C0E0EF12008D69743A12008D69D0E06001
:109210000DC0E0C412008D61D0E012008D61D22338
:1092200075290402008FFE25730D0A0025730D00B9
:109230003E002B434D544900524543454956452075
:1092400041204D45535341474521002B434D475243
:1092500000444953504C415920544845204D4553F2
:109260005341474520414E442044454C45544520F8
:1092700049543A000D003B002B2B2B2B2B2B2B2B77
:109280002B4D4F445F49443A002B2B2B2B2B2B2B80
:109290002B2B5245475F49443A002B2B2B2B2B2B72
:1092A0002B2B2B534554504F494E543A000A002D56
:1092B0002D2D2D2D2D2D2D4D4F445F6964006E6F8A
:1092C0002063720063616E277420676574206D6F80
:1092D000645F69640041542B434D47443D31006352
:1092E000616E206E6F742067657420656E64706FA8
:1092F000696E740063616E206E6F74206765742000
:109300007265675F69640023232323232323737417
:1093100072737472206661696C6564212121002B6F
:10932000434D47533A004F4B004552524F52004570
:1093300052004154004154453156310041542B49AB
:1093400050523D300041542B43434C4B3F0041545D
:10935000442A233036230041542B434D47463D31A8
:1093600000415426570031353631383038313532E6
:10937000350041545F434D47463D310041542B4336
:109380004D47533D222573220000000000000000DD
:1093900000000000000000000000000000000000CD
:1093A00000000000000000000000000000000000BD
:1093B00000000000000000000000000000000000AD
:1093C000000000000000000000000000000000009D
:1096800000000000000000000073656E64206F752C
:109690007420746865207061636B65742066726FF6
:1096A0006D20617270206275666665720A0D0044F5
:1096B00048435020726571756573742E2E2E2000FC
:1096C0006970203D20002E006964203D2000736EEB
:1096D000203D200066773A0068773A0062773A00CA
:1096E0004E6574776F726B20436F6E74726F6C6C23
:1096F00065720041542B434D47533D222573220090
:10970000746573742066697273742074696D650082
:10971000546573742047534D206D6F64756C6520DC
:1097200066697273742074696D650041542B434DF2
:1097300047523D310041542B434D47443D31005485
:10974000435049505F7461736B004C6564426561BE
:10975000745F7461736B0054696D65725F746173DB
:109760006B004C6564666C6173685F7461736B0059
:1097700055617274305F7461736B0055617274313E
:109780005F7461736B0055617274325F7461736BE7
:10979000005363686564756C655F7461736B005436
:1097A000696D655365727665725F7461736B0055A0
:1097B00053425F7461736B0067736D5F7461736BA9
:1097C000004D61737465725F4E6F64655F746173A1
:1097D0006B00D9000AFA000000000001040000003C
:1097E0000000000000000000000000000000000079
:1097F0000000000000000000000000000000000069
:10980000000049444C4500505245414D424C4500F2
:10981000484541444552004441544100756E6B6EC9
:109820006F776E00494E495449414C495A4500559D
:1098300053455F544F4B454E00574149545F464F87
:10984000525F5245504C5900444F4E455F57495462
:10985000485F544F4B454E00504153535F544F4B5C
:10986000454E004E4F5F544F4B454E00504F4C4CB1
:109870005F464F525F4D415354455200414E53573E
:1098800045525F444154415F524551554553540040
:10989000544F4B454E005245504C595F544F5F500A
:1098A0004F4C4C5F464F525F4D415354455200540C
:1098B0004553545F524551554553540054455354F4
:1098C0005F524553504F4E5345004241434E45541D
:1098D0005F444154415F455850454354494E475FAA
:1098E0005245504C59004241434E45545F44415407
:1098F000415F4E4F545F455850454354494E475F72
:109900005245504C59005245504C595F504F53549A
:10991000504F4E454400554E4B4E4F574E005052FF
:109920004F50524945544152590075EBAA75EB55B9
:10993000759D02787FE4F6D8FD900000007F007EE0
:10994000807D01E4F0A3DFFCDEFADDF875355675A5
:1099500036D875817B020099830201AA33E493A370
:10996000F85407240CC8C333C4540F4420C88340A0
:1099700004F456800146F6DFE4800C01020408106E
:1099800020408090006077E47E019360CCA3FF5478
:109990003F30E509541FFEE493A360010ECF54E06D
:1099A000B4E026E493FBA3E493FAA3E493F9A3E4DD
:1099B00093C083C08212008449D082D083A309E976
:1099C00070010ADFEADEE880BE54C025E0602B406B
:1099D0008CE493A3FAE493A3F8E493A3C8C582C8E4
:1099E000CAC583CA759300F0759300A3C8C582C821
:1099F000CAC583CADFE3DEE1808DE493A3F8E49374
:109A0000A34003F68001F208DFF402009987759302
:109A100000853583853682E0F581A3A881E0F6A331
:109A200018B87CF9C0A8C2AF858335858236D0A826
:109A3000D0E0548085A8384238D007D006D005D071
:109A400004D003D002D001D000D0D0D082D083D0B7
:109A500093D0F0D0E08538A822C0E0C0F0C093C019
:109A600083C082C0D0C000C001C002C003C004C017
:109A700005C006C007C0A8C2AF75930085358385B1
:109A80003682E581C3947CF804C3C5829582500276
:109A90001583F582C0A8C2AF858335858236D0A8EC
:109AA000E581F0A3D0E0F0D8FA0203FAF275930052
:109AB000853583853682E581C3947CF804C3C582ED
:109AC000958250021583F582C0A8C2AF8583358583
:109AD0008236D0A8E581F0A3D0E0F0D8FA0203F1F5
:109AE000FC4E6F7468696E6720746F20646F206924
:109AF0006E20446973636F767279206F66205050D0
:109B0000506F4520210D0A005050506F4520416391
:109B1000636F756E74206F722050617373776F720C
:109B200064206E6F7420636F7272656374210D0A16
:109B30000046696E69736820746865205050502033
:109B400068616E647368616B6520212120256C78E3
:109B50000D0A0047434F4E4649475F496E697428D6
:109B6000292E2E2E0A0D0047434F4E4649475F5778
:109B700072697465436F6E66696744617461282910
:109B80002E2E2E0A0D000000000000000000000034
:109B900000000000000025642F252E3262642F256E
:109BA0002E32626420252E3262643A252E3262649F
:109BB0003A252E32626400286E756C6C29003031B3
:109BC00032333435363738390000000000000000E9
:109BD000000000000000F80000000000330000005A
:109BE0000008060806000000000000004040F840A1
:109BF000F840043F053F05047088FC083000182039
:109C0000FF211E00F09860E0380000310E1F330C79
:109C100000F0887000001E2126192720100E000079
:109C20000000000000000000000000F00C02000036
:109C3000000F3040000618E0000000601807000028
:109C40004080F080400002010F0102000000F0009F
:109C5000000001011F0101000000000000008070F1
:109C600000000000000000000000010101010100EF
:109C700000000000000000300000000000008070C4
:109C80000C00601C03000000F0080818E0001F2012
:109C900020300F000010F800000000203F200000DE
:109CA00070080808F000302C222130003008888825
:109CB0007000182020311E00008060F000000605B2
:109CC000243F2404F80888880800192120311F0047
:109CD000E018889800000F3120201F00380808E89D
:109CE000180000003F0000007088088870001E21E6
:109CF00021211E00F0080818E000013222310F0077
:109D00000000C000000000003000000000008000E3
:109D100000000000E000000000008060100800016A
:109D2000020C1020404040404000040404040400A1
:109D300000083040800000201804020170080888E4
:109D40007000000037010000F0108878F0001F203C
:109D500027340F00008078E00000203F02033E20FF
:109D600008F888887000203F20201F00F0100808A5
:109D700018001F202020100008F80810E000203FE5
:109D800020100F0008F888E81800203F202330003A
:109D900008F888E81800203F20030000E0100808B9
:109DA00018000F1020221E0208F80000F808203FBB
:109DB00001013F200808F808080020203F2020006B
:109DC000000808F80808C080807F000008F8886054
:109DD0001808203F20073C2008F808000000203F1A
:109DE00020202030F8F800F8F8003F003F003F0046
:109DF00008F8E008F808203F21063F00F00808189E
:109E0000E0001F2020300F0008F80808F000203F75
:109E100021010000F0080818E0000F342C707F00CA
:109E200008F888887000203F20033C2070880808CC
:109E30001800302021221C001808F8081800002003
:109E40003F20000008F80000F808001F20201F0035
:109E500008F80080F80800033C0F00007884F8C080
:109E60007800003F003F0000087880780800203C20
:109E7000033C200008F88078080000203F20000004
:109E8000180888780800203C232030000000FE02DB
:109E9000020000007F4040000038C00000000000C9
:109EA000011E6000000202FE00000040407F000032
:109EB0000004020400000000000000000000000098
:109EC000000080808080808000020400000000008C
:109ED00000000000000080808000003D26223F201E
:109EE00008F800800000001F21201F000000808073
:109EF0008000001F2120210000008088F800001F42
:109F000020203F20000080800000001F222223002C
:109F10000080F088881800203F202000000080800A
:109F20008080006B9494936008F800808000203F4C
:109F300021003F2000809800000000203F2000000A
:109F4000000080980000C080807F000008F800803A
:109F50008080203F240639200808F80000002020D7
:109F60003F2020008080808000003F003F003F00B5
:109F7000808000808000203F21003F200000808002
:109F80000000001F20201F0080808080000080FFD4
:109F9000A0201F00000080808000001F20A0FF8004
:109FA000808000808000203F210001000000808030
:109FB00080000023242439000080E080000000009D
:109FC0001F202000808000808000003F20203F2054
:109FD0008080000080800007381C030080408000E3
:109FE0008000033C033E030080800080800020331B
:109FF0000E3B20008080000080808087780C03006A
:10A0000000808080800000302C2330000000807EA3
:10A0100002000000003F40001C221CC04040000025
:10A02000003F0202F8F0E0C080000F0703010000CB
:10A030001C221C8040400000001F2020000000FF68
:10A040000000000000FF00000000001F001C001FB7
:10A05000001E001F001E001F001F001E001F001E0C
:10A06000001F20636865636B65640073656C6563DE
:10A0700074656400000000000000000000000000A3
:10A0800000000000000000000000000000000000D0
:10A090000000000000009000B561EFF09000482B38
:10A0A000E0FEA3E0AA06F99000B5627401F0A3EA0D
:10A0B000F0A3E9F0900091E6E0602A90004828744F
:10A0C00001F0A37448F0A37443F0F99000471574AD
:10A0D00001F0A37448F0A3E9F0900047067401F082
:10A0E000A374488055900091CDE0900048286026E8
:10A0F0007401F0A37448F0A3743BF0F99000471585
:10A100007401F0A37448F0A3E9F0900047067401CD
:10A11000F0A3744880247401F0A37448F0A3742D54
:10A12000F0F9900047157401F0A37448F0A3E9F02A
:10A13000900047067401F0A37448F0A3E9F0900082
:10A14000B561E06402600301A57290009406E0FF2F
:10A15000900091CDE02FFFE433FE74552FF9744841
:10A160003EFA9000470B7401F0A3EAF0A3E9F078FF
:10A170006F06E6700C1806E670071806E6700218FF
:10A1800006E47874F608F69000B562E0FBA3E0FA06
:10A19000A3E02419F9E43AFA120083F8FF64076097
:10A1A00005EF6405703D9000B562E0FBA3E0FAA303
:10A1B000E0241AF9E43AFA74011200842D120083A3
:10A1C000F86478600301CCD79000B562A3E0FAA3ED
:10A1D000E02419F9E43AFAE412008449786276201E
:10A1E00001A2859000B562E0FBA3E0FAA3E0241988
:10A1F000F9E43AFA120083F8700301CCD79000B565
:10A2000062A3E0FAA3E02410F9E43AFA12008529E7
:10A2100045F0700301A35A9000B562A3E0FAA3E0F1
:10A22000241AF9E43AFA74FF1200840E600301CC98
:10A23000D79000B562E0FBA3E0FAA3E0241BF9E4A9
:10A240003AFA120083F8FF640860209000B562A318
:10A25000E0FAA3E02419F9E43AFA120083F8FE6464
:10A26000026004EEB40125EFB403219000B562E072
:10A27000FBA3E0FAA3E02419F9E43AFAE41200841B
:10A2800049786276801201B18601C4C69000B56239
:10A29000E0FBA3E0FAA3E0241BF9E43AFA120083FE
:10A2A000F8FFD3940440067E047F0480007403A862
:10A2B00007088002C333D8FCFF9000B562E0FBA31F
:10A2C000E0FAA3E0241AF9E43AFAEF120084499084
:10A2D00000B562E0FBA3E0FAA3E0241BF9E43AFA3C
:10A2E00074011200842D9000B562A3E0FAA3E0246B
:10A2F00019F9E43AFA120083F8540F14700301B804
:10A300002D24FE601E14700301C2E224FE700301BE
:10A31000C2E224FE700301C2E22406600301CCD72E
:10A3200001A5C1E47874F608F67872F608F678624A
:10A3300076041201B1869000482BE0FEA3E0AA0645
:10A34000F97B019000B562EBF0A3EAF0A3E9F078A5
:10A3500072E6FE08E6FFE901A5F39000B562E0FBB6
:10A36000A3E0FAA3E02419F9E43AFA120083F854BE
:10A370000F6403600301CCD79000B562A3E0FAA399
:10A38000E0241EF9E43AFA120083F8700301A53DB7
:10A390009000B562A3E0FAA3E0241FF9E43AFAE4DE
:10A3A00075F0011200854DFEE5F064E07003EE6487
:10A3B00001600301CCD7F5F01200857990004828A0
:10A3C000E0FBA3E0FAA3E02421F9E43AFA741012C6
:10A3D0000084497874760008762990004828E0FBCC
:10A3E000A3E0FAA3E02420F9E43AFA7450120084BE
:10A3F000499000B562E0FBA3E0FAA3E0240CF9E485
:10A400003AFA120083F8FF90004828E0FBA3E0FA34
:10A41000A3E02418F9E43AFAEF120084499000B559
:10A4200062E0FBA3E0FAA3E0240DF9E43AFA12009B
:10A4300083F8FF90004828E0FBA3E0FAA3E024198A
:10A44000F9E43AFAEF120084499000B562E0FBA308
:10A45000E0FAA3E0240EF9E43AFA120083F8FF9040
:10A46000004828E0FBA3E0FAA3E0241AF9E43AFA52
:10A47000EF120084499000B562E0FBA3E0FAA3E08C
:10A48000240FF9E43AFA120083F8C39401FF900014
:10A490004828E0FBA3E0FAA3E0241BF9E43AFAEF32
:10A4A00012008449F4600301C95D9000B562E0FBCD
:10A4B000A3E0FAA3E0240EF9E43AFA120083F8C309
:10A4C0009401FF90004828E0FBA3E0FAA3E0241ADF
:10A4D000F9E43AFAEF12008449F4600301C95D908F
:10A4E00000B562E0FBA3E0FAA3E0240DF9E43AFA38
:10A4F000120083F8C39401FF90004828E0FBA3E01A
:10A50000FAA3E02419F9E43AFAEF12008449F4605E
:10A510000301C95D9000B562E0FBA3E0FAA3E0246B
:10A520000CF9E43AFA120083F8C39401FF90004852
:10A5300028E0FBA3E0FAA3E0241801C9549000B579
:10A5400062E0FBA3E0FAA3E0241FF9E43AFAE47521
:10A55000F0011200854DFEE5F064807003EE6407A3
:10A56000600301CCD7F5F012008579786276080196
:10A57000C4889000B561E0FFB4032690004709E06D
:10A58000FCA3E08C837593002404F582E43583F505
:10A5900083759300E0FCA3E04C700301CCD701ACC1
:10A5A0006DEF6404705D9000B562E0FBA3E0FAA378
:10A5B000E02419F9E43AFA120083F8540F24FE70EB
:10A5C0001590004828E0FBA3E0FAA3E02421F9E479
:10A5D0003AFAE401B84090004E19E020E20301C4C9
:10A5E0008C7872E6FE08E6FF9000B562E0FBA3E01F
:10A5F000FAA3E02410F9E43AFAEE8FF0120085791C
:10A6000001C62290009406E0FF900091CDE02FFF5C
:10A61000E433FE74552FF974483EFA9000470B74EA
:10A6200001F0A3EAF0A3E9F0C37875E69FF618E617
:10A630009EF690004828E0FBA3E0FAA3E0F91200A0
:10A6400083F86445600301CCD7E92402F9E43AFABF
:10A65000120083F8FDFB7874E66B7001E4600BED8B
:10A66000FE08E6FDEE18F6ED08F690004828E0FB3F
:10A67000A3E0FAA3E02403F9E43AFA120083F8FF16
:10A680007875E66F7001E4600818E60818F6EF08C0
:10A69000F690004828E0FBA3E0FAA3E02406F9E4E2
:10A6A0003AFA120083F8543F600301CCD790004877
:10A6B00028A3E0FAA3E02407F9E43AFA120083F8A9
:10A6C000600301CCD7900091CDE0606F7851E6FE39
:10A6D00008E6FF4E606590004828E0FBA3E0FAA37F
:10A6E000E02410F9E43AFA12008529FDACF0C3EC3D
:10A6F00094E05047ED6F7002EC6E600301CCD79090
:10A70000004828E0FBA3E0FAA3E02412F9E43AFAB7
:10A7100012008529FFAEF07853E6FC08E6FD6F7065
:10A7200002EE6C6016EFF4600301CCD712008529AD
:10A73000E47003E5F06C600301CCD790004828E09A
:10A74000FBA3E0FAA3E02409F9E43AFA120083F843
:10A75000FF6406700301AE00EF6411700301A8806E
:10A76000EF6401600301CCD790004706E0FBA3E053
:10A77000FAA3E02414F9E43AFA120083F8FF64081B
:10A780006021EF600301CCD7900091CAE0FBA3E009
:10A79000FAA3E0F9EA494B700301CCD7120088E72D
:10A7A00001CCD790004706E0FBA3E0FAA3E0241415
:10A7B000F9E43AFAE41200844990004828E0FBA347
:10A7C000E0FAA3E02410F9E43AFA12008529FFAE7A
:10A7D000F07860EEF608EFF690004828E0FBA3E082
:10A7E000FAA3E0240CF9E43AFA12008529FD90005E
:10A7F0004828A3E0FAA3E02410F9E43AFAE5F08D42
:10A80000F01200857990004828E0FBA3E0FAA3E06D
:10A81000240CF9E43AFAEE8FF012008579900048A2
:10A8200028E0FBA3E0FAA3E02412F9E43AFA1200CC
:10A830008529FFAEF018EEF608EFF690004828E004
:10A84000FBA3E0FAA3E0240EF9E43AFA120085290A
:10A85000FD90004828A3E0FAA3E02412F9E43AFAB4
:10A86000E5F08DF01200857990004828E0FBA3E028
:10A87000FAA3E0240EF9E43AFAEE8FF002008579AB
:10A88000E47862F6900047097446F0A374BBF09038
:10A89000004709E0FCA3E0FDC39403EC94474003A8
:10A8A00001AAC98D828C83759300E5822404F58208
:10A8B000E43583F583759300E0FEA3E0FF4E70035B
:10A8C00001AAB690004715E0FBA3E0FAA3E0241626
:10A8D000F9E43AFA12008529FDEF6D7003EE65F098
:10A8E000600301AAB690004709E0FEA3E08E8375DD
:10A8F00093002406F582E43583F583759300E0FE2A
:10A90000A3E0FF4E602090004715A3E0FAA3E024E7
:10A9100014F9E43AFA12008529FDEF6D7003EE6533
:10A92000F0600301AAB690004709E0FEA3E0FFF53E
:10A93000828E83759300E0FCA3E0FD4C70138F8240
:10A940008E83759300A3A3E0FEA3E04E700301A9DC
:10A95000DDBCFF1FBDFF1C90004709E0FEA3E0F532
:10A96000828E83759300A3A3E0FEA3E0F47002EE51
:10A97000F4606A90004828E0FBA3E0FAA3E0240C0E
:10A98000F9E43AFA12008529FFAEF090004709E099
:10A99000FCA3E0F5828C83759300E0FCA3E06F706C
:10A9A00002EC6E600301AAB690004828A3E0FAA367
:10A9B000E0240EF9E43AFA12008529FFAEF0900087
:10A9C0004709E0FCA3E0F5828C83759300A3A3E024
:10A9D000FCA3E06F7002EC6E600301AAB690004722
:10A9E00009E0FEA3E0FF8E837593002406F582E460
:10A9F0003583F583759300E0FCA3E04C703590003F
:10AA00004715E0FBA3E0FAA3E02414F9E43AFA12B4
:10AA1000008529FDACF08F828E83759300E582243A
:10AA200006F582E43583F583759300ECF0A3EDF031
:10AA300001AC2D90004709E0FEA3E0FFF5828E8374
:10AA4000759300E0FCA3E04C600301AC2D8F828E77
:10AA500083759300A3A3E0FEA3E04E600301AC2D39
:10AA600090004828E0FBA3E0FAA3E0240CF9E43AC4
:10AA7000FA12008529FFAEF090004709E0FCA3E040
:10AA8000FDF5828C83759300EEF0A3EFF090004803
:10AA900028E0FBA3E0FAA3E0240EF9E43AFA12005E
:10AAA0008529FFAEF08D828C83759300A3A3EEF011
:10AAB000A3EFF001AC2D9000470AE02409F09000CC
:10AAC0004709E03400F001A88FE47871F67871E668
:10AAD000FFC39404400301CCD790004715E0FBA3CB
:10AAE000E0FAA3E02416F9E43AFA12008529FDEF12
:10AAF00025E02458F9ED677004E5F01967600578E2
:10AB0000710680C9E47871F67871E6FFC394084055
:10AB10000301AC23EF75F009A424BFF582E43446A9
:10AB2000F583759300E0FEA3E04E600301AC1D9039
:10AB3000004715E0FBA3E0FAA3E02416F9E43AFA93
:10AB400012008529FFAEF0E6FD75F009A424BFF5DB
:10AB500082E43446F583759300EEF0A3EFF09000A5
:10AB60004715E0FBA3E0FAA3E02414F9E43AFA1253
:10AB7000008529FFAEF0ED75F009A424C1F582E44B
:10AB80003446F583759300EEF0A3EFF0900048286B
:10AB9000E0FBA3E0FAA3E0240CF9E43AFA12008502
:10ABA00029FFAEF0ED75F009A424BBF582E434462C
:10ABB000F583759300EEF0A3EFF090004828E0FBDA
:10ABC000A3E0FAA3E0240EF9E43AFA12008529FF83
:10ABD000AEF0ED75F009A424BDF582E43446F583AA
:10ABE000759300EEF0A3EFF0ED75F009A424C3F522
:10ABF00082E43446F5837593007408F0ED75F0092E
:10AC0000A424BBF582E43446759300AF82900047DC
:10AC100009F0A3EFF07862E64440F680067871060A
:10AC200001AB087871E66408700301CCD7787574BD
:10AC3000E426F61874FF36F690009406E0FF9000C4
:10AC400091CDE02FFFE433FE74492FF974483EFAAA
:10AC50009000470B7401F0A3EAF0A3E9F07862E6F4
:10AC60004402F6E47872F608F6120200007873E601
:10AC70001846700301CCD77873E6241C7975F71851
:10AC8000E43619F77874E6FF90004828E0FBA3E06B
:10AC9000FAA3E02402F9E43AFAEF1200844908E644
:10ACA000FF90004828E0FBA3E0FAA3E02403F9E4C6
:10ACB0003AFAEF1200844990004828E0FBA3E0FA3A
:10ACC000A3E02409F9E43AFA741112008449787374
:10ACD000E62408FF18E436FE90004715E0FBA3E0E9
:10ACE000FAA3E02418F9E43AFAEE8FF0120085791D
:10ACF00090004715E0FBA3E0FAA3E0241AF9E43A38
:10AD0000FAE4F5F01200857990004709E0FEA3E02F
:10AD1000FF8E837593002404F582E43583F58375F3
:10AD20009300E0FCA3E0FD90004828E0FBA3E0FADC
:10AD3000A3E02414F9E43AFAEC8DF0120085798F3F
:10AD4000828E83759300E5822406F582E43583F5CF
:10AD500083759300E0FEA3E0FF90004828E0FBA38A
:10AD6000E0FAA3E02416F9E43AFAEE8FF012008537
:10AD7000797851E6FE08E6FF90004828E0FBA3E062
:10AD8000FAA3E0240CF9E43AFAEE8FF01200857988
:10AD900008E6FE08E6FF90004828E0FBA3E0FAA3DF
:10ADA000E0240EF9E43AFAEE8FF012008579900073
:10ADB0004709E0FEA3E0FFF5828E83759300E0FC77
:10ADC000A3E0FD90004828E0FBA3E0FAA3E02410F4
:10ADD000F9E43AFAEC8DF0120085798F828E837552
:10ADE0009300A3A3E0FEA3E0FF90004828E0FBA3AC
:10ADF000E0FAA3E02412F9E43AFAEE8FF001CBF77F
:10AE00009000B5627401F0A37447F0A37418F09039
:10AE100000B562A3E0FAA3E0C3900048289582EA57
:10AE20009583400301AF529000B562E0FBA3A3E01D
:10AE30002419F9E43AFA120083F8700301AF439041
:10AE400000B562A3E0FAA3E02404F9E43AFA1200A0
:10AE50008529FFAEF090004828E0FBA3E0FAA3E0CC
:10AE60002416F9E43AFA120085296F7003E5F06EB2
:10AE7000600301AF439000B562E0FBA3E0FAA3E0FA
:10AE80002406F9E43AFA12008529FFAEF090004852
:10AE900028E0FBA3E0FAA3E02414F9E43AFA120054
:10AEA00085296F7003E5F06E600301AF43900048A1
:10AEB00028A3E0FAA3E0240CF9E43AFA1200852969
:10AEC000FFAEF09000B562E0FBA3E0FAA3E0F91258
:10AED0000085296F7003EE65F07068E92402F9E4DB
:10AEE0003AFA12008529FFAEF090004828E0FBA353
:10AEF000E0FAA3E0240EF9E43AFA12008529B50736
:10AF000042E5F0B5063D9000B562E0FBA3E0FAA390
:10AF1000E02419F9E43AFA120083F86407600301A7
:10AF2000B8E190004828E0FBA3E0FAA3E02421F96F
:10AF3000E43AFA120083F8543F6402600301B8E176
:10AF400001B3B39000B563E475F022120084FD01F3
:10AF5000AE0F90004828E0FBA3E0FAA3E02421F91B
:10AF6000E43AFA120083F8543F64027042900048B9
:10AF700028E0FBA3E0FAA3E02416F9E43AFA120071
:10AF800085297860A6F008F6E47871F67871E6FF16
:10AF9000C39404501AEF25E0244AF97861E66770FB
:10AFA0000418E61967700301B2D578710680DD9048
:10AFB000004828E0FBA3E0FAA3E02421F9E43AFAF0
:10AFC000120083F830E20301CCD7741412008449D4
:10AFD0007874760008762890004828E0FBA3E0FA11
:10AFE000A3E02420F9E43AFA745012008449900056
:10AFF0004828E0FBA3E0FAA3E0241BF9E43AFA12A4
:10B000000083F8FF7871F690004828E0FBA3E0FA8F
:10B01000A3E0241FF9E43AFA120083F8FE900048F6
:10B0200028A3E0FAA3E0241BF9E43AFAEE12008424
:10B030004990004828E0FBA3E0FAA3E0241FF9E4CC
:10B040003AFAEF1200844990004828E0FBA3E0FAA6
:10B05000A3E0241AF9E43AFA120083F8FFF690000C
:10B060004828E0FBA3E0FAA3E0241EF9E43AFA1230
:10B070000083F8FE90004828A3E0FAA3E0241AF920
:10B08000E43AFAEE1200844990004828E0FBA3E07D
:10B09000FAA3E0241EF9E43AFAEF12008449900082
:10B0A0004828E0FBA3E0FAA3E02419F9E43AFA12F5
:10B0B0000083F8FFF690004828E0FBA3E0FAA3E045
:10B0C000241DF9E43AFA120083F8FE90004828A300
:10B0D000E0FAA3E02419F9E43AFAEE120084499068
:10B0E000004828E0FBA3E0FAA3E0241DF9E43AFAC3
:10B0F000EF1200844990004828E0FBA3E0FAA3E0A7
:10B100002418F9E43AFA120083F8FFF69000482870
:10B11000E0FBA3E0FAA3E0241CF9E43AFA1200836E
:10B12000F8FE90004828A3E0FAA3E02418F9E43AD6
:10B13000FAEE1200844990004828E0FBA3E0FAA34D
:10B14000E0241CF9E43AFAEF120084499000482800
:10B15000E0FBA3E0FAA3E0241FF9E43AFA74011239
:10B1600000842D704390004828A3E0FAA3E0241E39
:10B17000F9E43AFA74011200842D702C90004828EA
:10B18000A3E0FAA3E0241DF9E43AFA740112008462
:10B190002D701590004828A3E0FAA3E0241CF9E4E0
:10B1A0003AFA74011200842D90004828E0FBA3E0D5
:10B1B000FAA3E02414F9E43AFA12008529FFAEF06C
:10B1C0007860EEF608EFF690004828E0FBA3E0FA7E
:10B1D000A3E02416F9E43AFA12008529FD9000480C
:10B1E00028A3E0FAA3E02414F9E43AFAE5F08DF09C
:10B1F0001200857990004828E0FBA3E0FAA3E02440
:10B2000016F9E43AFAEE8FF012008579900048289A
:10B21000E0FBA3E0FAA3E02410F9E43AFA12008577
:10B2200029FFAEF018EEF608EFF690004828E0FB94
:10B23000A3E0FAA3E0240CF9E43AFA12008529FD10
:10B2400090004828A3E0FAA3E02410F9E43AFAE5D4
:10B25000F08DF01200857990004828E0FBA3E0FA19
:10B26000A3E0240CF9E43AFAEE8FF012008579900D
:10B27000004828E0FBA3E0FAA3E02412F9E43AFA3C
:10B2800012008529FFAEF018EEF608EFF6900048A0
:10B2900028E0FBA3E0FAA3E0240EF9E43AFA120056
:10B2A0008529FD90004828A3E0FAA3E02412F9E4E0
:10B2B0003AFAE5F08DF01200857990004828E0FB1D
:10B2C000A3E0FAA3E0240EF9E43AFAEE8FF01200BC
:10B2D000857901CB849000B562E4F0A374FFF0A3FC
:10B2E000F0E47871F67871E6FFC39408400301B387
:10B2F0009075F022EFA42431F582E5F03447F58310
:10B30000759300E0701CE675F022A42418F97447C8
:10B3100035F0FA9000B5627401F0A3EAF0A3E9F009
:10B32000806E7871E6FF75F022A42431F582E5F095
:10B330003447F583759300E06407704E9000B56262
:10B34000E0FBA3E0FAA3E0F94A6023E9241AF9E458
:10B350003AFA120083F8FE75F022EFA42432F58247
:10B36000E5F03447F583759300E0D39E401C787177
:10B37000E675F022A42418F9744735F0FA9000B568
:10B38000627401F0A3EAF0A3E9F078710601B2E576
:10B390009000B562E0FBA3E0FAA3E0F9F47002EAE2
:10B3A000F4700301CCD7E92421F9E43AFA740812C5
:10B3B0000084499000B562E0FBA3E0FAA3E0FF90AF
:10B3C00000482BEAF0A3EFF0241AF9E43AFA7403E8
:10B3D000120084499000B562E0FBA3E0FAA3E024E8
:10B3E00018F9E43AFA7403120084499000B562E057
:10B3F000FBA3E0FAA3E02416F9E43AFAE41200848D
:10B40000499000B562E0FBA3E0FAA3E02417F9E459
:10B410003AFA7404120084499000B562E0FBA3E09C
:10B42000FAA3E0241BF9E43AFAE4120084499000FC
:10B430004828E0FBA3E0FAA3E02416F9E43AFA1264
:10B44000008529FF9000B562E0FBA3E0FAA3E024A9
:10B4500004F9E43AFAE5F08FF0120085799000489B
:10B4600028E0FBA3E0FAA3E02414F9E43AFA12007E
:10B470008529FF9000B562E0FBA3E0FAA3E0240673
:10B48000F9E43AFAE5F08FF0120085799000482847
:10B49000E0FBA3E0FAA3E0240CF9E43AFA120085F9
:10B4A00029FF9000B562E0FBA3E0FAA3E0F9E5F024
:10B4B0008FF01200857990004828E0FBA3E0FAA302
:10B4C000E0240EF9E43AFA12008529FF9000B562F3
:10B4D000E0FBA3E0FAA3E02402F9E43AFAE5F08FF6
:10B4E000F0120085799000B562E0FBA3E0FAA3E0DA
:10B4F0002419F9E43AFA7401120084499000B56203
:10B50000E0FBA3E0FAA3E0241EF9E43AFAE4120017
:10B5100084499000B562E0FBA3E0FAA3E0241FF9A0
:10B52000E43AFAE4F5F012008579786CE6FF9000D1
:10B53000B562E0FBA3E0FAA3E0240CF9E43AFAEFE9
:10B540001200844908E6FF9000B562E0FBA3E0FA30
:10B55000A3E0240DF9E43AFAEF1200844908E6FF6B
:10B560009000B562E0FBA3E0FAA3E0240EF9E43A10
:10B57000FAEF1200844908E6FF9000B562E0FBA3F1
:10B58000E0FAA3E0240FF9E43AFAEF1200844990BC
:10B5900000B562E0FBA3E0FAA3E02410F9E43AFA74
:10B5A000E475F0011200857990004828E0FBA3E0E3
:10B5B000FAA3E0241BF9E43AFA120083F8FF9000A2
:10B5C000B562E0FBA3E0FAA3E0240BF9E43AFAEF5A
:10B5D0001200844990004828E0FBA3E0FAA3E0248D
:10B5E0001AF9E43AFA120083F8FF9000B562E0FB22
:10B5F000A3E0FAA3E0240AF9E43AFAEF120084493E
:10B6000090004828E0FBA3E0FAA3E02419F9E43A0B
:10B61000FA120083F8FF9000B562E0FBA3E0FAA302
:10B62000E02409F9E43AFAEF12008449900048282E
:10B63000E0FBA3E0FAA3E02418F9E43AFA1200834D
:10B64000F8FF9000B562E0FBA3E0FAA3E02408F95C
:10B65000E43AFAEF120084497F017E0012038B382E
:10B6600090004828E0FBA3E0FAA3E02422F9E43AA2
:10B67000FA120083F8FF9000B562E0FBA3E0FAA3A2
:10B68000E0241CF9E43AFAEF1200844990004828BB
:10B69000E0FBA3E0FAA3E02423F9E43AFA120083E2
:10B6A000F8FF9000B562E0FBA3E0FAA3E0241DF9E7
:10B6B000E43AFAEF1200844990004828E0FBA3E046
:10B6C000FAA3E02420F9E43AFA120083F854F0D304
:10B6D0009450500301B82DE47871F690004828E0AA
:10B6E000FBA3E0FAA3E02420F9E43AFA120083F87D
:10B6F000C4540FC39405FFE49400FEEF7802C333F3
:10B70000CE33CED8F9FF7871E6FDC39FEE6480F8A2
:10B71000748098400301B82DEDFF900091CDE02F8B
:10B72000FFE433FE90009406E0F97C002FFFEC3E2E
:10B73000FE74552FF58274483EF583759300E078CA
:10B7400070F6700301B82D7870E6FDB401040806A8
:10B750008089ED6402600301B7FA74562FF5827494
:10B76000483EF583759300E06404600301B7FA78FE
:10B7700071E6FF900091CDE02FFFE433FEE97C00FD
:10B780002FFDEC3EFC74572DF58274483CF5837513
:10B790009300E0FE74582DF58274483CF583759350
:10B7A00000E0FDEDFF7860EEF608EFF69000940003
:10B7B000E0FCA3E0FDC39FEC9E5006AE04AF058005
:10B7C000077860E6FE08E6FF9000B562E0FBA3E0C4
:10B7D000FAA3E02412F9E43AFAEE8FF01200857928
:10B7E0009000B562E0FBA3E0FAA3E02414F9E43A88
:10B7F000FAEE8FF01200857980337871E6FF9000C1
:10B8000091CDE02FFFE433FE90009406E07C002F02
:10B81000FFEC3EFE74562FF58274483EF583759317
:10B8200000E0FF60087871EF26F601B6DB90004873
:10B8300028E0FBA3E0FAA3E02421F9E43AFA74102B
:10B840001200844990004828E0FBA3E0FAA3E0241A
:10B8500021F9E43AFA120083F84402120084499074
:10B86000004828E0FBA3E0FAA3E02428F9E43AFA30
:10B8700074021200844990004828E0FBA3E0FAA378
:10B88000E02429F9E43AFA740412008449900094FF
:10B8900000E0FCA3E0FDECFF90004828E0FBA3E003
:10B8A000FAA3E0242AF9E43AFAEF1200844990005E
:10B8B0004828E0FBA3E0FAA3E0242BF9E43AFAEDF0
:10B8C000120084497874760008762C90004828E0AD
:10B8D000FBA3E0FAA3E02420F9E43AFA746001C87B
:10B8E000A99000B562A3E0FAA3E0FF9000482BEA1C
:10B8F000F0A3EFF0E47862F690004E19F090004863
:10B9000028E0FBA3E0FAA3E02421F9E43AFA1200CC
:10B9100083F830E21B9000B562E0FBA3E0FAA3E0FD
:10B920002419F9E43AFAE412008449762001C6E8C1
:10B9300090004828E0FBA3E0FAA3E02420F9E43AD1
:10B94000FA120083F8C4540F25E025E0FF7871F661
:10B95000C37875E69FFF18E69400CFC3941408F6E9
:10B96000EF940018F6D308E6940018E69400501BF4
:10B9700090004828E0FBA3E0FAA3E02421F9E43A90
:10B98000FA120083F820E00301BA4F9000B562E09C
:10B99000FBA3E0FAA3E02408F9E43AFA120083F8E2
:10B9A000FF90004828E0FBA3E0FAA3E02418F9E4A4
:10B9B0003AFA120083F86F600301C8789000B5620C
:10B9C000E0FBA3E0FAA3E02409F9E43AFA120083C9
:10B9D000F8FF90004828E0FBA3E0FAA3E02419F95F
:10B9E000E43AFA120083F86F600301C8789000B55A
:10B9F00062E0FBA3E0FAA3E0240AF9E43AFA1200B9
:10BA000083F8FF90004828E0FBA3E0FAA3E0241AA3
:10BA1000F9E43AFA120083F86F600301C8789000E5
:10BA2000B562E0FBA3E0FAA3E0240BF9E43AFA12D2
:10BA30000083F8FF90004828E0FBA3E0FAA3E0248D
:10BA40001BF9E43AFA120083F86F600301C878909A
:10BA5000004828E0FBA3E0FAA3E02421F9E43AFA45
:10BA6000120083F820E40301BE8A9000B562E0FB77
:10BA7000A3E0FAA3E02410F9E43AFA12008529FDC4
:10BA8000ACF04C700301BE8A9000B562A3E0FAA34B
:10BA9000E0240CF9E43AFA1203786990004828E0AF
:10BAA000FBA3E0FAA3E0241CF9E43AFA120083F8BD
:10BAB000FF90004711E06F600301BCA3900048288D
:10BAC000A3E0FAA3E0241DF9E43AFA120083F8FE99
:10BAD00090004712E06E600301BCA390004828A3C9
:10BAE000E0FAA3E0241EF9E43AFA120083F8FE908B
:10BAF000004713E06E600301BCA390004828A3E058
:10BB0000FAA3E0241FF9E43AFA120083F8FE900049
:10BB10004714E06E600301BCA390004711E0FE9063
:10BB200000B562E0FBA3E0FAA3E0240CF9E43AFAE2
:10BB3000EE1200844990004712E0FE9000B562E0EA
:10BB4000FBA3E0FAA3E0240DF9E43AFAEE12008434
:10BB50004990004713E0FE9000B562E0FBA3E0FAD5
:10BB6000A3E0240EF9E43AFAEE120084499000476B
:10BB700014E0FE9000B562E0FBA3E0FAA3E0240F1E
:10BB8000F9E43AFAEE120084499000B562E0FBA3B2
:10BB9000E0FAA3E0241BF9E43AFA120083F8600308
:10BBA00001BC769000B562A3E0FAA3E0241AF9E4A0
:10BBB0003AFA120083F8FE9000B562A3E0FAA3E01F
:10BBC0002418F9E43AFA120083F8C39EFE9000B5F7
:10BBD00065F09000B562A3E0FAA3E02416F9E43A18
:10BBE000FA120083F8131313541FFDC3EE9DFE9049
:10BBF00000B565F01200842DC3EE64809480500877
:10BC00009000B565E0F404F09000B565E0FE9000AA
:10BC1000B562E0FBA3E0FAA3E02417F9E43AFA12D4
:10BC20000083F81313543FFDC3EE9D9000B565F0FB
:10BC30001200842D9000B562A3E0FAA3E02416F967
:10BC4000E43AFA120083F8131313541FFE9000B560
:10BC500062A3E0FAA3E02417F9E43AFA120083F8A9
:10BC60002EFE9000B562A3E0FAA3E02418F9E43AAE
:10BC7000FAEE12008449786276019000B562E0FB2A
:10BC8000A3E0FAA3E02418F9E43AFA120083F8FEDC
:10BC90009000B562A3E0FAA3E0241AF9E43AFAEEC0
:10BCA00001BE6E9000B562E0FBA3E0FAA3E0240CB5
:10BCB000F9E43AFA120083F86F600301BE8A90003B
:10BCC000B562A3E0FAA3E0240DF9E43AFA12008386
:10BCD000F8FF90004828E0FBA3E0FAA3E0241DF958
:10BCE000E43AFA120083F86F600301BE8A9000B54F
:10BCF00062E0FBA3E0FAA3E0240EF9E43AFA1200B2
:10BD000083F8FF90004828E0FBA3E0FAA3E0241E9C
:10BD1000F9E43AFA120083F86F600301BE8A9000DA
:10BD2000B562E0FBA3E0FAA3E0240FF9E43AFA12CB
:10BD30000083F8FF90004828E0FBA3E0FAA3E0248A
:10BD40001FF9E43AFA120083F86F600301BE8A908B
:10BD5000004E19E04480F09000B562E0FBA3E0FAE9
:10BD6000A3E0241BF9E43AFA120083F8600301BE51
:10BD7000449000B562A3E0FAA3E0241AF9E43AFA89
:10BD8000120083F8FF9000B562A3E0FAA3E0241844
:10BD9000F9E43AFA120083F8C39FFF9000B565F00A
:10BDA0009000B562A3E0FAA3E02416F9E43AFA128F
:10BDB0000083F8131313541FFEC3EF9EFF9000B5CA
:10BDC00065F01200842DC3EF6480948050089000C9
:10BDD000B565E0F404F09000B565E0FF9000B56251
:10BDE000E0FBA3E0FAA3E02417F9E43AFA12008397
:10BDF000F81313543FFEC3EF9E9000B565F0120098
:10BE0000842D9000B562A3E0FAA3E02416F9E43A89
:10BE1000FA120083F8131313541FFF9000B562A3A6
:10BE2000E0FAA3E02417F9E43AFA120083F82FFFAE
:10BE30009000B562A3E0FAA3E02418F9E43AFAEF1F
:10BE400012008449786276019000B562E0FBA3E0BD
:10BE5000FAA3E02418F9E43AFA120083F8FF9000FC
:10BE6000B562A3E0FAA3E0241AF9E43AFAEF12006B
:10BE700084499000B562E0FBA3E0FAA3E0241FF937
:10BE8000E43AFAE4F5F01200857990004828E0FBE6
:10BE9000A3E0FAA3E02422F9E43AFA120083F8C3FB
:10BEA000944050229000B562E0FBA3E0FAA3E024A6
:10BEB0001CF9E43AFA120083F8D394804008900009
:10BEC0004E19E04440F09000B562E0FBA3E0FAA315
:10BED000E02419F9E43AFA120083F8540F14B40874
:10BEE00000400301CCD79000BEF575F004A4C583D3
:10BEF00025F0C583730200BF150200BF570200C2C0
:10BF00004B0200C6EF0200C7C80200C83F0200C8CB
:10BF1000780200C6C77862E620E00301CCD774033C
:10BF20001200844976409000B562E0FBA3E0FAA3DA
:10BF3000E02410F9E43AFAE4F5F012008579D378B8
:10BF400075E6940018E69400400412038B2BE47805
:10BF500072F608F601C4887862E620E00301C24068
:10BF600090004828E0FBA3E0FAA3E02421F9E43A9A
:10BF7000FA120083F86412600301C240900048285E
:10BF8000A3E0FAA3E02420F9E43AFA120083F8547B
:10BF9000F0D39450500301C0EFE47871F69000485C
:10BFA00028E0FBA3E0FAA3E02420F9E43AFA120027
:10BFB00083F8C4540FC39405FFE49400FEEF7802A5
:10BFC000C333CE33CED8F9FF7871E6FDC39FEE645C
:10BFD00080F8748098400301C0EFEDFF900091CD90
:10BFE000E02FFFE433FE90009406E0F97C002FFF81
:10BFF000EC3EFE74552FF58274483EF58375930030
:10C00000E07870F6700301C0EF7870E6FDB40104CB
:10C0100008068089ED6402600301C0BC74562FF5E8
:10C020008274483EF583759300E06404600301C0A8
:10C03000BC7871E6FF900091CDE02FFFE433FEE97C
:10C040007C002FFDEC3EFC74572DF58274483CF5C6
:10C0500083759300E0FE74582DF58274483CF58397
:10C06000759300E0FDEDFF7860EEF608EFF69000C6
:10C070009400E0FCA3E0FDC39FEC9E5006AE04AF2D
:10C080000580077860E6FE08E6FF9000B562E0FBF9
:10C09000A3E0FAA3E02412F9E43AFAEE8FF01200DA
:10C0A00085799000B562E0FBA3E0FAA3E02414F9DF
:10C0B000E43AFAEE8FF01200857980337871E6FF6A
:10C0C000900091CDE02FFFE433FE90009406E07CD9
:10C0D000002FFFEC3EFE74562FF58274483EF58328
:10C0E000759300E0FF60087871EF26F601BF9D9020
:10C0F00000B562E0FBA3E0FAA3E02419F9E43AFA00
:10C1000074031200844990004828E0FBA3E0FAA3DE
:10C11000E02418F9E43AFA120083F8FF9000B562BF
:10C12000E0FBA3E0FAA3E02408F9E43AFAEF1200F6
:10C13000844990004828E0FBA3E0FAA3E02419F921
:10C14000E43AFA120083F8FF9000B562E0FBA3E046
:10C15000FAA3E02409F9E43AFAEF120084499000C6
:10C160004828E0FBA3E0FAA3E0241AF9E43AFA1223
:10C170000083F8FF9000B562E0FBA3E0FAA3E0249F
:10C180000AF9E43AFAEF1200844990004828E0FBEB
:10C19000A3E0FAA3E0241BF9E43AFA120083F8FFC3
:10C1A0009000B562E0FBA3E0FAA3E0240BF9E43AC7
:10C1B000FAEF120084497F017E0012038B38900051
:10C1C0004828E0FBA3E0FAA3E02422F9E43AFA12BB
:10C1D0000083F8FF9000B562E0FBA3E0FAA3E0243F
:10C1E0001CF9E43AFAEF1200844990004828E0FB79
:10C1F000A3E0FAA3E02423F9E43AFA120083F8FF5B
:10C200009000B562E0FBA3E0FAA3E0241DF9E43A54
:10C21000FAEF12008449786276429000B562E0FB42
:10C22000A3E0FAA3E02410F9E43AFAE4F5F01200EE
:10C230008579E47874F608F67872F608F601C48811
:10C24000786276201201B18601AFAF90004828E0F5
:10C25000FBA3E0FAA3E02421F9E43AFA120083F800
:10C2600020E00301C2E57875E62401FF18E436FEFC
:10C2700012038B3878627610D37875E6940018E64E
:10C28000940040067862E64402F61201B1869000FE
:10C29000482BE0FEA3E0AA06F97B019000B562EB13
:10C2A000F0A3EAF0A3E9F02410F9E43AFAE475F017
:10C2B00001120085799000B562E0FBA3E0FAA3E0EB
:10C2C0002419F9E43AFA7408120084499000B5621E
:10C2D000E0FBA3E0FAA3E0241BF9E43AFAE412003D
:10C2E000844901C52E90004828E0FBA3E0FAA3E0B2
:10C2F0002421F9E43AFA120083F830E576900048F8
:10C3000028A3E0FAA3E02426F9E43AFA120083F81D
