:020000040000FA
:04003B00020030008F
:0D300000C0E0439A80E59A20E0FBD0E0326A
:10602000029EEA0202E8BEE4FFFE12007DC1600C9F
:106030000FEF70010E09E970F10A80EE2249444C1D
:106040004500220202E5B82D252E346600252E34A7
:106050006600220202E45B4755445042435F496EAA
:10606000697428292E2E2E0A0D00220202D46143C3
:106070008F02220202E11141C4DF0041C4E000416D
:10608000C4DD0041C4DE0041C4E10041C4D8004287
:10609000C47D000042C478000041C47F0041C84E66
:1060A0000042C77B000042C708000141C7071941F1
:1060B000C7060142502D000042503C000042503EB5
:1060C000000041503100425029000042503400008D
:1060D0004156A000425036000042502F000042506E
:1060E00040000042504300004150320042502B001B
:1060F0000042503800004156A10042503A00004191
:1061000050420841569E004156A300E00101F7802D
:106110000FE00101F57700E00101F78100E00101E6
:10612000F5790041569F00415033004156A200E0EE
:106130000101F57800E0FF01F679000000000000A1
:10614000000000000000000000000000000000004F
:10615000000000000000000000000000000000003F
:10616000000000000000000000000000000000002F
:10617000000000000000000000000000000000001F
:10618000000000000000000000000000000000000F
:1061900000000000000000000000000000000000FF
:1061A00000000000000000000000000000000000EF
:1061B00000000000000000000000000000000000DF
:1061C00000000000000000000000000000000000CF
:1061D00000000000000000000000000000000000BF
:1061E00000000000000000000000000000000000AF
:1061F000000000000000000000000000000000009F
:10620000000000000000000000000000000000008E
:10621000000000000000000000000000000000007E
:10622000000000000000000000000000000000006E
:106230000000000000000000005E00026D6F646559
:106240006C3A3130302066773A36392E3131206859
:10625000773A323600000000000041A6340041A722
:10626000640041A7610041A6330044A76700000015
:1062700000E00101F8510041A6320041A76600018B
:1062800040FFE0B401F79D74696D652E77696E6417
:106290006F77732E636F6D00000000000000000038
:1062A000000000000074696D652E73746474696D7C
:1062B000652E676F762E74770000000000000000E6
:1062C000000000636C6F636B2E73746474696D659A
:1062D0002E676F762E74772000000000000000000B
:1062E0000077617463682E73746474696D652E67DA
:1062F0006F762E7477000000000000000000007030
:106300006F6F6C2E6E74702E6F726700000000004D
:10631000000000000000000000000000000000007D
:10632000000000000000000000000000000000006D
:106330000000000000000000000000E01801F785E8
:106340003B7CC454DC829E48DA4B04827AE2C0046F
:106350003B7CC45500000000E00501F852543100B8
:106360000000E00201F857453241A6210041A47225
:106370000042A762000148A619FE06015B00192C25
:106380002041A76C0041AC170041A9F70041AC18AF
:106390000041A9DE0041AC160041AA7000438C21E7
:1063A000018C26438B0E018C26438AFF018C2646E6
:1063B000C05000123456789AE00201EF140000E059
:1063C0000201EF160000E00101EF1000E00201EE13
:1063D000F90000E00201EEFF0000E00201EEFD0026
:1063E00000E00201EF0B0000E00101F31900E00101
:1063F00001EEFB00E00101EF1800E00101EEF30007
:10640000E00101EEF800E00201EF120000E00401FB
:10641000EEF400000000E00401EF0200000000E0E4
:106420000101EEFC00E00201EF090000E00101EFD4
:106430000F00E00101EF0E00E00101EF0800E001B4
:1064400001EF0100E00101EF0700E00101EF0D00A5
:10645000E00101EEF200E00101EF0600E00101EED3
:10646000F100E00101EF111941A9D00042A9A000FB
:106470000041A9A20044A9D10000000046A9CA0019
:10648000000000000041C32B0041C33A0041C33269
:106490000041C3350042C333000042C32C00004416
:1064A000C32E0000000544C3360000000041BD02B9
:1064B000004BBD484D5352415653352E3130004D9F
:1064C000BD574D535241562D302D41534958006010
:1064D00021BD27757365726E616D65000000000057
:1064E00000000000000000000000000000000000AC
:1064F000000000006021BCBB70617373776F726431
:10650000000000000000000000000000000000008B
:1065100000000000000000000041BD1600419D8AFF
:106520000042A12004D26028A0F865000E000000FF
:10653000000000000000000000000000000000005B
:10654000000000000000000000000000000000004B
:106550000000419D890141A1220048B67241534982
:10656000585849534141BEE50041BEE80041BF7261
:106570000042BEE6000042BF6F000041BF71004311
:10658000BEEC00000043BEE900000041BEE4004252
:10659000C0B5005042C0B707D0418AB30042C827F7
:1065A0006000E5DC01DF5E0000000000000000008C
:1065B00000000000000000000000000000000000DB
:1065C00000000000000000000000000000000000CB
:1065D00000000000000000000000000000000000BB
:1065E00000000000000000000000000000000000AB
:106B800000000041AF850041AF840041AF88004163
:106B9000AF860042AE58000042AE56000041AE52F1
:106BA0000041AF890041AF870042AF2C000041AFE8
:106BB000830041AE530058AF2E00000000000000DB
:106BC00000000000000000000000000000000000C5
:106BD0000042AF5F000042AF5D000042AF810000A5
:106BE00042AF2A000042AE5400006020AF610000B6
:106BF0000001000100000001000000000001000190
:106C00000000000000010000000100010000610020
:106C1000AF8A005EBCE2613FDD83C29C7E20A3FDA3
:106C20001F419DC3217FFCA2401E5F01E3BD3E606A
:106C300082DC237D9FC1421CFEA0E1BF5D0380DE9C
:106C40003C62BEE0025CDF81633D7C22C09E1D434E
:106C5000A1FF4618FAA427799BC584DA3866E5BBFC
:106C60005907DB856739BAE406581947A5FB78262A
:106C7000C49A653BD987045AB8E6A7F91B45C6985C
:106C80007A24F8A6441A99C7257B3A6486D85B050E
:106C9000E7B98CD2306EEDB3510F4E10F2AC2F71BC
:106CA00093CD114FADF3702ECC92D38D6F31B2ECEA
:106CB0000E50AFF1134DCE90722C6D33D18F0C521C
:106CC000B0EE326C8ED0530DEFB1F0AE4C1291CFCE
:106CD0002D73CA947628ABF517490856B4EA69377C
:106CE000D58B5709EBB536688AD495CB2977F4AAAA
:106CF0004816E9B7550B88D6346A2B7597C94A14DC
:106D0000F6A8742AC896154BA9F7B6E80A54D7898D
:106D10006B356045C0FF841787841794000000001E
:106D200000008417A18417AE8417BB8417C884178A
:106D3000D58417E28417EF8417FC84180984181689
:106D400084182384183084183D84184A0000008475
:106D5000185784186484187184187E4199B45D4171
:106D60009A2D5C4199B56A607699B6485454502F73
:106D7000312E3020323030204F4B0D0A4361636892
:106D8000652D636F6E74726F6C3A206E6F2D636148
:106D90006368650D0A436F6E6E656374696F6E3A62
:106DA000204B6565702D416C6976650D0A436F6EE9
:106DB00074656E742D4C656E6774683A20787878C7
:106DC00078780D0A436F6E74656E742D74797065F2
:106DD0003A20696D6167652F6A7065670D0A0D0A53
:106DE00000419A2C75419C7752499924206368652B
:106DF000636B6564004A992D2073656C65637465E7
:106E000064004CBF731F1C1F1E1F1E1F1F1E1F1E52
:106E10001F4CBF871F1D1F1E1F1E1F1F1E1F1E1F53
:106E200041BF960043B81C00000042B81A0000425F
:106E3000B7E3000044B7E60000000041B7E50041B9
:106E4000B8580041B8570041B81F0041B82300416D
:106E5000B67A004200200000E10001D63E000000AA
:106E60000000000000000000000000000000000022
:106E70000000000000000000000000000000000012
:106E80000000000000000000000000000000000002
:106E900000000000000000000000000000000000F2
:106EA00000000000000000000000000000000000E2
:106EB00000000000000000000000000000000000D2
:106EC00000000000000000000000000000000000C2
:106ED00000000000000000000000000000000000B2
:106EE00000000000000000000000000000000000A2
:106EF0000000000000000000000000000000000092
:106F00000000000000000000000000000000000081
:106F10000000000000000000000000000000000071
:106F20000000000000000000000000000000000061
:106F30000000000000000000000000000000000051
:106F40000000000000000000000000000000000041
:106F50000000000000000000000000000001760AB0
:106F6000E00201DA800000E00301DF3B000000E006
:106F70000301D75E000000E00301D761000000E0DC
:106F80002001D765000000000000000000000000A4
:106F900000000000000000000000000000000000F1
:106FA00000000000E02001D61E00000000000000EC
:106FB00000000000000000000000000000000000D1
:106FC000000000000000000000E02001D73E0000AB
:106FD00000000000000000000000000000000000B1
:106FE0000000000000000000000000000000E020A1
:106FF00001DF3E0000000000000000000000000073
:107000000000000000000000000000000000000080
:10701000000000E00801DA8300000000000000002A
:10702000012300C130012100012200012000E00104
:1070300001DA7F0052BDC01201100102000008C039
:1070400016E1050001010203016043BDD2090243BC
:1070500000020100C019090400000102020100053C
:107060002400100104240202052406000105240165
:1070700003010705810308001409040100020A0046
:1070800000000705020240000007058202400000E0
:1070900044BDBC04030904602CBD902C0377007729
:1070A0000077002E00740065006D0063006F0063C0
:1070B000006F006E00740072006F006C0073002E91
:1070C0000063006F006D006026BE1526034E00654C
:1070D00000740077006F0072006B00200043006FA7
:1070E000006E00740072006F006C006C006500722E
:1070F0000056BE3B160332003000310032002D0036
:10710000300035002D0031003100C138C1B5E0013B
:1071100001F44805E00201F4460000E00201F575C3
:107120000000E02001E53B0000000000000000003E
:10713000000000000000000000000000000000004F
:1071400000000000000000E02001E55B00000000FE
:10715000000000000000000000000000000000002F
:1071600000000000000000000000000041C6160002
:1071700041A2460041A46800E12C01EC0D00000092
:1071800000000000000000000000000000000000FF
:1071900000000000000000000000000000000000EF
:1071A00000000000000000000000000000000000DF
:1071B00000000000000000000000000000000000CF
:1071C00000000000000000000000000000000000BF
:1071D00000000000000000000000000000000000AF
:1071E000000000000000000000000000000000009F
:1071F000000000000000000000000000000000008F
:10720000000000000000000000000000000000007E
:10721000000000000000000000000000000000006E
:10722000000000000000000000000000000000005E
:10723000000000000000000000000000000000004E
:10724000000000000000000000000000000000003E
:10725000000000000000000000000000000000002E
:10726000000000000000000000000000000000001E
:10727000000000000000000000000000000000000E
:1072800000000000000000000000000000000000FE
:1072900000000000000000000000000000000000EE
:1072A00000000000000000000041A3470046A13F8D
:1072B000000000000000E19001ED39000100010034
:1072C000010000000C004500090064001A00FF00E6
:1072D000FF0014000000FF000E00FF000100180076
:1072E0000200010001000100030001000100010093
:1072F0000100010001000100010001000100010086
:107300000100010001000100010001000100010075
:107310000100010001000100010001000100010065
:107320000100010001000100010001000100010055
:107330000100010001000100010001000100010045
:107340000100010001000100010001000100010035
:107350000100010001000100010001000100010025
:107360000100010001000100010001000100010015
:107370000000010001000000010001000100010007
:107380000100040000000100FF00FF00FF00FF00FB
:107390000000C000A80000000300FF00FF00FF0085
:1073A0000000C000A80000000400FF177100FF00EB
:1073B000FF00FF00FFFFFFFFFFFFFF00FFFFFF00D9
:1073C000FF00FF00FF00FF000000000000000000C1
:1073D00000000000000000000000010001000100AA
:1073E0000100010001000100010001000100010095
:1073F0000100010001000100010001000100010085
:107400000100010001000100010001000100010074
:107410000100010001000100010001000100000065
:107420004100370015000F003D0081002A002C00AC
:107430000100010001000100010001000100010044
:10744000010001000100010001000044A46B0000E4
:1074500000006100A14600C1814001C0804101C01F
:10746000804100C1814001C0804100C1814000C114
:10747000814001C0804101C0804100C1814000C104
:10748000814001C0804100C1814001C0804101C0F4
:10749000804100C1814001C0804100C1814000C1E4
:1074A000814001C0804100C1814001C0804101C0D4
:1074B000804100C1814000C1814001C0804101C0C4
:1074C000804100C1814001C0804100C1814000C1B4
:1074D000814001C0804101C0804100C1814000C1A4
:1074E000814001C0804100C1814001C0804101C094
:1074F000804100C1814000C1814001C0804101C084
:10750000804100C1814001C0804100C1814000C173
:10751000814001C0804100C1814001C0804101C063
:10752000804100C1814001C0804100C1814000C153
:10753000814001C0804101C0804100C1814000C143
:10754000814001C0804100C1814001C0804101C033
:10755000804100C181406100A24700C0C101C30356
:1075600002C2C60607C705C5C404CC0C0DCD0FCF9B
:10757000CE0E0ACACB0BC90908C8D81819D91BDB0B
:10758000DA1A1EDEDF1FDD1D1CDC14D4D515D7175B
:1075900016D6D21213D311D1D010F03031F133F30B
:1075A000F23236F6F737F53534F43CFCFD3DFF3F5B
:1075B0003EFEFA3A3BFB39F9F83828E8E929EB2B8B
:1075C0002AEAEE2E2FEF2DEDEC2CE42425E527E71B
:1075D000E62622E2E323E12120E0A06061A163A38B
:1075E000A26266A6A767A56564A46CACAD6DAF6F1B
:1075F0006EAEAA6A6BAB69A9A86878B8B979BB7B8B
:107600007ABABE7E7FBF7DBDBC7CB47475B577B7DA
:10761000B67672B2B373B17170B05090915193530A
:10762000529296565797559594549C5C5D9D5F9FDA
:107630009E5E5A9A9B5B99595898884849894B8B0A
:107640008A4A4E8E8F4F8D4D4C8C4484854587479A
:107650004686824243834181804041B99C0054B9AF
:107660009D0000000000000000000000000000007D
:1076700000000000004FB85F2B3836313339313706
:107680003930353639330041B99B056041ADD441BD
:1076900042434445464748494A4B4C4D4E4F505152
:1076A00052535455565758595A6162636465666718
:1076B00068696A6B6C6D6E6F7071727374757677D2
:1076C00078797A303132333435363738392B2F00E8
:1076D0006020AC7900000000000000000000000005
:1076E000000000000000000000000000000000009A
:1076F000000000006020AC19000000000000000045
:107700000000000000000000000000000000000079
:1077100000000000000000006020AE190000000022
:107720000000000000000000000000000000000059
:10773000000000000000000000000000E00101F86F
:107740007C01E00101F88101E02001F8A274656D7F
:10775000636F636F6E74726F6C732E64796E646E98
:10776000732E6F72670000000000000000E020012F
:10777000F85C74656D636F636F6E74726F6C730029
:1077800000000000000000000000000000000000F9
:107790000000E02001F88274726176656C000000E0
:1077A00000000000000000000000000000000000D9
:1077B00000000000000000E00101F85A0100EC4D5B
:1077C0006011E8497018ED33EC3304600DE4FCFF00
:1077D000FEFD22E933E8330470F802007A1E12003D
:1077E00079E958046009E4CC2481500728500B0241
:1077F000007A2828400402007A25C0E0EB4A70464F
:10780000B98007D0E0FB02007A14EF4E701DBD80F6
:1078100008EBFFEAFEE9FD80EAE98DF0A4FEE5F061
:10782000020078ADE9CDF9EAFEEBFFEF89F0A4FCA8
:10783000E5F0CE89F0A42EFFE435F0CD89F0A42D3B
:10784000FEE435F08067EF4E7005BD80D780C2EF53
:107850008BF0A4ACF0EE8BF0A42CFCE435F0F8EF48
:107860008AF0A42CE5F038FCE433CB8DF0A42CFC9A
:10787000E5F03BF8EE8AF0A42CFCE5F038F8E433B0
:10788000CF89F0A42CFCE5F038CF3400CE89F0A4E9
:107890002FFFE5F03EFEE433C98DF0A42EFEE5F0A7
:1078A00039CD8AF0A42FFFE5F03EFEE43DFD33D054
:1078B000E0FB50080BBB001002007A28EC2CFCEF18
:1078C00033FFEE33FEED33FD02007A0002007A282A
:1078D000EC5D046005E85904700402007A1E120091
:1078E00079E9580460F4EC4860F0EC7004FDFEFFA8
:1078F00022C860D82481C8500AC398600250070289
:10790000007A259850C6F582E9294B4A7006AB8269
:1079100002007A1475F0007C1A7880C3EF9BEE9A0F
:10792000ED99400DC3EF9BFFEE9AFEED99FDE84205
:10793000F0DC24ACF0D0E0FFD0E0FED0E0FDAB8284
:1079400020E7101BEB60B8EC2CFCEF33FFEE33FEAE
:10795000ED33FD02007A00E803F830E705C0F0756A
:10796000F000EF2FFFEE33FEED33FD40B730E7C1FF
:1079700080A975F020800E75F010800575F0087DE7
:10798000007E007F003392D530D5041200807BEC5E
:10799000334010EF33FFEE33FEED33FDEC33FCD517
:1079A000F0ED22E5F0247EA2D513CC92E7CDCEFFF8
:1079B00022EDD2E7CD33EC3392D524814006E4FFAB
:1079C000FEFDFC22FCE4CFCECDCC24E0501174FFB0
:1079D00080EDC3CC13CCCD13CDCE13CECF13CF04BB
:1079E00070F030D5DE0200807BE9D2E7C933E8339E
:1079F000F892D5EDD2E7CD33EC33FC5002B2D5226C
:107A0000EC30E7100FBF000C0EBE00080DBD0004E7
:107A10000BEB6014A2D5EB13FCED92E7FD2274FF93
:107A2000FCFDFEFF22E480F8A2D574FF13FC7D80EC
:107A3000E480EFF920E73624F950037907E4F424D1
:107A400002FBE582158270021583DBF6E024FB5011
:107A50001BE96014E4F0E582158270021583E004EE
:107A6000F0B40A08E4F0D9EE7401F00A22C2D5227B
:107A7000ED33EC3392D5FA602AB4FF33EDC2E77BE5
:107A80008160067A7A7995E4227A7A799E20D50403
:107A90007A7A7999224E614E002B494E46002D4943
:107AA0004E4600E47A08F0A3DAFC7B00740722C09B
:107AB00093C083C082ECC0E0EDC0E0EEC0E0EFC058
:107AC000E0EA75F010A4CAABF075F04DA42BFBE40E
:107AD00035F0FCEA2410FAEB34C5FBEC34D9FCEDAC
:107AE000C2E7FF75F056A4F42411C5F0F434C58F35
:107AF000F0A42AE5F03BE43CF020E71612007CAD50
:107B0000D0E0FFD0E0FED0E0FDD0E0FC120078D065
:107B10008016F40412007CADD0E0FFD0E0FED0E08F
:107B2000FDD0E0FC120077BED082D083D093E0FA83
:107B3000EDD2E7CD33EC332482FBE4C3CF33CFCE99
:107B400033CECD33CD33DBF37B0775F00A8460048D
:107B5000F0A31B0AE5F0F0A38FF0740AA4FFACF0C9
:107B60008EF0740AA42CFEACF050010C8DF0740A57
:107B7000A42CFDE435F0F0A3DBDE74072202007ACA
:107B80001EE86480F8E933E83360110460EFED33F8
:107B9000EC337009E8FCE9FDEAFEEBFF220460DD4E
:107BA000D3EB9FEA9EE99DE8C2E78CF0C2F795F01F
:107BB000400CE8CCF8E9CDF9EACEFAEBCFFB1200A5
:107BC00079E985D0F05804700320D5B1E804700835
:107BD0005002B2D502007A2892D5EC0460F6E4CCCB
:107BE000C0E0C398F8603C94186009400ED0E0FBF8
:107BF00002007A00E4FBFAC9FC8028E830E406E4DD
:107C0000C9FBE4CAFCE830E305E4C9CACBFCE8548C
:107C1000076010F8C3E913F9EA13FAEB13FBEC134E
:107C2000FCD8F130F531C3E49CFCEF9BFFEE9AFEEB
:107C3000ED99FDD0E0FBEF4E4D4C701322DB0402BA
:107C4000007A25EC2CFCEF33FFEE33FEED33FDED37
:107C500030E7EA02007A00EF2BFFEE3AFEED39FD45
:107C6000D0E0FB50140BBB000402007A28ED13FD9A
:107C7000EE13FEEF13FFEC13FC02007A003F8000CE
:107C8000004120000042C80000447A0000461C4029
:107C90000047C35000497424004B1896804CBEBC6A
:107CA000205A0E1BCA6753C21C749DC5AEFB6006EA
:107CB00054076020232312007CE0EB5438600C1240
:107CC000007CCB12007CDB120077BEECF8EDF9EE05
:107CD000FAEFCB22EB12007CDB80F0543803241C3B
:107CE00090007C7DFE93FC0EEE93FD0EEE930ECE87
:107CF00093FF22EB7008E709F608DFFA801B898200
:107D00008A831410E70AF593E0A3F608DFFA8009E6
:107D1000F593E493A3F608DFF9ECFAA9F0EDFB2262
:107D200088F0EF60010E4E60F088F0ED60C5141031
:107D3000E7E7CB700E88828C838B93E709F0A3DF93
:107D4000FA80D61410E72A89828A83F593ECFAE048
:107D5000A3C8C582C8CCC583CCCBC593CBF0A3C880
:107D6000C582C8CCC583CCCBC593CBDFE2DEE08037
:107D7000AA89828A83F593ECFAE493A3C8C582C8E2
:107D8000CCC583CCCBC593CBF0A3C8C582C8CCC52A
:107D900083CCCBC593CBDFE1DEDF02007D1BC2D5F8
:107DA00030F707B2D563F0FF05F030E70DB2D5F438
:107DB00004008463F0FF05F080018430D502F404F0
:107DC00022EB7002E72289828A831410E704F5937C
:107DD000E022F593E49322F8EB7006E7C828F3E875
:107DE0002289828A831410E708F593E0C828F0E816
:107DF00022F593E49322BB000327F722F8EB898254
:107E00008A831410E706F593E028F022F593E493B3
:107E10002822BB0002F722BB8000500989828A8396
:107E20008B931593F022EF8DF0A4A8F0CF8CF0A4E3
:107E300028CE8DF0A42EFE22BC000BBE0029EF8DB3
:107E4000F084FFADF022E4CCF875F008EF2FFFEEE0
:107E500033FEEC33FCEE9DEC984005FCEE9DFE0FEE
:107E6000D5F0E9E4CEFD22EDF8F5F0EE008420D265
:107E70001CFEADF075F008EF2FFFED33FD400798C5
:107E80005006D5F0F222C398FD0FD5F0EA22C2D5F4
:107E9000EC30E709B2D5E4C39DFDE49CFCEE30E78D
:107EA00016B2D5E4C39FFFE49EFE12007E38C3E401
:107EB0009DFDE49CFC800412007E3830D507C3E4AD
:107EC0009FFFE49EFE22C5F0F8A3E028F0C5F0F87D
:107ED000E582158270021583E038F022A3F8E0C530
:107EE000F025F0F0E582158270021583E0C838F0C5
:107EF000E822EB7007E7F5F009E7192289828A8307
:107F00001410E708F593E0F5F0A3E022F593E4936D
:107F1000F5F074019322BB000B09C5F027F7C5F0FB
:107F20001937F722F8EB89828A831410E707F59353
:107F3000E802007EC6F59374019325F0F5F0E49312
:107F40003822BB0006F709A7F01922BB8000500DAC
:107F500089828A838B931593F0E5F0A3F022E88F52
:107F6000F0A4CC8BF0A42CFCE98EF0A42CFC8AF0BD
:107F7000EDA42CFCEA8EF0A4CDA8F08BF0A42DCCBF
:107F80003825F0FDE98FF0A42CCD35F0FCEB8EF018
:107F9000A4FEA9F0EB8FF0A4CFC5F02ECD39FEE4FE
:107FA0003CFCEAA42DCE35F0FDE43CFC2275F00843
:107FB000758200EF2FFFEE33FECD33CDCC33CCC531
:107FC0008233C5829BED9AEC99E58298400CF5824C
:107FD000EE9BFEED9AFDEC99FC0FD5F0D6E4CEFBBE
:107FE000E4CDFAE4CCF9A88222B800C1B90059BAAC
:107FF000002DEC8BF084CFCECDFCE5F0CBF97818DA
:10800000EF2FFFEE33FEED33FDEC33FCEB33FB10D3
:10801000D703994004EB99FB0FD8E5E4F9FA2278ED
:1080200018EF2FFFEE33FEED33FDEC33FCC933C9FF
:1080300010D7059BE99A4007EC9BFCE99AF90FD809
:10804000E0E4C9FAE4CCFB2275F010EF2FFFEE3329
:10805000FEED33FDCC33CCC833C810D7079BEC9A68
:10806000E899400AED9BFDEC9AFCE899F80FD5F0F1
:10807000DAE4CDFBE4CCFAE4C8F922C3E49FFFE4E0
:108080009EFEE49DFDE49CFC22EB9FF5F0EA9E42FF
:10809000F0E99D42F0EC6480C864809845F022EBE2
:1080A0009FF5F0EA9E42F0E99D42F0E89C45F022FF
:1080B000E8600FECC313FCED13FDEE13FEEF13FFAE
:1080C000D8F122E8600FEFC333FFEE33FEED33FD4E
:1080D000EC33FCD8F122EB7006E9F80200852F8919
:1080E000828A831410E706F5930200853BF593021C
:1080F00000810EBB0006E9F802008570BB800050CD
:108100000C89828A838B9315930200817022E493F9
:10811000FC740193FD740293FE740393FF22EB70D1
:1081200006E9F80200854789828A831410E706F57C
:108130009302008554F593020085607401FF339526
:10814000E0FEFDFCA3A3A3E0CF2FF0E58215827033
:10815000021583E0CE3EF0E582158270021583E0C1
:10816000CD3DF0E582158270021583E0CC3CF02213
:10817000ECF0A3EDF0A3EEF0A3EFF022A42582F53E
:1081800082E5F03583F58322F8E0FBA3A3E0F9252F
:10819000F0F0E582158270021583E0FA38F022EBE8
:1081A000F0A3EAF0A3E9F022EB7006E9F8020085FB
:1081B0007C89828A831410E706F5930200858EF588
:1081C0009302008597BB001CD093D0F0D0E0F8D08C
:1081D000E0C9FBD0E0FAD0E0CBC8C0E0C0F0C0936B
:1081E00002008585BB80005022D093D0F0D0E0F80B
:1081F000D0E0C9F582D0E0CAF583D0E0CB14C8C086
:10820000E0C0F0C09388930200819FD093D083D0C8
:1082100082D0E0D0E0D0E0E473D093D083D082F875
:10822000E4937012740193700DA3A393F8740193F7
:10823000F5828883E4737402936860EFA3A3A3803C
:10824000DFD093D083D082F8E493701274019370DE
:108250000DA3A393F8740193F5828883E4737402E9
:1082600093B5F0067403936860E9A3A3A3A380D831
:10827000D093D083D082E4937012740193700DA3D5
:10828000A393F8740193F5828883E4737402936C6A
:1082900070127403936D700C7404936E7006740501
:1082A000936F60DDA3A3A3A3A3A380CA8B938A8348
:1082B0008982159353937FE473759300E536258285
:1082C000F582E5353583F583B53504858236221090
:1082D000AF06858236F53522858236F535D2AF2256
:1082E000759300E5362582F582E5353583F58322E1
:1082F000EC8EF0A4CCC5F0CCCDF8EFA4CEC5F02D1B
:10830000FDE43CFCE8A42EC8C5F03DFDE43CFCEFD8
:10831000A4FFE5F028FEE43DFDE43CFC22EB700800
:10832000E709F60870FA801B89828A831410E70A2D
:10833000F593E0A3F60870FA8009F593E493A3F6A9
:108340000870F9ECFAA9F0EDFB2288F0ED60CE148C
:1083500010E7F0CB700E88828C83F593E709F0A3C9
:1083600070FA80DF1410E72889828A83F593ECFA8B
:10837000E0A3C8C582C8CCC583CCCBC593CBF0A342
:10838000C8C582C8CCC583CCCBC593CB70E280B5C1
:1083900089828A83F593ECFAE493A3C8C582C8CC9A
:1083A000C583CCCBC593CBF0A3C8C582C8CCC5834D
:1083B000CCCBC593CB70E1808CEB700C87F009E6D9
:1083C00008B5F019DFF6801589828A831410E71149
:1083D000F593E0F5F0A3E608B5F002DFF5020084BE
:1083E0006AF593E493F5F0A3E608B5F07DDFF48039
:1083F00079CB701388828C838B9387F009E493A3E5
:10840000B5F067DFF580631410E73089828A83F561
:1084100093ECFAE0F5F0A3C8C582C8CCC583CCCBF9
:10842000C593CBE493A3C8C582C8CCC583CCCBC5C8
:1084300093CBB5F035DFDCDEDA802F89828A83F5D5
:1084400093ECFAE493F5F0A3C8C582C8CCC583CCFD
:10845000CBC593CBE493A3C8C582C8CCC583CCCB92
:10846000C593CBB5F004DFDBDED97FFFB5F0020F9B
:108470002240027F0122020083B9020083F188F0CA
:10848000EF60010E4E60EEED60EC1410E7ECCB7087
:108490001288828C83F59387F009E0A3B5F0CBDFD7
:1084A000F680C71410E72F89828A83F593ECFAE0EF
:1084B000F5F0A3C8C582C8CCC583CCCBC593CBE0AF
:1084C000A3C8C582C8CCC583CCCBC593CBB5F09A25
:1084D000DFDDDEDB809489828A83F593ECFAE49316
:1084E000F5F0A3C8C582C8CCC583CCCBC593CBE07F
:1084F000A3C8C582C8CCC583CCCBC593CBB5F0048B
:10850000DFDCDEDA0200846AEF4E6022EF60010EEB
:10851000EDBB0007F709DFFCA9F022BB8000500E7D
:1085200089828A838B931593F0A3DFFCDEFA22E61F
:10853000FC08E6FD08E6FE08E6FF22E0FCA3E0FDFD
:10854000A3E0FEA3E0FF22E6FB08E6F908E6FA084E
:10855000E6CBF822E0F8A3E0F9A3E0FAA3E0FB22DF
:10856000E493F8740193F9740293FA740393FB2271
:10857000ECF608EDF608EEF608EFF622E6FB08E664
:10858000FA08E6F922EBF608EAF608E9F622E0FB3B
:10859000A3E0FAA3E0F922E493FB740193FA7402D6
:1085A00093F922E5282480F582E434C1F58375939C
:1085B00000E00528229000C17D3027049000C18092
:1085C000E475F0011200818802007DC12020E57F62
:1085D0002ED2208018EF540F2490D43440D4FF3092
:1085E000240BEF24BFB41A0050032461FFE5296077
:1085F000021529052CE52C7002052B30271190005F
:10860000C17DE475F00112008188EF02007E120244
:10861000031A907403D2278003E4C227F528900040
:10862000C17D1200819FE4F529F52BF52CE5296029
:10863000087F20120085ED80F4752AFFC221C22038
:10864000C222C223C225C226C228120085B5FF70ED
:108650000E3027067F00120085FEAF2CAE2B22B411
:108660002563C2D5C224120085B5FF24D0B40A0008
:10867000501A75F00A782930D50508B6FF0106C6EC
:10868000A426F620D5047002D22380D824CFB41AB1
:1086900000EF5004C2E5D2240200893BD22180C4FD
:1086A000D22080BED22280BAD2D580B8D22580B264
:1086B0007F20120085ED2022077401B5290040F0CB
:1086C000120085A3FF120085ED0200862DD228D26C
:1086D00026808F120085A3FB120085A3FA12008565
:1086E000A3F94A4B700679487A8A7B8120223DE5BE
:1086F0002960397E00E9C0E02EF9EAC0E03400FAD2
:1087000012007DC1F9D0E0FAD0E0C960060EEE6536
:108710002A70E2C2D5EBC0E0EAC0E0E9C0E0EE12A8
:108720000089A3D0E0F9D0E0FAD0E0FB12007DC1CF
:10873000FF6096EBC0E0EAC0E0E9C0E0120085ED22
:10874000D0E02401F9D0E03400FAD0E0FBE52A04BF
:1087500060DAD52AD7020086C9D222808F1200891A
:108760007F60F6E52A70010412007A33A92A600EB0
:10877000E52A600A14F52A12008A32EF60F2EA3024
:10878000E702F404C399400402008812EAF4252A9F
:108790000430E701E404F52A800F1200897F60B9F4
:1087A000EA052A252A12007A33EA9000C1ACF0309B
:1087B000E701E4252A04D52A0420250114120089A2
:1087C000A3E4C0E012008A329000C1ACE060142043
:1087D000E70814F0120085D5802604F0D0E014C01C
:1087E000E07F00120085D5E52A6008120085CC15CF
:1087F0002A800D302504120085CCD0E00200862DA1
:10880000D0E00480BD1200897F6093E52A04120045
:108810007A339000C1ACEAF0E52A20250260010419
:108820002404120089A374FF04C0E012008A3212EB
:108830000085D5E52A2025026004120085CCD0E011
:10884000B52AE57F45120085DF9000C1ACE07F2BA3
:1088500030E7047F2DF404C0E0120085EDD0E07510
:10886000F00A84C0F0120085D6D0E0120085D6024E
:1088700000862D791080027908C226C2288008D28D
:10888000D5790A8004790AC2D5E52A047002F52A4E
:10889000E4FAFDFEFF120085A3FC7B0820211612DE
:1088A0000085A3FD7B1030200C120085A3FE120072
:1088B00085A3FF7B20EC3382D592D55013C3E430DF
:1088C00020069FFFE49EFEE42021039DFDE49CFC26
:1088D000E4CBF8C221EC700CCFCECDCCE824F8F874
:1088E00070F38017C3EF33FFEE33FEED33FDEC334F
:1088F000FCEB33FB994002FB0FD8E9EB302105F884
:10890000D0E0C448B221C0E00AEC4D4E4F78207B45
:108910000070C2EAB52A0040BCC0E0120089A5D0B0
:10892000F0D0E0202104C4C0E0C4B221C0F01200A5
:1089300085D6D0F0D5F0EA0200862D120082198685
:10894000D35388735886A04C869C4288774F887F83
:1089500044887F4986B643888555879A4688054569
:10896000875D478A655086A42D86A82E86CF2B86E4
:10897000AC2386CD208A512A866248000086C5E550
:108980002AB4FF03752A06120085A3FC120085A3F2
:10899000FD120085A3FE120085A3FF9000C1A50271
:1089A000007A70790AA2D5202314302509B9100263
:1089B0000404B9080104A2D5202602500104202293
:1089C0006D9222B529005036C0E07F2030231A7FF7
:1089D00030A222722672255010120089FEC222C2D5
:1089E00026C225C2287F308010302503E9C0E0125E
:1089F0000085ED302503D0E0F9D0E0B529CA302557
:108A0000197F30B9100D120085ED7F583024077F93
:108A1000788003B90804120085ED3022067F2D020C
:108A20000085ED7F202028F77F2B2026F22292223E
:108A300080CC7F00B40700500E24A5F582E434C139
:108A4000F583759300E0FF22286E756C6C2900D2C7
:108A500021120085A33021F7C221782930D50108E1
:108A6000F602008662120085A37F4960087F4310EA
:108A7000E7027F5814C0E0EF120085DE743A12005E
:108A800085DED0E0600DC0E0C4120085D6D0E012D3
:108A90000085D6D223752904020088735265626F5F
:108AA0006F742E2E2E00303132333435363738394C
:108AB0000000000000000000000000000000F800BE
:108AC0000000000033000000000806080600000057
:108AD000000000004040F840F840043F053F050416
:108AE0007088FC0830001820FF211E00F09860E01C
:108AF000380000310E1F330C00F0887000001E217A
:108B000026192720100E00000000000000000000C1
:108B1000000000F00C020000000F3040000618E0DA
:108B200000000060180700004080F0804000020153
:108B30000F0102000000F000000001011F01010010
:108B40000000000000008070000000000000000035
:108B500000000101010101000000000000000030E0
:108B600000000000000080700C00601C030000008A
:108B7000F0080818E0001F2020300F000010F80057
:108B8000000000203F20000070080808F000302C92
:108B900022213000300888887000182020311E0003
:108BA000008060F000000605243F2404F80888884F
:108BB0000800192120311F00E018889800000F31AB
:108BC00020201F00380808E8180000003F000000BF
:108BD0007088088870001E2121211E00F0080818E6
:108BE000E000013222310F000000C0000000000050
:108BF000300000000000800000000000E0000000E5
:108C00000000806010080001020C1020404040402D
:108C100040000404040404000008304080000020E8
:108C20001804020170080888700000003701000075
:108C3000F0108878F0001F2027340F00008078E0C3
:108C40000000203F02033E2008F888887000203F83
:108C500020201F00F010080818001F2020201000FE
:108C600008F80810E000203F20100F0008F888E8FE
:108C70001800203F2023300008F888E81800203F23
:108C800020030000E010080818000F1020221E0228
:108C900008F80000F808203F01013F200808F80804
:108CA000080020203F202000000808F80808C080A5
:108CB000807F000008F888601808203F20073C20CB
:108CC00008F808000000203F20202030F8F800F8C5
:108CD000F8003F003F003F0008F8E008F808203F98
:108CE00021063F00F0080818E0001F2020300F0088
:108CF00008F80808F000203F21010000F0080818DB
:108D0000E0000F342C707F0008F888887000203F46
:108D100020033C20708808081800302021221C0005
:108D20001808F808180000203F20000008F800008C
:108D3000F808001F20201F0008F80080F808000332
:108D40003C0F00007884F8C07800003F003F00002E
:108D5000087880780800203C033C200008F88078E0
:108D6000080000203F200000180888780800203CF8
:108D7000232030000000FE02020000007F4040007F
:108D80000038C00000000000011E6000000202FE6A
:108D900000000040407F00000004020400000000CA
:108DA00000000000000000000000808080808080C3
:108DB00000020400000000000000000000008080AD
:108DC0008000003D26223F2008F800800000001FA0
:108DD00021201F00000080808000001F2120210032
:108DE00000008088F800001F20203F2000008080C5
:108DF0000000001F222223000080F0888818002035
:108E00003F202000000080808080006B949493605D
:108E100008F800808000203F21003F20008098005B
:108E2000000000203F200000000080980000C0806B
:108E3000807F000008F800808080203F24063920D1
:108E40000808F800000020203F202000808080805B
:108E500000003F003F003F00808000808000203FF6
:108E600021003F20000080800000001F20201F0004
:108E700080808080000080FFA0201F000000808094
:108E80008000001F20A0FF80808000808000203FA5
:108E9000210001000000808080000023242439008C
:108EA0000080E080000000001F2020008080008003
:108EB0008000003F20203F2080800000808000074D
:108EC000381C0300804080008000033C033E030008
:108ED00080800080800020330E3B200080800000D6
:108EE00080808087780C03000080808080000030C4
:108EF0002C2330000000807E02000000003F400074
:108F00001C221CC040400000003F0202F8F0E0C0FC
:108F100080000F07030100001C221C80404000005D
:108F2000001F2020000000FF0000000000FF0000E4
:108F300025730D0A0025730D003E002B434D544947
:108F400000524543454956452041204D4553534124
:108F5000474521002B434D475200444953504C4153
:108F60005920544845204D45535341474520414ED3
:108F7000442044454C4554452049543A000D003B9B
:108F8000002B2B2B2B2B2B2B2B2B4D4F445F494492
:108F90003A002B2B2B2B2B2B2B2B2B5245475F498E
:108FA000443A002B2B2B2B2B2B2B2B2B5345545084
:108FB0004F494E543A000A002D2D2D2D2D2D2D2DCB
:108FC0004D4F445F6964006E6F2063720063616E91
:108FD000277420676574206D6F645F696400415475
:108FE0002B434D47443D310063616E206E6F74200A
:108FF00067657420656E64706F696E740063616E7E
:10900000206E6F7420676574207265675F69640005
:1090100023232323232323737472737472206661C2
:10902000696C6564212121002B434D47533A004F61
:109030004B004552524F52004552005374617274B6
:109040002067736D206D6F64756C6520696E69743F
:109050000041540053656E64202741542720636DFE
:1090600064004154453156310041542B4950523D22
:10907000300041542B43434C4B3F004154442A237E
:109080003036230041542B434D47463D3100415477
:1090900026570031353631383038313532350041D8
:1090A000545F434D47463D310041542B434D475398
:1090B0003D22257322000000000000000000000097
:1090C00000000000000000000000000000000000A0
:1090D0000000000000000000000000000000000090
:1090E0000000000000000000000000000000000080
:1090F0000000000000000000000000000000000070
:1093B000000000000000556E6163636573736962AD
:1093C0006C65206572726F722021210A0D00535561
:1093D000424D49540A0D00544558545F46414C5380
:1093E000450A0D00504F53545F544558543A2025B8
:1093F000730A0D00504F53545F53454C4543543A44
:10940000202562750A0D00504F5354206572726F0B
:10941000722066696C65206E6F7420666F756E646D
:109420002E0A0D00504F535420636F6E74696E7591
:10943000652E0A0D00656E7472795B253032627894
:109440005D3D25732C25730A00504F5354206572DF
:10945000726F722064617461302E0A0D007570673E
:109460007261646500504F5354206572726F7220B0
:1094700064617461312E0A0D004368616E67652076
:1094800053657474696E670A0D004C6F67696E3AB4
:10949000204C6F737420757365726E616D65206FFB
:1094A000722070617373776F7264206461746121DC
:1094B0000A0D004C6F67696E3A20757365726E61B4
:1094C0006D65206F722070617373776F7264206CAA
:1094D000656E677468206572726F72210A0D004CA8
:1094E0006F67696E3A20757365726E616D65206F86
:1094F000722070617373776F7264206E6F74206D69
:1095000065746368210A0D004C6F67696E3A2075B7
:109510007365726E616D6520616E64207061737336
:10952000776F726420636865636B206F6B210A0D2F
:10953000004368616E67652050617373576F726492
:109540003A204C6F73742070617373776F7264206C
:1095500064617461210A0D004368616E6765205083
:10956000617373576F72643A204E65772070617330
:1095700073776F7264206F7220636F6E6669726DAD
:109580002070617373776F7264206C656E677468A6
:10959000206572726F72210A0D004368616E676503
:1095A0002050617373576F72643A204F6C6420705F
:1095B000617373776F7264206E6F7420666F756E5F
:1095C00064210A0D004368616E6765205061737302
:1095D000576F72643A204E65772070617373776FAE
:1095E000726420616E6420636F6E6669726D2070B4
:1095F000617373776F7264206C656E677468206E38
:109600006F7420657175616C210A0D004368616E8D
:1096100067652050617373576F72643A20446174B8
:1096200061206E6F7420657175616C20696E2025F4
:109630007320746F2025730A0D004368616E67659F
:109640002050617373576F72643A206368616E676C
:1096500065206F6B212066726F6D3A202573207430
:109660006F2025730A0D004368616E67652055738E
:1096700065724E616D653A204E657720757365722F
:109680006E616D65206C656E677468206572726FBF
:1096900072210A0D004368616E676520557365721B
:1096A0004E616D653A206368616E6765206F6B215E
:1096B0002066726F6D3A20257320746F2025730A1F
:1096C0000D00485454502F312E3020323030204F6E
:1096D0004B0D0A43616368652D636F6E74726F6C26
:1096E0003A206E6F2D63616368650D0A436F6E6E7D
:1096F000656374696F6E3A204B6565702D416C69C6
:1097000076650D0A436F6E74656E742D747970659D
:109710003A20746578742F68746D6C0D0A0D0A0018
:10972000485454502F312E3020323030204F4B0DC2
:109730000A43616368652D636F6E74726F6C3A20C3
:109740006E6F2D63616368650D0A436F6E6E6563AE
:1097500074696F6E3A204B6565702D416C69766552
:109760000D0A436F6E74656E742D747970653A20BE
:10977000746578742F6373730D0A0D0A004854548E
:10978000502F312E3020323030204F4B0D0A4361A4
:109790006368652D636F6E74726F6C3A206E6F2D07
:1097A00063616368650D0A436F6E6E656374696F0C
:1097B0006E3A204B6565702D416C6976650D0A43E4
:1097C0006F6E74656E742D747970653A2061707077
:1097D0006C69636174696F6E2F6A6176617363721D
:1097E0006970740D0A0D0A00504F535400526561A0
:1097F000642064656661756C7420636F6E6669676A
:1098000075726174696F6E20646174612E200A0D37
:109810000061646D696E000061782E62696E0055AA
:109820006E6B6E6F776E2073797374656D20636CE9
:109830006F636B2072617465210A0D002066616997
:109840006C656421202877726F6E6720636865639A
:109850006B73756D290A0D0020496E76616C696421
:1098600020636F6E66696775726174696F6E2064DC
:10987000617461210A0D00206F6B2E0A0D00466194
:10988000696C656420746F2070726F6772616D20FF
:10989000436F6E666967726174696F6E20446174AC
:1098A0006121210D0A002020446576696365204E00
:1098B000616D653A2000253032627820000A0D0083
:1098C00020204D414320416464723A200020204E04
:1098D0006574776F726B2053657474696E673A2094
:1098E00000253034780D0A00202053433A436C6938
:1098F0002000202053433A536572200044484350CF
:109900003A4F6E2000444843503A4F666620005557
:1099100044503A4F6E20005544503A4F666620003E
:109920005443503A4F6E20005443503A4F666620DD
:10993000004D433A4F6E20004D433A4F666620007B
:1099400042433A4F6E200042433A4F666620002061
:10995000205349503A00256275200020506F7274E0
:109960003A2044413A20257500204D433A20257580
:10997000002042433A20257500202044657374205E
:10998000486F73743A202573002044657374205027
:109990006F72743A2025750020204E65746D6173D6
:1099A0006B3A0020476174657761793A0020444E34
:1099B000533A00202053657269616C20506F7274B5
:1099C0002053657474696E673A200042523A393206
:1099D00031363030200042523A3131353230302089
:1099E0000042523A3537363030200042523A33384E
:1099F000343030200042523A313932303020004287
:109A0000523A39363030200042523A343830302021
:109A10000042523A32343030200042523A31323031
:109A200030200044423A35200044423A3620004477
:109A3000423A37200044423A382000503A4F64649A
:109A40002000503A4576656E2000503A4E6F6E65A4
:109A5000200046433A586F6E2D586F6666200046C8
:109A6000433A4861726477617265200046433A4E1A
:109A70006F6E65200053423A31200053423A312E36
:109A8000352000202054782054696D6520496E747B
:109A9000657276616C3A25750020557365726E614A
:109AA0006D653A25732050617373776F72643A2540
:109AB00073002020452D4D61696C205365727665D9
:109AC000723A257300202046726F6D3A257300208C
:109AD00020546F313A2573002020546F323A257399
:109AE000002020546F333A25730020204175746F95
:109AF0005761726E696E673A2578200043533A00C9
:109B00004F6E20004F6666200041463A004F666661
:109B1000004950433A0050433A000A0D0A0D0047ED
:109B20004554202F64796E646E732F757064617470
:109B3000653F73797374656D3D64796E646E7326E9
:109B4000686F73746E616D653D2573266D796970FC
:109B50003D2562752E2562752E2562752E2562754E
:109B60002677696C64636172643D4F4646266D7862
:109B70003D4E4F434847266261636B6D783D4E4FC3
:109B8000266F66666C696E653D4E4F204854545092
:109B90002F312E300D0A00486F73743A206D656DB9
:109BA000626572732E333332322E6F72670D0A4143
:109BB0007574686F72697A6174696F6E3A20426178
:109BC0007369632025730D0A557365722D416765AE
:109BD0006E743A206D79636C69656E742F312E3026
:109BE000206D65406E756C6C2E6E65740D0A0D0AE5
:109BF00000474554202F6E69632F7570646174654A
:109C00003F73797374656D3D64796E646E73266815
:109C10006F73746E616D653D2573266D7969703D56
:109C20002562752E2562752E2562752E2562752694
:109C300077696C64636172643D4F4646266D783D7A
:109C40004E4F434847266261636B6D783D4E4F2609
:109C50006F66666C696E653D4E4F20485454502FB8
:109C6000312E300D0A00486F73743A206D656D62B5
:109C70006572732E64796E646E732E6F72670D0A4F
:109C8000417574686F72697A6174696F6E3A2042C7
:109C9000617369632025730D0A557365722D4167E1
:109CA000656E743A206D79636C69656E742F312E20
:109CB00030206D65406E756C6C2E6E65740D0A0DEE
:109CC0000A00474554202F646E733F757365726EAA
:109CD000616D653D25732670617373776F72643DA6
:109CE000257326686F73746E616D653D25732669F3
:109CF000703D2562752E2562752E2562752E2562B2
:109D00007520485454502F312E300D0A00486F737F
:109D1000743A2064796E7570646174652E6E6F2D6F
:109D200069702E636F6D0D0A557365722D416765FD
:109D30006E743A206D79636C69656E742F312E30C4
:109D4000206D65406E756C6C2E6E65740D0A0D0A83
:109D5000002562752E2562752E2562752E25627589
:109D60000073656E64206F7574207468652070617F
:109D7000636B65742066726F6D206172702062750E
:109D8000666665720A0D004448435020726571751D
:109D90006573742E2E2E20006970203D20002E0049
:109DA0006964203D2000736E203D200066773A00F4
:109DB00068773A00626C3A004E6574776F726B2078
:109DC000436F6E74726F6C6C657200557064617471
:109DD000696E672E2E2E0041542B434D47533D2272
:109DE000257322004E6574776F726B436F6E7472C9
:109DF0006F6C6C657200546573742047534D206D11
:109E00006F64756C652066697273742074696D6522
:109E10000041542B434D47523D310041542B434D9B
:109E200047443D310054435049505F7461736B00A7
:109E30004C6564426561745F7461736B0054696D55
:109E400065725F7461736B004C6564666C61736806
:109E50005F7461736B0055617274305F7461736B12
:109E60000055617274315F7461736B005561727477
:109E7000325F7461736B005363616E5F7461736B07
:109E8000005363686564756C655F7461736B00543F
:109E9000696D655365727665725F7461736B0055A9
:109EA000647042726F6164636173745F7461736B39
:109EB000005553425F7461736B00D9000AFA0000C9
:109EC000000000010400000000000000000000008D
:109ED0000000000000000000000000000000000082
:109EE0000000000000000000000075EBAA75EB55B3
:109EF000759D02787FE4F6D8FD900000007F007E1B
:109F0000807D01E4F0A3DFFCDEFADDF875355675DF
:109F100036D875817A02009F430201787EE493A3CC
:109F2000F85407240CC8C333C4540F4420C88340DA
:109F300004F456800146F6DFE4800C0102040810A8
:109F400020408090006077E47E019360CCA3FF54B2
:109F50003F30E509541FFEE493A360010ECF54E0A7
:109F6000B4E026E493FBA3E493FAA3E493F9A3E417
:109F700093C083C08212007E12D082D083A309E9ED
:109F800070010ADFEADEE880BE54C025E0602B40A5
:109F90008CE493A3FAE493A3F8E493A3C8C582C81E
:109FA000CAC583CA759300F0759300A3C8C582C85B
:109FB000CAC583CADFE3DEE1808DE493A3F8E493AE
:109FC000A34003F68001F208DFF402009F47759377
:109FD00000853583853682E0F581A3A881E0F6A36C
:109FE00018B87BF9C0A8C2AF858335858236D0A862
:109FF000D0E0548085A8384238D007D006D005D0AC
:10A0000004D003D002D001D000D0D0D082D083D0F1
:10A0100093D0F0D0E08538A822C0E0C0F0C093C053
:10A0200083C082C0D0C000C001C002C003C004C051
:10A0300005C006C007C0A8C2AF75930085358385EB
:10A040003682E581C3947BF804C3C58295825002B1
:10A050001583F582C0A8C2AF858335858236D0A826
:10A06000E581F0A3D0E0F0D8FA020316CD75930095
:10A07000853583853682E581C3947BF804C3C58228
:10A08000958250021583F582C0A8C2AF85833585BD
:10A090008236D0A8E581F0A3D0E0F0D8FA02030E12
:10A0A000B44E6F7468696E6720746F20646F2069A6
:10A0B0006E20446973636F767279206F662050500A
:10A0C000506F4520210D0A005050506F45204163CC
:10A0D000636F756E74206F722050617373776F7247
:10A0E00064206E6F7420636F7272656374210D0A51
:10A0F0000046696E6973682074686520505050206E
:10A1000068616E647368616B6520212120256C781D
:10A110000D0A0025642F252E3262642F252E32620F
:10A120006420252E3262643A252E3262643A252E4E
:10A1300032626400E94A4B70012212007DC1FF6D5A
:10A14000700122EF7004FBFAF92209E970EC0A8031
:10A15000E9286E756C6C29006D6F64656C3A31305E
:10A16000302066773A36392E31312068773A3236E8
:10A1700020626C3A3134003DA0EF1901CC0DF87526
:10A18000020817E06E000000000000000000000060
:10A1900000000000000000000000000000000000BF
:10A1A000000000000000009000C688EFF090008CD6
:10A1B00024E0FEA3E0AA06F99000C6897401F0A38A
:10A1C000EAF0A3E9F09000A9F7E0602A90008C2162
:10A1D0007401F0A3748CF0A3743CF0F990008B0E22
:10A1E0007401F0A3748CF0A3E9F090008AFF74016D
:10A1F000F0A3748C80559000A9DEE090008C216063
:10A20000267401F0A3748CF0A37434F0F990008BE1
:10A210000E7401F0A3748CF0A3E9F090008AFF742F
:10A2200001F0A3748C80247401F0A3748CF0A374E7
:10A2300026F0F990008B0E7401F0A3748CF0A3E962
:10A24000F090008AFF7401F0A3748CF0A3E9F09001
:10A2500000C688E06402600301A6839000AC17E0AA
:10A26000FF9000A9DEE02FFFE433FE744E2FF97457
:10A270008C3EFA90008B047401F0A3EAF0A3E9F09D
:10A28000786E06E6700C1806E670071806E670028F
:10A290001806E47873F608F69000C689E0FBA3E0A0
:10A2A000FAA3E02419F9E43AFA12007DC1FF640729
:10A2B0006005EF6405703D9000C689E0FBA3E0FAFD
:10A2C000A3E0241AF9E43AFA740112007DF61200B0
:10A2D0007DC16478600301CDE89000C689A3E0FAEF
:10A2E000A3E02419F9E43AFAE412007E12786176C8
:10A2F0002001A3969000C689E0FBA3E0FAA3E02426
:10A3000019F9E43AFA12007DC1700301CDE890001A
:10A31000C689A3E0FAA3E02410F9E43AFA12007E19
:10A32000F245F0700301A46B9000C689A3E0FAA384
:10A33000E0241AF9E43AFA74FF12007DD7600301B1
:10A34000CDE89000C689E0FBA3E0FAA3E0241BF966
:10A35000E43AFA12007DC1FF640860209000C689CB
:10A36000A3E0FAA3E02419F9E43AFA12007DC1FE51
:10A3700064026004EEB40125EFB403219000C689A5
:10A38000E0FBA3E0FAA3E02419F9E43AFAE41200AE
:10A390007E127861768012017FEF01C5D79000C6EA
:10A3A00089E0FBA3E0FAA3E0241BF9E43AFA1200E7
:10A3B0007DC1FFD3940440067E047F0480007403B3
:10A3C000A807088002C333D8FCFF9000C689E0FBD1
:10A3D000A3E0FAA3E0241AF9E43AFAEF12007E129D
:10A3E0009000C689E0FBA3E0FAA3E0241BF9E43A5D
:10A3F000FA740112007DF69000C689A3E0FAA3E08A
:10A400002419F9E43AFA12007DC1540F14700301C3
:10A41000B93E24FE601E14700301C3F324FE7003D2
:10A4200001C3F324FE700301C3F32406600301CDCE
:10A43000E801A6D2E47873F608F67871F608F678A3
:10A4400061760412017FEF90008C24E0FEA3E0AA65
:10A4500006F97B019000C689EBF0A3EAF0A3E9F0CE
:10A460007871E6FE08E6FFE901A7049000C689E0DE
:10A47000FBA3E0FAA3E02419F9E43AFA12007DC143
:10A48000540F6403600301CDE89000C689A3E0FA8D
:10A49000A3E0241EF9E43AFA12007DC1700301A67C
:10A4A0004E9000C689A3E0FAA3E0241FF9E43AFA2B
:10A4B000E475F00112007F16FEE5F064E07003EE33
:10A4C0006401600301CDE8F5F012007F4290008C3A
:10A4D00021E0FBA3E0FAA3E02421F9E43AFA7410A6
:10A4E00012007E127873760008762990008C21E0A5
:10A4F000FBA3E0FAA3E02420F9E43AFA7450120036
:10A500007E129000C689E0FBA3E0FAA3E0240CF9D8
:10A51000E43AFA12007DC1FF90008C21E0FBA3E039
:10A52000FAA3E02418F9E43AFAEF12007E12900040
:10A53000C689E0FBA3E0FAA3E0240DF9E43AFA129D
:10A54000007DC1FF90008C21E0FBA3E0FAA3E02492
:10A5500019F9E43AFAEF12007E129000C689E0FB86
:10A56000A3E0FAA3E0240EF9E43AFA12007DC1FF59
:10A5700090008C21E0FBA3E0FAA3E0241AF9E43A6E
:10A58000FAEF12007E129000C689E0FBA3E0FAA366
:10A59000E0240FF9E43AFA12007DC1C39401FF9060
:10A5A000008C21E0FBA3E0FAA3E0241BF9E43AFAD3
:10A5B000EF12007E12F4600301CA6E9000C689E0BB
:10A5C000FBA3E0FAA3E0240EF9E43AFA12007DC1FD
:10A5D000C39401FF90008C21E0FBA3E0FAA3E024E8
:10A5E0001AF9E43AFAEF12007E12F4600301CA6E1F
:10A5F0009000C689E0FBA3E0FAA3E0240DF9E43A59
:10A60000FA12007DC1C39401FF90008C21E0FBA3EE
:10A61000E0FAA3E02419F9E43AFAEF12007E12F40A
:10A62000600301CA6E9000C689E0FBA3E0FAA3E0D4
:10A63000240CF9E43AFA12007DC1C39401FF9000A2
:10A640008C21E0FBA3E0FAA3E0241801CA65900086
:10A65000C689E0FBA3E0FAA3E0241FF9E43AFAE498
:10A6600075F00112007F16FEE5F064807003EE6461
:10A6700007600301CDE8F5F012007F4278617608AB
:10A6800001C5999000C688E0FFB4032690008B02B4
:10A69000E0FCA3E08C837593002404F582E4358309
:10A6A000F583759300E0FCA3E04C700301CDE80155
:10A6B000AD7EEF6404705D9000C689E0FBA3E0FA14
:10A6C000A3E02419F9E43AFA12007DC1540F24FEE4
:10A6D000701590008C21E0FBA3E0FAA3E02421F99F
:10A6E000E43AFAE401B95190009212E020E2030149
:10A6F000C59D7871E6FE08E6FF9000C689E0FBA3E1
:10A70000E0FAA3E02410F9E43AFAEE8FF012007FA9
:10A710004201C7339000AC17E0FF9000A9DEE02FA4
:10A72000FFE433FE744E2FF9748C3EFA90008B04D4
:10A730007401F0A3EAF0A3E9F0C37874E69FF61879
:10A74000E69EF690008C21E0FBA3E0FAA3E0F9126C
:10A75000007DC16445600301CDE8E92402F9E43AD3
:10A76000FA12007DC1FDFB7873E66B7001E4600BAB
:10A77000EDFE08E6FDEE18F6ED08F690008C21E0FF
:10A78000FBA3E0FAA3E02403F9E43AFA12007DC146
:10A79000FF7874E66F7001E4600818E60818F6EFB9
:10A7A00008F690008C21E0FBA3E0FAA3E02406F970
:10A7B000E43AFA12007DC1543F600301CDE89000F5
:10A7C0008C21A3E0FAA3E02407F9E43AFA12007D11
:10A7D000C1600301CDE89000A9DEE0606F7850E62B
:10A7E000FE08E6FF4E606590008C21E0FBA3E0FAD6
:10A7F000A3E02410F9E43AFA12007EF2FDACF0C3B3
:10A80000EC94E05047ED6F7002EC6E600301CDE810
:10A8100090008C21E0FBA3E0FAA3E02412F9E43AD3
:10A82000FA12007EF2FFAEF07852E6FC08E6FD6F09
:10A830007002EE6C6016EFF4600301CDE812007E4A
:10A84000F2E47003E5F06C600301CDE890008C2128
:10A85000E0FBA3E0FAA3E02409F9E43AFA12007D50
:10A86000C1FF6406700301AF11EF6411700301A909
:10A8700091EF6401600301CDE890008AFFE0FBA343
:10A88000E0FAA3E02414F9E43AFA12007DC1FF646F
:10A89000086021EF600301CDE89000A9DBE0FBA395
:10A8A000E0FAA3E0F9EA494B700301CDE812008217
:10A8B000AC01CDE890008AFFE0FBA3E0FAA3E0241E
:10A8C00014F9E43AFAE412007E1290008C21E0FBC5
:10A8D000A3E0FAA3E02410F9E43AFA12007EF2FFB2
:10A8E000AEF0785FEEF608EFF690008C21E0FBA367
:10A8F000E0FAA3E0240CF9E43AFA12007EF2FD90AB
:10A90000008C21A3E0FAA3E02410F9E43AFAE5F080
:10A910008DF012007F4290008C21E0FBA3E0FAA3AF
:10A92000E0240CF9E43AFAEE8FF012007F42900036
:10A930008C21E0FBA3E0FAA3E02412F9E43AFA1236
:10A94000007EF2FFAEF018EEF608EFF690008C21D4
:10A95000E0FBA3E0FAA3E0240EF9E43AFA12007E49
:10A96000F2FD90008C21A3E0FAA3E02412F9E43A6E
:10A97000FAE5F08DF012007F4290008C21E0FBA3FD
:10A98000E0FAA3E0240EF9E43AFAEE8FF002007F39
:10A9900042E47861F690008B02748AF0A374B4F0FC
:10A9A00090008B02E0FCA3E0FDC394FCEC948A4091
:10A9B0000301ABDA8D828C83759300E5822404F564
:10A9C00082E43583F583759300E0FEA3E0FF4E70CB
:10A9D0000301ABC790008B0EE0FBA3E0FAA3E024D9
:10A9E00016F9E43AFA12007EF2FDEF6D7003EE659F
:10A9F000F0600301ABC790008B02E0FEA3E08E8302
:10AA00007593002406F582E43583F583759300E0A1
:10AA1000FEA3E0FF4E602090008B0EA3E0FAA3E0BF
:10AA20002414F9E43AFA12007EF2FDEF6D7003EEA1
:10AA300065F0600301ABC790008B02E0FEA3E0FF6E
:10AA4000F5828E83759300E0FCA3E0FD4C70138FBC
:10AA5000828E83759300A3A3E0FEA3E04E700301F2
:10AA6000AAEEBCFF1FBDFF1C90008B02E0FEA3E01E
:10AA7000F5828E83759300A3A3E0FEA3E0F4700239
:10AA8000EEF4606A90008C21E0FBA3E0FAA3E024DE
:10AA90000CF9E43AFA12007EF2FFAEF090008B025D
:10AAA000E0FCA3E0F5828C83759300E0FCA3E06FEB
:10AAB0007002EC6E600301ABC790008C21A3E0FA3A
:10AAC000A3E0240EF9E43AFA12007EF2FFAEF09011
:10AAD000008B02E0FCA3E0F5828C83759300A3A3B6
:10AAE000E0FCA3E06F7002EC6E600301ABC7900066
:10AAF0008B02E0FEA3E0FF8E837593002406F582AF
:10AB0000E43583F583759300E0FCA3E04C70359049
:10AB1000008B0EE0FBA3E0FAA3E02414F9E43AFA78
:10AB200012007EF2FDACF08F828E83759300E58279
:10AB30002406F582E43583F583759300ECF0A3EDEC
:10AB4000F001AD3E90008B02E0FEA3E0FFF5828EA7
:10AB500083759300E0FCA3E04C600301AD3E8F825F
:10AB60008E83759300A3A3E0FEA3E04E600301ADC6
:10AB70003E90008C21E0FBA3E0FAA3E0240CF9E472
:10AB80003AFA12007EF2FFAEF090008B02E0FCA3D6
:10AB9000E0FDF5828C83759300EEF0A3EFF090005A
:10ABA0008C21E0FBA3E0FAA3E0240EF9E43AFA12C8
:10ABB000007EF2FFAEF08D828C83759300A3A3EE2E
:10ABC000F0A3EFF001AD3E90008B03E02409F0907C
:10ABD000008B02E03400F001A9A0E47870F67870F0
:10ABE000E6FFC39404400301CDE890008B0EE0FB28
:10ABF000A3E0FAA3E02416F9E43AFA12007EF2FD8B
:10AC0000EF25E02457F9ED677004E5F0196760055A
:10AC100078700680C9E47870F67870E6FFC394080F
:10AC2000400301AD34EF75F009A424B8F582E43493
:10AC30008AF583759300E0FEA3E04E600301AD2E1C
:10AC400090008B0EE0FBA3E0FAA3E02416F9E43AAF
:10AC5000FA12007EF2FFAEF0E6FD75F009A424B80A
:10AC6000F582E4348AF583759300EEF0A3EFF0905B
:10AC7000008B0EE0FBA3E0FAA3E02414F9E43AFA17
:10AC800012007EF2FFAEF0ED75F009A424BAF58251
:10AC9000E4348AF583759300EEF0A3EFF090008C16
:10ACA00021E0FBA3E0FAA3E0240CF9E43AFA120055
:10ACB0007EF2FFAEF0ED75F009A424B4F582E43421
:10ACC0008AF583759300EEF0A3EFF090008C21E0FD
:10ACD000FBA3E0FAA3E0240EF9E43AFA12007EF2B4
:10ACE000FFAEF0ED75F009A424B6F582E4348AF5E0
:10ACF00083759300EEF0A3EFF0ED75F009A424BC8A
:10AD0000F582E4348AF5837593007408F0ED75F0EC
:10AD100009A424B4F582E4348A759300AF829000CC
:10AD20008B02F0A3EFF07861E64440F6800678707D
:10AD30000601AC197870E66408700301CDE87874F8
:10AD400074E426F61874FF36F69000AC17E0FF9016
:10AD500000A9DEE02FFFE433FE74422FF9748C3E2D
:10AD6000FA90008B047401F0A3EAF0A3E9F0786193
:10AD7000E64402F6E47871F608F61201C2D678725B
:10AD8000E61846700301CDE87872E6241C7974F762
:10AD900018E43619F77873E6FF90008C21E0FBA3E6
:10ADA000E0FAA3E02402F9E43AFAEF12007E120876
:10ADB000E6FF90008C21E0FBA3E0FAA3E02403F976
:10ADC000E43AFAEF12007E1290008C21E0FBA3E03F
:10ADD000FAA3E02409F9E43AFA741112007E127819
:10ADE00072E62408FF18E436FE90008B0EE0FBA309
:10ADF000E0FAA3E02418F9E43AFAEE8FF012007FAB
:10AE00004290008B0EE0FBA3E0FAA3E0241AF9E4E1
:10AE10003AFAE4F5F012007F4290008B02E0FEA3C4
:10AE2000E0FF8E837593002404F582E43583F58377
:10AE3000759300E0FCA3E0FD90008C21E0FBA3E013
:10AE4000FAA3E02414F9E43AFAEC8DF012007F4200
:10AE50008F828E83759300E5822406F582E4358324
:10AE6000F583759300E0FEA3E0FF90008C21E0FBEA
:10AE7000A3E0FAA3E02416F9E43AFAEE8FF0120008
:10AE80007F427850E6FE08E6FF90008C21E0FBA3AD
:10AE9000E0FAA3E0240CF9E43AFAEE8FF012007F16
:10AEA0004208E6FE08E6FF90008C21E0FBA3E0FAF2
:10AEB000A3E0240EF9E43AFAEE8FF012007F4290FC
:10AEC000008B02E0FEA3E0FFF5828E83759300E025
:10AED000FCA3E0FD90008C21E0FBA3E0FAA3E024BA
:10AEE00010F9E43AFAEC8DF012007F428F828E83E3
:10AEF000759300A3A3E0FEA3E0FF90008C21E0FB8C
:10AF0000A3E0FAA3E02412F9E43AFAEE8FF001CDBF
:10AF1000089000C6897401F0A3748BF0A37411F03B
:10AF20009000C689A3E0FAA3E0C390008C2195822B
:10AF3000EA9583400301B0639000C689E0FBA3A3B8
:10AF4000E02419F9E43AFA12007DC1700301B0540B
:10AF50009000C689A3E0FAA3E02404F9E43AFA12C7
:10AF6000007EF2FFAEF090008C21E0FBA3E0FAA39C
:10AF7000E02416F9E43AFA12007EF26F7003E5F06D
:10AF80006E600301B0549000C689E0FBA3E0FAA311
:10AF9000E02406F9E43AFA12007EF2FFAEF09000E7
:10AFA0008C21E0FBA3E0FAA3E02414F9E43AFA12BE
:10AFB000007EF26F7003E5F06E600301B054900004
:10AFC0008C21A3E0FAA3E0240CF9E43AFA12007E03
:10AFD000F2FFAEF09000C689E0FBA3E0FAA3E0F92F
:10AFE00012007EF26F7003EE65F07068E92402F9DA
:10AFF000E43AFA12007EF2FFAEF090008C21E0FB02
:10B00000A3E0FAA3E0240EF9E43AFA12007EF2B5C6
:10B010000742E5F0B5063D9000C689E0FBA3E0FAE3
:10B02000A3E02419F9E43AFA12007DC16407600331
:10B0300001B9F290008C21E0FBA3E0FAA3E0242107
:10B04000F9E43AFA12007DC1543F6402600301B989
:10B05000F201B4C49000C68AE475F02212007EC6E4
:10B0600001AF2090008C21E0FBA3E0FAA3E02421B3
:10B07000F9E43AFA12007DC1543F64027042900034
:10B080008C21E0FBA3E0FAA3E02416F9E43AFA12DB
:10B09000007EF2785FA6F008F6E47870F67870E645
:10B0A000FFC39404501AEF25E02449F97860E6675D
:10B0B000700418E61967700301B3E678700680DD46
:10B0C00090008C21E0FBA3E0FAA3E02421F9E43A0C
:10B0D000FA12007DC130E20301CDE8741412007E43
:10B0E000127873760008762890008C21E0FBA3E0AC
:10B0F000FAA3E02420F9E43AFA745012007E129088
:10B10000008C21E0FBA3E0FAA3E0241BF9E43AFA67
:10B1100012007DC1FF7870F690008C21E0FBA3E067
:10B12000FAA3E0241FF9E43AFA12007DC1FE900070
:10B130008C21A3E0FAA3E0241BF9E43AFAEE120012
:10B140007E1290008C21E0FBA3E0FAA3E0241FF91B
:10B15000E43AFAEF12007E1290008C21E0FBA3E0AB
:10B16000FAA3E0241AF9E43AFA12007DC1FFF6903E
:10B17000008C21E0FBA3E0FAA3E0241EF9E43AFAF4
:10B1800012007DC1FE90008C21A3E0FAA3E0241AF6
:10B19000F9E43AFAEE12007E1290008C21E0FBA353
:10B1A000E0FAA3E0241EF9E43AFAEF12007E1290CE
:10B1B000008C21E0FBA3E0FAA3E02419F9E43AFAB9
:10B1C00012007DC1FFF690008C21E0FBA3E0FAA302
:10B1D000E0241DF9E43AFA12007DC1FE90008C21B2
:10B1E000A3E0FAA3E02419F9E43AFAEE12007E1281
:10B1F00090008C21E0FBA3E0FAA3E0241DF9E43ADF
:10B20000FAEF12007E1290008C21E0FBA3E0FAA37B
:10B21000E02418F9E43AFA12007DC1FFF690008CA0
:10B2200021E0FBA3E0FAA3E0241CF9E43AFA1200BF
:10B230007DC1FE90008C21A3E0FAA3E02418F9E47C
:10B240003AFAEE12007E1290008C21E0FBA3E0FAA5
:10B25000A3E0241CF9E43AFAEF12007E1290008C6D
:10B2600021E0FBA3E0FAA3E0241FF9E43AFA740119
:10B2700012007DF6704390008C21A3E0FAA3E02435
:10B280001EF9E43AFA740112007DF6702C90008CDD
:10B2900021A3E0FAA3E0241DF9E43AFA74011200B4
:10B2A0007DF6701590008C21A3E0FAA3E0241CF930
:10B2B000E43AFA740112007DF690008C21E0FBA3C1
:10B2C000E0FAA3E02414F9E43AFA12007EF2FFAEA9
:10B2D000F0785FEEF608EFF690008C21E0FBA3E03B
:10B2E000FAA3E02416F9E43AFA12007EF2FD900087
:10B2F0008C21A3E0FAA3E02414F9E43AFAE5F08DF6
:10B30000F012007F4290008C21E0FBA3E0FAA3E062
:10B310002416F9E43AFAEE8FF012007F4290008C86
:10B3200021E0FBA3E0FAA3E02410F9E43AFA1200CA
:10B330007EF2FFAEF018EEF608EFF690008C21E0FA
:10B34000FBA3E0FAA3E0240CF9E43AFA12007EF23F
:10B35000FD90008C21A3E0FAA3E02410F9E43AFA6E
:10B36000E5F08DF012007F4290008C21E0FBA3E01D
:10B37000FAA3E0240CF9E43AFAEE8FF012007F42CF
:10B3800090008C21E0FBA3E0FAA3E02412F9E43A58
:10B39000FA12007EF2FFAEF018EEF608EFF690001B
:10B3A0008C21E0FBA3E0FAA3E0240EF9E43AFA12C0
:10B3B000007EF2FD90008C21A3E0FAA3E02412F9B4
:10B3C000E43AFAE5F08DF012007F4290008C21E023
:10B3D000FBA3E0FAA3E0240EF9E43AFAEE8FF012B0
:10B3E000007F4201CC959000C689E4F0A374FFF081
:10B3F000A3F0E47870F67870E6FFC3940840030188
:10B40000B4A175F022EFA4242AF582E5F0348BF57F
:10B4100083759300E0701CE675F022A42411F97482
:10B420008B35F0FA9000C6897401F0A3EAF0A3E925
:10B43000F0806E7870E6FF75F022A4242AF582E58C
:10B44000F0348BF583759300E06407704E9000C66E
:10B4500089E0FBA3E0FAA3E0F94A6023E9241AF9A2
:10B46000E43AFA12007DC1FE75F022EFA4242BF518
:10B4700082E5F0348BF583759300E0D39E401C7811
:10B4800070E675F022A42411F9748B35F0FA90005F
:10B49000C6897401F0A3EAF0A3E9F078700601B35D
:10B4A000F69000C689E0FBA3E0FAA3E0F9F470028D
:10B4B000EAF4700301CDE8E92421F9E43AFA7408CA
:10B4C00012007E129000C689E0FBA3E0FAA3E0FF21
:10B4D00090008C24EAF0A3EFF0241AF9E43AFA740D
:10B4E0000312007E129000C689E0FBA3E0FAA3E0FD
:10B4F0002418F9E43AFA740312007E129000C68907
:10B50000E0FBA3E0FAA3E02416F9E43AFAE412001F
:10B510007E129000C689E0FBA3E0FAA3E02417F9AD
:10B52000E43AFA740412007E129000C689E0FBA38C
:10B53000E0FAA3E0241BF9E43AFAE412007E129048
:10B54000008C21E0FBA3E0FAA3E02416F9E43AFA28
:10B5500012007EF2FF9000C689E0FBA3E0FAA3E0B0
:10B560002404F9E43AFAE5F08FF012007F429000EB
:10B570008C21E0FBA3E0FAA3E02414F9E43AFA12E8
:10B58000007EF2FF9000C689E0FBA3E0FAA3E0246E
:10B5900006F9E43AFAE5F08FF012007F4290008C51
:10B5A00021E0FBA3E0FAA3E0240CF9E43AFA12004C
:10B5B0007EF2FF9000C689E0FBA3E0FAA3E0F9E584
:10B5C000F08FF012007F4290008C21E0FBA3E0FAA4
:10B5D000A3E0240EF9E43AFA12007EF2FF9000C6CE
:10B5E00089E0FBA3E0FAA3E02402F9E43AFAE5F0EB
:10B5F0008FF012007F429000C689E0FBA3E0FAA31F
:10B60000E02419F9E43AFA740112007E129000C69F
:10B6100089E0FBA3E0FAA3E0241EF9E43AFAE4127D
:10B62000007E129000C689E0FBA3E0FAA3E0241F8D
:10B63000F9E43AFAE4F5F012007F42786BE6FF9005
:10B6400000C689E0FBA3E0FAA3E0240CF9E43AFA8F
:10B65000EF12007E1208E6FF9000C689E0FBA3E02F
:10B66000FAA3E0240DF9E43AFAEF12007E1208E69C
:10B67000FF9000C689E0FBA3E0FAA3E0240EF9E402
:10B680003AFAEF12007E1208E6FF9000C689E0FB4E
:10B69000A3E0FAA3E0240FF9E43AFAEF12007E12D5
:10B6A0009000C689E0FBA3E0FAA3E02410F9E43A95
:10B6B000FAE475F00112007F4290008C21E0FBA3B8
:10B6C000E0FAA3E0241BF9E43AFA12007DC1FF90EE
:10B6D00000C689E0FBA3E0FAA3E0240BF9E43AFA00
:10B6E000EF12007E1290008C21E0FBA3E0FAA3E0B1
:10B6F000241AF9E43AFA12007DC1FF9000C689E0ED
:10B70000FBA3E0FAA3E0240AF9E43AFAEF12007E80
:10B710001290008C21E0FBA3E0FAA3E02419F9E4E5
:10B720003AFA12007DC1FF9000C689E0FBA3E0FA5F
:10B73000A3E02409F9E43AFAEF12007E1290008C9B
:10B7400021E0FBA3E0FAA3E02418F9E43AFA12009E
:10B750007DC1FF9000C689E0FBA3E0FAA3E02408C6
:10B76000F9E43AFAEF12007E127F017E001202C85D
:10B770009B90008C21E0FBA3E0FAA3E02422F9E4F3
:10B780003AFA12007DC1FF9000C689E0FBA3E0FAFF
:10B79000A3E0241CF9E43AFAEF12007E1290008C28
:10B7A00021E0FBA3E0FAA3E02423F9E43AFA120033
:10B7B0007DC1FF9000C689E0FBA3E0FAA3E0241D51
:10B7C000F9E43AFAEF12007E1290008C21E0FBA31C
:10B7D000E0FAA3E02420F9E43AFA12007DC154F023
:10B7E000D39450500301B93EE47870F690008C2158
:10B7F000E0FBA3E0FAA3E02420F9E43AFA12007D8A
:10B80000C1C4540FC39405FFE49400FEEF7802C353
:10B8100033CE33CED8F9FF7870E6FDC39FEE648057
:10B82000F8748098400301B93EEDFF9000A9DEE076
:10B830002FFFE433FE9000AC17E0F97C002FFFEC03
:10B840003EFE744E2FF582748C3EF583759300E0B6
:10B85000786FF6700301B93E786FE6FDB401040815
:10B86000068089ED6402600301B90B744F2FF582E5
:10B87000748C3EF583759300E06404600301B90B9A
:10B880007870E6FF9000A9DEE02FFFE433FEE97C4C
:10B89000002FFDEC3EFC74502DF582748C3CF5833A
:10B8A000759300E0FE74512DF582748C3CF5837520
:10B8B0009300E0FDEDFF785FEEF608EFF69000AC48
:10B8C00011E0FCA3E0FDC39FEC9E5006AE04AF0563
:10B8D0008007785FE6FE08E6FF9000C689E0FBA3DC
:10B8E000E0FAA3E02412F9E43AFAEE8FF012007FB6
:10B8F000429000C689E0FBA3E0FAA3E02414F9E437
:10B900003AFAEE8FF012007F4280337870E6FF90B3
:10B9100000A9DEE02FFFE433FE9000AC17E07C00CE
:10B920002FFFEC3EFE744F2FF582748C3EF583752D
:10B930009300E0FF60087870EF26F601B7EC900006
:10B940008C21E0FBA3E0FAA3E02421F9E43AFA74A5
:10B950001012007E1290008C21E0FBA3E0FAA3E01D
:10B960002421F9E43AFA12007DC1440212007E1249
:10B9700090008C21E0FBA3E0FAA3E02428F9E43A4C
:10B98000FA740212007E1290008C21E0FBA3E0FA10
:10B99000A3E02429F9E43AFA740412007E1290001C
:10B9A000AC11E0FCA3E0FDECFF90008C21E0FBA3D8
:10B9B000E0FAA3E0242AF9E43AFAEF12007E1290AA
:10B9C000008C21E0FBA3E0FAA3E0242BF9E43AFA8F
:10B9D000ED12007E127873760008762C90008C2190
:10B9E000E0FBA3E0FAA3E02420F9E43AFA74600152
:10B9F000C9BA9000C689A3E0FAA3E0FF90008C24A6
:10BA0000EAF0A3EFF0E47861F690009212F0900073
:10BA10008C21E0FBA3E0FAA3E02421F9E43AFA1236
:10BA2000007DC130E21B9000C689E0FBA3E0FAA3D1
:10BA3000E02419F9E43AFAE412007E12762001C7F4
:10BA4000F990008C21E0FBA3E0FAA3E02420F9E4C4
:10BA50003AFA12007DC1C4540F25E025E0FF78704A
:10BA6000F6C37874E69FFF18E69400CFC3941408D9
:10BA7000F6EF940018F6D308E6940018E694005008
:10BA80001B90008C21E0FBA3E0FAA3E02421F9E461
:10BA90003AFA12007DC120E00301BB609000C68924
:10BAA000E0FBA3E0FAA3E02408F9E43AFA12007DEF
:10BAB000C1FF90008C21E0FBA3E0FAA3E02418F979
:10BAC000E43AFA12007DC16F600301C9899000C693
:10BAD00089E0FBA3E0FAA3E02409F9E43AFA1200B2
:10BAE0007DC1FF90008C21E0FBA3E0FAA3E02419C4
:10BAF000F9E43AFA12007DC16F600301C989900030
:10BB0000C689E0FBA3E0FAA3E0240AF9E43AFA12BA
:10BB1000007DC1FF90008C21E0FBA3E0FAA3E024AC
:10BB20001AF9E43AFA12007DC16F600301C98990E5
:10BB300000C689E0FBA3E0FAA3E0240BF9E43AFA9B
:10BB400012007DC1FF90008C21E0FBA3E0FAA3E08E
:10BB5000241BF9E43AFA12007DC16F600301C98920
:10BB600090008C21E0FBA3E0FAA3E02421F9E43A61
:10BB7000FA12007DC120E40301BF9B9000C689E05A
:10BB8000FBA3E0FAA3E02410F9E43AFA12007EF2F3
:10BB9000FDACF04C700301BF9B9000C689A3E0FA96
:10BBA000A3E0240CF9E43AFA1202C0D990008C21E7
:10BBB000E0FBA3E0FAA3E0241CF9E43AFA12007DCA
:10BBC000C1FF90008B0AE06F600301BDB490008C50
:10BBD00021A3E0FAA3E0241DF9E43AFA12007DC1A2
:10BBE000FE90008B0BE06E600301BDB490008C21D1
:10BBF000A3E0FAA3E0241EF9E43AFA12007DC1FEA4
:10BC000090008B0CE06E600301BDB490008C21A30A
:10BC1000E0FAA3E0241FF9E43AFA12007DC1FE9095
:10BC2000008B0DE06E600301BDB490008B0AE0FE56
:10BC30009000C689E0FBA3E0FAA3E0240CF9E43A03
:10BC4000FAEE12007E1290008B0BE0FE9000C68987
:10BC5000E0FBA3E0FAA3E0240DF9E43AFAEE1200C7
:10BC60007E1290008B0CE0FE9000C689E0FBA3E002
:10BC7000FAA3E0240EF9E43AFAEE12007E129000E4
:10BC80008B0DE0FE9000C689E0FBA3E0FAA3E02460
:10BC90000FF9E43AFAEE12007E129000C689E0FB3A
:10BCA000A3E0FAA3E0241BF9E43AFA12007DC16094
:10BCB0000301BD879000C689A3E0FAA3E0241AF926
:10BCC000E43AFA12007DC1FE9000C689A3E0FAA30F
:10BCD000E02418F9E43AFA12007DC1C39EFE9000F8
:10BCE000C68CF09000C689A3E0FAA3E02416F9E41C
:10BCF0003AFA12007DC1131313541FFDC3EE9DFECB
:10BD00009000C68CF012007DF6C3EE6480948050E3
:10BD1000089000C68CE0F404F09000C68CE0FE9021
:10BD200000C689E0FBA3E0FAA3E02417F9E43AFA9D
:10BD300012007DC11313543FFDC3EE9D9000C68CCD
:10BD4000F012007DF69000C689A3E0FAA3E0241665
:10BD5000F9E43AFA12007DC1131313541FFE900048
:10BD6000C689A3E0FAA3E02417F9E43AFA12007DA9
:10BD7000C12EFE9000C689A3E0FAA3E02418F9E4DE
:10BD80003AFAEE12007E12786176019000C689E0E0
:10BD9000FBA3E0FAA3E02418F9E43AFA12007DC10B
:10BDA000FE9000C689A3E0FAA3E0241AF9E43AFA67
:10BDB000EE01BF7F9000C689E0FBA3E0FAA3E02478
:10BDC0000CF9E43AFA12007DC16F600301BF9B9049
:10BDD00000C689A3E0FAA3E0240DF9E43AFA1200C0
:10BDE0007DC1FF90008C21E0FBA3E0FAA3E0241DBD
:10BDF000F9E43AFA12007DC16F600301BF9B900025
:10BE0000C689E0FBA3E0FAA3E0240EF9E43AFA12B3
:10BE1000007DC1FF90008C21E0FBA3E0FAA3E024A9
:10BE20001EF9E43AFA12007DC16F600301BF9B90D6
:10BE300000C689E0FBA3E0FAA3E0240FF9E43AFA94
:10BE400012007DC1FF90008C21E0FBA3E0FAA3E08B
:10BE5000241FF9E43AFA12007DC16F600301BF9B11
:10BE600090009212E04480F09000C689E0FBA3E0CD
:10BE7000FAA3E0241BF9E43AFA12007DC160030141
:10BE8000BF559000C689A3E0FAA3E0241AF9E43A6A
:10BE9000FA12007DC1FF9000C689A3E0FAA3E02456
:10BEA00018F9E43AFA12007DC1C39FFF9000C68CD6
:10BEB000F09000C689A3E0FAA3E02416F9E43AFA68
:10BEC00012007DC1131313541FFEC3EF9EFF900099
:10BED000C68CF012007DF6C3EF6480948050089009
:10BEE00000C68CE0F404F09000C68CE0FF9000C621
:10BEF00089E0FBA3E0FAA3E02417F9E43AFA120080
:10BF00007DC11313543FFEC3EF9E9000C68CF01208
:10BF1000007DF69000C689A3E0FAA3E02416F9E4B8
:10BF20003AFA12007DC1131313541FFF9000C68903
:10BF3000A3E0FAA3E02417F9E43AFA12007DC12F36
:10BF4000FF9000C689A3E0FAA3E02418F9E43AFAC6
:10BF5000EF12007E12786176019000C689E0FBA3A3
:10BF6000E0FAA3E02418F9E43AFA12007DC1FF9048
:10BF700000C689A3E0FAA3E0241AF9E43AFAEF1222
:10BF8000007E129000C689E0FBA3E0FAA3E0241F24
:10BF9000F9E43AFAE4F5F012007F4290008C21E0D7
:10BFA000FBA3E0FAA3E02422F9E43AFA12007DC1EF
:10BFB000C3944050229000C689E0FBA3E0FAA3E0BE
:10BFC000241CF9E43AFA12007DC1D3948040089011
:10BFD000009212E04440F09000C689E0FBA3E0FA32
:10BFE000A3E02419F9E43AFA12007DC1540F14B405
:10BFF0000800400301CDE89000C00675F004A4C518
:10C000008325F0C583730200C0260200C0680200C9
:10C01000C35C0200C8000200C8D90200C950020077
:10C02000C9890200C7D87861E620E00301CDE87431
:10C030000312007E1276409000C689E0FBA3E0FA6E
:10C04000A3E02410F9E43AFAE4F5F012007F42D3B9
:10C050007874E6940018E6940040041202C88EE456
:10C060007871F608F601C5997861E620E00301C30E
:10C070005190008C21E0FBA3E0FAA3E02421F9E435
:10C080003AFA12007DC16412600301C35190008C22
:10C0900021A3E0FAA3E02420F9E43AFA12007DC1DA
:10C0A00054F0D39450500301C200E47870F690002D
:10C0B0008C21E0FBA3E0FAA3E02420F9E43AFA1291
:10C0C000007DC1C4540FC39405FFE49400FEEF78D3
:10C0D00002C333CE33CED8F9FF7870E6FDC39FEEAE
:10C0E0006480F8748098400301C200EDFF9000A9BD
:10C0F000DEE02FFFE433FE9000AC17E0F97C002F68
:10C10000FFEC3EFE744E2FF582748C3EF5837593E2
:10C1100000E0786FF6700301C200786FE6FDB401AD
:10C120000408068089ED6402600301C1CD744F2FBD
:10C13000F582748C3EF583759300E064046003011E
:10C14000C1CD7870E6FF9000A9DEE02FFFE433FE5A
:10C15000E97C002FFDEC3EFC74502DF582748C3C84
:10C16000F583759300E0FE74512DF582748C3CF5D7
:10C1700083759300E0FDEDFF785FEEF608EFF69033
:10C1800000AC11E0FCA3E0FDC39FEC9E5006AE04A2
:10C19000AF058007785FE6FE08E6FF9000C689E0FD
:10C1A000FBA3E0FAA3E02412F9E43AFAEE8FF012CE
:10C1B000007F429000C689E0FBA3E0FAA3E02414CC
:10C1C000F9E43AFAEE8FF012007F4280337870E69D
:10C1D000FF9000A9DEE02FFFE433FE9000AC17E0F3
:10C1E0007C002FFFEC3EFE744F2FF582748C3EF5E1
:10C1F00083759300E0FF60087870EF26F601C0AE0B
:10C200009000C689E0FBA3E0FAA3E02419F9E43A20
:10C21000FA740312007E1290008C21E0FBA3E0FA76
:10C22000A3E02418F9E43AFA12007DC1FF9000C699
:10C2300089E0FBA3E0FAA3E02408F9E43AFAEF125C
:10C24000007E1290008C21E0FBA3E0FAA3E0241909
:10C25000F9E43AFA12007DC1FF9000C689E0FBA321
:10C26000E0FAA3E02409F9E43AFAEF12007E129012
:10C27000008C21E0FBA3E0FAA3E0241AF9E43AFAE7
:10C2800012007DC1FF9000C689E0FBA3E0FAA3E0A5
:10C29000240AF9E43AFAEF12007E1290008C21E0B1
:10C2A000FBA3E0FAA3E0241BF9E43AFA12007DC1F3
:10C2B000FF9000C689E0FBA3E0FAA3E0240BF9E4B9
:10C2C0003AFAEF12007E127F017E001202C89B90A4
:10C2D000008C21E0FBA3E0FAA3E02422F9E43AFA7F
:10C2E00012007DC1FF9000C689E0FBA3E0FAA3E045
:10C2F000241CF9E43AFAEF12007E1290008C21E03F
:10C30000FBA3E0FAA3E02423F9E43AFA12007DC18A
:10C31000FF9000C689E0FBA3E0FAA3E0241DF9E446
