:020000040000FA
:04003B00020030008F
:0D300000C0E0439A80E59A20E0FBD0E0326A
:10602000029B760202DA49E4FFFE12007C8F600CCC
:106030000FEF70010E09E970F10A80EE2249444C1D
:106040004500220202D7B22D252E346600252E34BB
:106050006600220202D6554755445042435F496EBE
:10606000697428292E2E2E0A0D00220201FF734387
:106070008F02220202D30B41C28B0041C28C00412D
:10608000C2890041C28A0041C28D0041C2840042DF
:10609000C229000042C224000041C22B0041C5EDCC
:1060A0000042C51A000042C4AF000141C4AE19410C
:1060B000C4AD0142502D000042503C000042503E11
:1060C000000041503100425029000042503400008D
:1060D0004156A000425036000042502F000042506E
:1060E00040000042504300004150320042502B001B
:1060F0000042503800004156A10042503A00004191
:1061000050420841569E004156A300E00101F51E91
:106110000FE00101F31500E00101F51F00E00101AE
:10612000F3170041569F00415033004156A200E052
:106130000101F31600E0FF01F41700000000000069
:10614000000000000000000000000000000000004F
:10615000000000000000000000000000000000003F
:10616000000000000000000000000000000000002F
:10617000000000000000000000000000000000001F
:10618000000000000000000000000000000000000F
:1061900000000000000000000000000000000000FF
:1061A00000000000000000000000000000000000EF
:1061B00000000000000000000000000000000000DF
:1061C00000000000000000000000000000000000CF
:1061D00000000000000000000000000000000000BF
:1061E00000000000000000000000000000000000AF
:1061F000000000000000000000000000000000009F
:10620000000000000000000000000000000000008E
:10621000000000000000000000000000000000007E
:10622000000000000000000000000000000000006E
:106230000000000000000000005E00026D6F646559
:106240006C3A3130302066773A36392E3131206859
:10625000773A323600000000000041A6340041A722
:10626000640041A7610041A6330044A76700000015
:1062700000E00101F5EF0041A6320041A7660001F0
:1062800040FFE0B401F53B74696D652E77696E647B
:106290006F77732E636F6D00000000000000000038
:1062A000000000000074696D652E73746474696D7C
:1062B000652E676F762E74770000000000000000E6
:1062C000000000636C6F636B2E73746474696D659A
:1062D0002E676F762E74772000000000000000000B
:1062E0000077617463682E73746474696D652E67DA
:1062F0006F762E7477000000000000000000007030
:106300006F6F6C2E6E74702E6F726700000000004D
:10631000000000000000000000000000000000007D
:10632000000000000000000000000000000000006D
:106330000000000000000000000000E01801F5234C
:106340003B7CC454DC829E48DA4B04827AE2C0046F
:106350003B7CC45500000000E00501F5F05431001D
:106360000000E00201F5F5453241A6210041A4728A
:106370000042A762000148A619FE06015B00192C25
:106380002041A76C0041AC170041A9F70041AC18AF
:106390000041A9DE0041AC160041AA7000438C21E7
:1063A000018C26438B0E018C26438AFF018C2646E6
:1063B000BE1700123456789AE00201ECB20000E0F9
:1063C0000201ECB40000E00101ECAE00E00201ECDF
:1063D000970000E00201EC9D0000E00201EC9B0050
:1063E00000E00201ECA90000E00101F0B700E001CB
:1063F00001EC9900E00101ECB600E00101EC910034
:10640000E00101EC9600E00201ECB00000E00401C4
:10641000EC9200000000E00401ECA000000000E0AD
:106420000101EC9A00E00201ECA70000E00101ECA0
:10643000AD00E00101ECAC00E00101ECA600E001E0
:1064400001EC9F00E00101ECA500E00101ECAB00D4
:10645000E00101EC9000E00101ECA400E00101EC9E
:106460008F00E00101ECAF1941A9D00042A9A000C2
:106470000041A9A20044A9D10000000046A9CA0019
:10648000000000000041C0F20041C1010041C0F91C
:106490000041C0FC0042C0FA000042C0F3000044CA
:1064A000C0F50000000544C0FD0000000041BAC96D
:1064B000004BBB0F4D5352415653352E3130004DDA
:1064C000BB1E4D535241562D302D4153495800604B
:1064D00021BAEE757365726E616D65000000000093
:1064E00000000000000000000000000000000000AC
:1064F000000000006021BA8270617373776F72646C
:10650000000000000000000000000000000000008B
:1065100000000000000000000041BADD00419D8A3B
:106520000042A12004D26028A0F865000E000000FF
:10653000000000000000000000000000000000005B
:10654000000000000000000000000000000000004B
:106550000000419D890141A1220048B439415349BD
:10656000585849534141BCAC0041BCAF0041BD3912
:106570000042BCAD000042BD36000041BD380043C2
:10658000BCB300000043BCB000000041BCAB004203
:10659000BE7C005042BE7E07D0418AB30042C5C6D1
:1065A0006000E5DC01DCFC000000000000000000F1
:1065B00000000000000000000000000000000000DB
:1065C00000000000000000000000000000000000CB
:1065D00000000000000000000000000000000000BB
:1065E00000000000000000000000000000000000AB
:106B800000000041AD4C0041AD4B0041AD4F004114
:106B9000AD4D0042AC1F000042AC1D000041AC19DD
:106BA0000041AD500041AD4E0042ACF3000041AD9C
:106BB0004A0041AC1A0058ACF5000000000000008B
:106BC00000000000000000000000000000000000C5
:106BD0000042AD26000042AD24000042AD48000056
:106BE00042ACF1000042AC1B00006020AD28000068
:106BF0000001000100000001000000000001000190
:106C00000000000000010000000100010000610020
:106C1000AD51005EBCE2613FDD83C29C7E20A3FDDE
:106C20001F419DC3217FFCA2401E5F01E3BD3E606A
:106C300082DC237D9FC1421CFEA0E1BF5D0380DE9C
:106C40003C62BEE0025CDF81633D7C22C09E1D434E
:106C5000A1FF4618FAA427799BC584DA3866E5BBFC
:106C60005907DB856739BAE406581947A5FB78262A
:106C7000C49A653BD987045AB8E6A7F91B45C6985C
:106C80007A24F8A6441A99C7257B3A6486D85B050E
:106C9000E7B98CD2306EEDB3510F4E10F2AC2F71BC
:106CA00093CD114FADF3702ECC92D38D6F31B2ECEA
:106CB0000E50AFF1134DCE90722C6D33D18F0C521C
:106CC000B0EE326C8ED0530DEFB1F0AE4C1291CFCE
:106CD0002D73CA947628ABF517490856B4EA69377C
:106CE000D58B5709EBB536688AD495CB2977F4AAAA
:106CF0004816E9B7550B88D6346A2B7597C94A14DC
:106D0000F6A8742AC896154BA9F7B6E80A54D7898D
:106D10006B356045BEC684088D84089A000000006B
:106D200000008408A78408B48408C18408CE8408BD
:106D3000DB8408E88408F584090284090F84091CAF
:106D40008409298409368409438409500000008499
:106D5000095D84096A8409778409844199B45D4195
:106D60009A2D5C4199B56A607699B6485454502F73
:106D7000312E3020323030204F4B0D0A4361636892
:106D8000652D636F6E74726F6C3A206E6F2D636148
:106D90006368650D0A436F6E6E656374696F6E3A62
:106DA000204B6565702D416C6976650D0A436F6EE9
:106DB00074656E742D4C656E6774683A20787878C7
:106DC00078780D0A436F6E74656E742D74797065F2
:106DD0003A20696D6167652F6A7065670D0A0D0A53
:106DE00000419A2C75419C7752499924206368652B
:106DF000636B6564004A992D2073656C65637465E7
:106E000064004CBD3A1F1C1F1E1F1E1F1F1E1F1E8D
:106E10001F4CBD4E1F1D1F1E1F1E1F1F1E1F1E1F8E
:106E200041BD5D0043B5E300000042B5E100004212
:106E3000B5AA000044B5AD0000000041B5AC00416A
:106E4000B61F0041B61E0041B5E60041B5EA00415B
:106E5000B441004200200000E10001D3DC0000004A
:106E60000000000000000000000000000000000022
:106E70000000000000000000000000000000000012
:106E80000000000000000000000000000000000002
:106E900000000000000000000000000000000000F2
:106EA00000000000000000000000000000000000E2
:106EB00000000000000000000000000000000000D2
:106EC00000000000000000000000000000000000C2
:106ED00000000000000000000000000000000000B2
:106EE00000000000000000000000000000000000A2
:106EF0000000000000000000000000000000000092
:106F00000000000000000000000000000000000081
:106F10000000000000000000000000000000000071
:106F20000000000000000000000000000000000061
:106F30000000000000000000000000000000000051
:106F40000000000000000000000000000000000041
:106F50000000000000000000000000000001760AB0
:106F6000E00201D81E0000E00301DCD9000000E0CF
:106F70000301D4FC000000E00301D4FF000000E0A6
:106F80002001D50300000000000000000000000008
:106F900000000000000000000000000000000000F1
:106FA00000000000E02001D3BC0000000000000051
:106FB00000000000000000000000000000000000D1
:106FC000000000000000000000E02001D4DC000010
:106FD00000000000000000000000000000000000B1
:106FE0000000000000000000000000000000E020A1
:106FF00001DCDC00000000000000000000000000D8
:107000000000000000000000000000000000000080
:10701000000000E00801D82100000000000000008E
:10702000012300C130012100012200012000E00104
:1070300001D81D0052BB871201100102000008C0D8
:1070400016E1050001010203016043BB99090243F7
:1070500000020100C019090400000102020100053C
:107060002400100104240202052406000105240165
:1070700003010705810308001409040100020A0046
:1070800000000705020240000007058202400000E0
:1070900044BB8304030904602CBB572C037700779F
:1070A0000077002E00740065006D0063006F0063C0
:1070B000006F006E00740072006F006C0073002E91
:1070C0000063006F006D006026BBDC26034E006588
:1070D00000740077006F0072006B00200043006FA7
:1070E000006E00740072006F006C006C006500722E
:1070F0000056BC02160332003000310032002D0071
:10710000300035002D0031003100C138C1B5E0013B
:1071100001F1E605E00201F1E40000E00201F313F1
:107120000000E02001E2D9000000000000000000A3
:10713000000000000000000000000000000000004F
:1071400000000000000000E02001E2F90000000063
:10715000000000000000000000000000000000002F
:1071600000000000000000000000000041C3C20059
:1071700041A2460041A46800E12C01E9AB000000F7
:1071800000000000000000000000000000000000FF
:1071900000000000000000000000000000000000EF
:1071A00000000000000000000000000000000000DF
:1071B00000000000000000000000000000000000CF
:1071C00000000000000000000000000000000000BF
:1071D00000000000000000000000000000000000AF
:1071E000000000000000000000000000000000009F
:1071F000000000000000000000000000000000008F
:10720000000000000000000000000000000000007E
:10721000000000000000000000000000000000006E
:10722000000000000000000000000000000000005E
:10723000000000000000000000000000000000004E
:10724000000000000000000000000000000000003E
:10725000000000000000000000000000000000002E
:10726000000000000000000000000000000000001E
:10727000000000000000000000000000000000000E
:1072800000000000000000000000000000000000FE
:1072900000000000000000000000000000000000EE
:1072A00000000000000000000041A3470046A13F8D
:1072B000000000000000E19001EAD7000100010099
:1072C000010000000C004500090064001A00FF00E6
:1072D000FF0014000000FF000E00FF000100180076
:1072E0000200010001000100030001000100010093
:1072F0000100010001000100010001000100010086
:107300000100010001000100010001000100010075
:107310000100010001000100010001000100010065
:107320000100010001000100010001000100010055
:107330000100010001000100010001000100010045
:107340000100010001000100010001000100010035
:107350000100010001000100010001000100010025
:107360000100010001000100010001000100010015
:107370000000010001000000010001000100010007
:107380000100040000000100FF00FF00FF00FF00FB
:107390000000C000A80000000300FF00FF00FF0085
:1073A0000000C000A80000000400FF177100FF00EB
:1073B000FF00FF00FFFFFFFFFFFFFF00FFFFFF00D9
:1073C000FF00FF00FF00FF000000000000000000C1
:1073D00000000000000000000000010001000100AA
:1073E0000100010001000100010001000100010095
:1073F0000100010001000100010001000100010085
:107400000100010001000100010001000100010074
:107410000100010001000100010001000100000065
:107420004100370015000F003D0081002A002C00AC
:107430000100010001000100010001000100010044
:10744000010001000100010001000044A46B0000E4
:1074500000006100A14600C1814001C0804101C01F
:10746000804100C1814001C0804100C1814000C114
:10747000814001C0804101C0804100C1814000C104
:10748000814001C0804100C1814001C0804101C0F4
:10749000804100C1814001C0804100C1814000C1E4
:1074A000814001C0804100C1814001C0804101C0D4
:1074B000804100C1814000C1814001C0804101C0C4
:1074C000804100C1814001C0804100C1814000C1B4
:1074D000814001C0804101C0804100C1814000C1A4
:1074E000814001C0804100C1814001C0804101C094
:1074F000804100C1814000C1814001C0804101C084
:10750000804100C1814001C0804100C1814000C173
:10751000814001C0804100C1814001C0804101C063
:10752000804100C1814001C0804100C1814000C153
:10753000814001C0804101C0804100C1814000C143
:10754000814001C0804100C1814001C0804101C033
:10755000804100C181406100A24700C0C101C30356
:1075600002C2C60607C705C5C404CC0C0DCD0FCF9B
:10757000CE0E0ACACB0BC90908C8D81819D91BDB0B
:10758000DA1A1EDEDF1FDD1D1CDC14D4D515D7175B
:1075900016D6D21213D311D1D010F03031F133F30B
:1075A000F23236F6F737F53534F43CFCFD3DFF3F5B
:1075B0003EFEFA3A3BFB39F9F83828E8E929EB2B8B
:1075C0002AEAEE2E2FEF2DEDEC2CE42425E527E71B
:1075D000E62622E2E323E12120E0A06061A163A38B
:1075E000A26266A6A767A56564A46CACAD6DAF6F1B
:1075F0006EAEAA6A6BAB69A9A86878B8B979BB7B8B
:107600007ABABE7E7FBF7DBDBC7CB47475B577B7DA
:10761000B67672B2B373B17170B05090915193530A
:10762000529296565797559594549C5C5D9D5F9FDA
:107630009E5E5A9A9B5B99595898884849894B8B0A
:107640008A4A4E8E8F4F8D4D4C8C4484854587479A
:107650004686824243834181804041B7630054B7EC
:1076600064000000000000000000000000000000B6
:1076700000000000004FB6262B3836313339313741
:107680003930353639330041B7620500EC4D6011B1
:10769000E8497018ED33EC3304600DE4FCFFFEFDA7
:1076A00022E933E8330470F8020078EC120078B76E
:1076B00058046009E4CC2481500728500B0200785C
:1076C000F6284004020078F3C0E0EB4A7046B98027
:1076D00007D0E0FB020078E2EF4E701DBD8008EBA2
:1076E000FFEAFEE9FD80EAE98DF0A4FEE5F0020084
:1076F000777BE9CDF9EAFEEBFFEF89F0A4FCE5F03A
:10770000CE89F0A42EFFE435F0CD89F0A42DFEE45F
:1077100035F08067EF4E7005BD80D780C2EF8BF0EB
:10772000A4ACF0EE8BF0A42CFCE435F0F8EF8AF07A
:10773000A42CE5F038FCE433CB8DF0A42CFCE5F070
:107740003BF8EE8AF0A42CFCE5F038F8E433CF895E
:10775000F0A42CFCE5F038CF3400CE89F0A42FFF44
:10776000E5F03EFEE433C98DF0A42EFEE5F039CD00
:107770008AF0A42FFFE5F03EFEE43DFD33D0E0FBB0
:1077800050080BBB0010020078F6EC2CFCEF33FF26
:10779000EE33FEED33FD020078CE020078F6EC5DAC
:1077A000046005E859047004020078EC120078B710
:1077B000580460F4EC4860F0EC7004FDFEFF22C851
:1077C00060D82481C8500AC398600250070200782C
:1077D000F39850C6F582E9294B4A7006AB82020045
:1077E00078E275F0007C1A7880C3EF9BEE9AED99F1
:1077F000400DC3EF9BFFEE9AFEED99FDE842F0DCF1
:1078000024ACF0D0E0FFD0E0FED0E0FDAB8220E77A
:10781000101BEB60B8EC2CFCEF33FFEE33FEED33C6
:10782000FD020078CEE803F830E705C0F075F000FF
:10783000EF2FFFEE33FEED33FD40B730E7C180A9F7
:1078400075F020800E75F010800575F0087D007EC3
:10785000007F003392D530D50412007F49EC3340CD
:1078600010EF33FFEE33FEED33FDEC33FCD5F0EDDE
:1078700022E5F0247EA2D513CC92E7CDCEFF22EDF7
:10788000D2E7CD33EC3392D524814006E4FFFEFDF0
:10789000FC22FCE4CFCECDCC24E0501174FF80ED6F
:1078A000C3CC13CCCD13CDCE13CECF13CF0470F0F9
:1078B00030D5DE02007F49E9D2E7C933E833F892D8
:1078C000D5EDD2E7CD33EC33FC5002B2D522EC300B
:1078D000E7100FBF000C0EBE00080DBD00040BEB3F
:1078E0006014A2D5EB13FCED92E7FD2274FFFCFDC2
:1078F000FEFF22E480F8A2D574FF13FC7D80E480B3
:10790000EFF920E73624F950037907E4F42402FB69
:10791000E582158270021583DBF6E024FB501BE93B
:107920006014E4F0E582158270021583E004F0B47F
:107930000A08E4F0D9EE7401F00A22C2D522ED3330
:10794000EC3392D5FA602AB4FF33EDC2E77B816055
:10795000067A797963E4227A79796C20D5047A7988
:107960007967224E614E002B494E46002D494E4606
:1079700000E47A08F0A3DAFC7B00740722C093C00D
:1079800083C082ECC0E0EDC0E0EEC0E0EFC0E0EA12
:1079900075F010A4CAABF075F04DA42BFBE435F0E4
:1079A000FCEA2410FAEB34C5FBEC34D9FCEDC2E759
:1079B000FF75F056A4F42411C5F0F434C58FF0A47B
:1079C0002AE5F03BE43CF020E71612007B7BD0E098
:1079D000FFD0E0FED0E0FDD0E0FC1200779E8016E4
:1079E000F40412007B7BD0E0FFD0E0FED0E0FDD0BD
:1079F000E0FC1200768CD082D083D093E0FAEDD2F6
:107A0000E7CD33EC332482FBE4C3CF33CFCE33CE88
:107A1000CD33CD33DBF37B0775F00A846004F0A32C
:107A20001B0AE5F0F0A38FF0740AA4FFACF08EF00F
:107A3000740AA42CFEACF050010C8DF0740AA42C36
:107A4000FDE435F0F0A3DBDE740722020078ECE8F9
:107A50006480F8E933E83360110460EFED33EC3310
:107A60007009E8FCE9FDEAFEEBFF220460DDD3EBE0
:107A70009FEA9EE99DE8C2E78CF0C2F795F0400CC2
:107A8000E8CCF8E9CDF9EACEFAEBCFFB120078B7F3
:107A900085D0F05804700320D5B1E8047008500276
:107AA000B2D5020078F692D5EC0460F6E4CCC0E0E2
:107AB000C398F8603C94186009400ED0E0FB0200C7
:107AC00078CEE4FBFAC9FC8028E830E406E4C9FB80
:107AD000E4CAFCE830E305E4C9CACBFCE85407601B
:107AE00010F8C3E913F9EA13FAEB13FBEC13FCD813
:107AF000F130F531C3E49CFCEF9BFFEE9AFEED996B
:107B0000FDD0E0FBEF4E4D4C701322DB04020078F9
:107B1000F3EC2CFCEF33FFEE33FEED33FDED30E7FD
:107B2000EA020078CEEF2BFFEE3AFEED39FDD0E011
:107B3000FB50140BBB0004020078F6ED13FDEE13AE
:107B4000FEEF13FFEC13FC020078CE3F80000041F3
:107B500020000042C80000447A0000461C40004754
:107B6000C35000497424004B1896804CBEBC205A68
:107B70000E1BCA6753C21C749DC5AEFB600654073A
:107B80006020232312007BAEEB5438600C12007B84
:107B90009912007BA91200768CECF8EDF9EEFAEF61
:107BA000CB22EB12007BA980F0543803241C9000F8
:107BB0007B4BFE93FC0EEE93FD0EEE930ECE93FFE9
:107BC00022EB7008E709F608DFFA801B89828A83B6
:107BD0001410E70AF593E0A3F608DFFA8009F5939D
:107BE000E493A3F608DFF9ECFAA9F0EDFB2288F0A4
:107BF000EF60010E4E60F088F0ED60C51410E7E70D
:107C0000CB700E88828C838B93E709F0A3DFFA8018
:107C1000D61410E72A89828A83F593ECFAE0A3C888
:107C2000C582C8CCC583CCCBC593CBF0A3C8C582D5
:107C3000C8CCC583CCCBC593CBDFE2DEE080AA897C
:107C4000828A83F593ECFAE493A3C8C582C8CCC5B5
:107C500083CCCBC593CBF0A3C8C582C8CCC583CC9D
:107C6000CBC593CBDFE1DEDF02007BE9C2D530F785
:107C700007B2D563F0FF05F030E70DB2D5F404008C
:107C80008463F0FF05F080018430D502F40422EB18
:107C90007002E72289828A831410E704F593E022B8
:107CA000F593E49322F8EB7006E7C828F3E82289FD
:107CB000828A831410E708F593E0C828F0E822F5DB
:107CC00093E49322BB000327F722F8EB89828A838F
:107CD0001410E706F593E028F022F593E4932822A8
:107CE000BB0002F722BB8000500989828A838B93F4
:107CF0001593F022EF8DF0A4A8F0CF8CF0A428CE3D
:107D00008DF0A42EFE22BC000BBE0029EF8DF08466
:107D1000FFADF022E4CCF875F008EF2FFFEE33FE54
:107D2000EC33FCEE9DEC984005FCEE9DFE0FD5F08B
:107D3000E9E4CEFD22EDF8F5F0EE008420D21CFE41
:107D4000ADF075F008EF2FFFED33FD4007985006BA
:107D5000D5F0F222C398FD0FD5F0EA22C2D5EC305F
:107D6000E709B2D5E4C39DFDE49CFCEE30E716B212
:107D7000D5E4C39FFFE49EFE12007D06C3E49DFD93
:107D8000E49CFC800412007D0630D507C3E49FFF0D
:107D9000E49EFE22C5F0F8A3E028F0C5F0F8E582E5
:107DA000158270021583E038F022A3F8E0C5F025B3
:107DB000F0F0E582158270021583E0C838F0E82201
:107DC000EB7007E7F5F009E7192289828A8314101E
:107DD000E708F593E0F5F0A3E022F593E493F5F0DE
:107DE00074019322BB000B09C5F027F7C5F01937C2
:107DF000F722F8EB89828A831410E707F593E802EB
:107E0000007D94F59374019325F0F5F0E493382206
:107E1000BB0006F709A7F01922BB8000500D89822C
:107E20008A838B931593F0E5F0A3F022E88FF0A4FA
:107E3000CC8BF0A42CFCE98EF0A42CFC8AF0EDA4F1
:107E40002CFCEA8EF0A4CDA8F08BF0A42DCC382524
:107E5000F0FDE98FF0A42CCD35F0FCEB8EF0A4FE04
:107E6000A9F0EB8FF0A4CFC5F02ECD39FEE43CFC99
:107E7000EAA42DCE35F0FDE43CFC2275F0087582B5
:107E800000EF2FFFEE33FECD33CDCC33CCC58233A4
:107E9000C5829BED9AEC99E58298400CF582EE9BA9
:107EA000FEED9AFDEC99FC0FD5F0D6E4CEFBE4CDC7
:107EB000FAE4CCF9A88222B800C1B90059BA002D61
:107EC000EC8BF084CFCECDFCE5F0CBF97818EF2F1A
:107ED000FFEE33FEED33FDEC33FCEB33FB10D70349
:107EE000994004EB99FB0FD8E5E4F9FA227818EFF2
:107EF0002FFFEE33FEED33FDEC33FCC933C910D751
:107F0000059BE99A4007EC9BFCE99AF90FD8E0E45D
:107F1000C9FAE4CCFB2275F010EF2FFFEE33FEED33
:107F200033FDCC33CCC833C810D7079BEC9AE89903
:107F3000400AED9BFDEC9AFCE899F80FD5F0DAE4E5
:107F4000CDFBE4CCFAE4C8F922C3E49FFFE49EFE33
:107F5000E49DFDE49CFC22EB9FF5F0EA9E42F0E9F3
:107F60009D42F0EC6480C864809845F022EB9FF558
:107F7000F0EA9E42F0E99D42F0E89C45F022E8607C
:107F80000FECC313FCED13FDEE13FEEF13FFD8F15E
:107F900022E8600FEFC333FFEE33FEED33FDEC3329
:107FA000FCD8F122EB7006E9F8020083ED89828AA1
:107FB000831410E706F593020083F9F59302008419
:107FC00005BB0006E9F80200843EBB8000500C8926
:107FD000828A838B9315930200802E22EB7006E930
:107FE000F80200841589828A831410E706F593024B
:107FF000008422F5930200842E7401FF3395E0FE85
:10800000FDFCA3A3A3E0CF2FF0E58215827002153B
:1080100083E0CE3EF0E582158270021583E0CD3D0F
:10802000F0E582158270021583E0CC3CF022ECF082
:10803000A3EDF0A3EEF0A3EFF022A42582F582E5F4
:10804000F03583F58322F8E0FBA3A3E0F925F0F0F7
:10805000E582158270021583E0FA38F022EBF0A376
:10806000EAF0A3E9F022EB7006E9F80200844A89FD
:10807000828A831410E706F5930200845CF593026C
:10808000008465BB001CD093D0F0D0E0F8D0E0C9EC
:10809000FBD0E0FAD0E0CBC8C0E0C0F0C093020053
:1080A0008453BB80005022D093D0F0D0E0F8D0E0D1
:1080B000C9F582D0E0CAF583D0E0CB14C8C0E0C0D7
:1080C000F0C09388930200805DD093D083D082D09B
:1080D000E0D0E0D0E0E473D093D083D082F8E49392
:1080E0007012740193700DA3A393F8740193F58239
:1080F0008883E4737402936860EFA3A3A380DFD046
:1081000093D083D082F8E4937012740193700DA31E
:10811000A393F8740193F5828883E473740293B592
:10812000F0067403936860E9A3A3A3A380D8D09357
:10813000D083D082E4937012740193700DA3A39343
:10814000F8740193F5828883E4737402936C70125F
:108150007403936D700C7404936E70067405936FC2
:1081600060DDA3A3A3A3A3A380CA8B938A83898280
:10817000159353937FE473759300E5362582F5825A
:10818000E5353583F583B535048582362210AF0693
:10819000858236F53522858236F535D2AF22759344
:1081A00000E5362582F582E5353583F58322EC8EB0
:1081B000F0A4CCC5F0CCCDF8EFA4CEC5F02DFDE4F5
:1081C0003CFCE8A42EC8C5F03DFDE43CFCEFA4FF58
:1081D000E5F028FEE43DFDE43CFC22EB7008E709F5
:1081E000F60870FA801B89828A831410E70AF593D7
:1081F000E0A3F60870FA8009F593E493A3F60870FB
:10820000F9ECFAA9F0EDFB2288F0ED60CE1410E74E
:10821000F0CB700E88828C83F593E709F0A370FA97
:1082200080DF1410E72889828A83F593ECFAE0A3B3
:10823000C8C582C8CCC583CCCBC593CBF0A3C8C579
:1082400082C8CCC583CCCBC593CB70E280B5898284
:108250008A83F593ECFAE493A3C8C582C8CCC5839E
:10826000CCCBC593CBF0A3C8C582C8CCC583CCCB3F
:10827000C593CB70E1808CEB700C87F009E608B5F4
:10828000F019DFF6801589828A831410E711F593BF
:10829000E0F5F0A3E608B5F002DFF502008328F56B
:1082A00093E493F5F0A3E608B5F07DDFF48079CB95
:1082B000701388828C838B9387F009E493A3B5F0C5
:1082C00067DFF580631410E73089828A83F593ECC9
:1082D000FAE0F5F0A3C8C582C8CCC583CCCBC59362
:1082E000CBE493A3C8C582C8CCC583CCCBC593CB04
:1082F000B5F035DFDCDEDA802F89828A83F593ECF6
:10830000FAE493F5F0A3C8C582C8CCC583CCCBC52D
:1083100093CBE493A3C8C582C8CCC583CCCBC5930B
:10832000CBB5F004DFDBDED97FFFB5F0020F2240D2
:10833000027F012202008277020082AF88F0EF60A4
:10834000010E4E60EEED60EC1410E7ECCB7012887D
:10835000828C83F59387F009E0A3B5F0CBDFF6803C
:10836000C71410E72F89828A83F593ECFAE0F5F0C1
:10837000A3C8C582C8CCC583CCCBC593CBE0A3C86A
:10838000C582C8CCC583CCCBC593CBB5F09ADFDD15
:10839000DEDB809489828A83F593ECFAE493F5F02E
:1083A000A3C8C582C8CCC583CCCBC593CBE0A3C83A
:1083B000C582C8CCC583CCCBC593CBB5F004DFDC7C
:1083C000DEDA02008328EF4E6022EF60010EEDBB83
:1083D0000007F709DFFCA9F022BB8000500E89825C
:1083E0008A838B931593F0A3DFFCDEFA22E6FC0868
:1083F000E6FD08E6FE08E6FF22E0FCA3E0FDA3E0C0
:10840000FEA3E0FF22E493FC740193FD740293FE4B
:10841000740393FF22E6FB08E6F908E6FA08E6CBC8
:10842000F822E0F8A3E0F9A3E0FAA3E0FB22E4934A
:10843000F8740193F9740293FA740393FB22ECF637
:1084400008EDF608EEF608EFF622E6FB08E6FA0875
:10845000E6F922EBF608EAF608E9F622E0FBA3E0EB
:10846000FAA3E0F922E493FB740193FA740293F9FE
:1084700022E5282447F582E434BFF583759300E0B4
:108480000528229000BF443027049000BF47E475C0
:10849000F0011200804602007C8F2020E57F2ED262
:1084A000208018EF540F2490D43440D4FF30240B94
:1084B000EF24BFB41A0050032461FFE529600215C0
:1084C00029052CE52C7002052B3027119000BF44A4
:1084D000E475F00112008046EF02007CE002030B1D
:1084E000737403D2278003E4C227F5289000BF44A9
:1084F0001200805DE4F529F52BF52CE52960087F55
:1085000020120084BB80F4752AFFC221C220C2223F
:10851000C223C225C226C22812008483FF700E30F7
:1085200027067F00120084CCAF2CAE2B22B425632B
:10853000C2D5C22412008483FF24D0B40A00501A8A
:1085400075F00A782930D50508B6FF0106C6A426BD
:10855000F620D5047002D22380D824CFB41A00EFBD
:108560005004C2E5D22402008809D22180C4D2205E
:1085700080BED22280BAD2D580B8D22580B27F20E8
:10858000120084BB2022077401B5290040F01200BC
:108590008471FF120084BB020084FBD228D22680A3
:1085A0008F12008471FB12008471FA12008471F939
:1085B0004A4B700679167A897B8120223DE5296035
:1085C000397E00E9C0E02EF9EAC0E03400FA12007A
:1085D0007C8FF9D0E0FAD0E0C960060EEE652A7013
:1085E000E2C2D5EBC0E0EAC0E0E9C0E0EE120088EC
:1085F00071D0E0F9D0E0FAD0E0FB12007C8FFF6090
:1086000096EBC0E0EAC0E0E9C0E0120084BBD0E035
:108610002401F9D0E03400FAD0E0FBE52A0460DA66
:10862000D52AD702008597D222808F1200884D600C
:10863000F6E52A70010412007901A92A600EE52AE4
:10864000600A14F52A12008900EF60F2EA30E702AE
:10865000F404C3994004020086E0EAF4252A0430B9
:10866000E701E404F52A800F1200884D60B9EA059D
:108670002A252A12007901EA9000BF73F030E70141
:10868000E4252A04D52A042025011412008871E467
:10869000C0E0120089009000BF73E0601420E7087A
:1086A00014F0120084A3802604F0D0E014C0E07F10
:1086B00000120084A3E52A60081200849A152A801B
:1086C0000D3025041200849AD0E0020084FBD0E033
:1086D0000480BD1200884D6093E52A0412007901E0
:1086E0009000BF73EAF0E52A20250260010424040B
:1086F0001200887174FF04C0E01200890012008427
:10870000A3E52A20250260041200849AD0E0B52A4D
:10871000E57F45120084AD9000BF73E07F2B30E70A
:10872000047F2DF404C0E0120084BBD0E075F00A91
:1087300084C0F0120084A4D0E0120084A40200845B
:10874000FB791080027908C226C2288008D2D57928
:108750000A8004790AC2D5E52A047002F52AE4FAEF
:10876000FDFEFF12008471FC7B082021161200849C
:1087700071FD7B1030200C12008471FE1200847198
:10878000FF7B20EC3382D592D55013C3E430200612
:108790009FFFE49EFEE42021039DFDE49CFCE4CBCE
:1087A000F8C221EC700CCFCECDCCE824F8F870F3F1
:1087B0008017C3EF33FFEE33FEED33FDEC33FCEBFC
:1087C00033FB994002FB0FD8E9EB302105F8D0E0EC
:1087D000C448B221C0E00AEC4D4E4F78207B0070B7
:1087E000C2EAB52A0040BCC0E012008873D0F0D0C5
:1087F000E0202104C4C0E0C4B221C0F0120084A46F
:10880000D0F0D5F0EA020084FB120080D785A15396
:10881000874158856E4C856A4287454F874D44870E
:108820004D4985844387535586684686D345862BB4
:108830004789335085722D85762E859D2B857A2329
:10884000859B20891F2A85304800008593E52AB43E
:10885000FF03752A0612008471FC12008471FD1258
:10886000008471FE12008471FF9000BF6C020079D9
:108870003E790AA2D5202314302509B91002040438
:10888000B9080104A2D520260250010420226D92CD
:1088900022B529005036C0E07F2030231A7F30A255
:1088A00022722672255010120088CCC222C226C223
:1088B00025C2287F308010302503E9C0E0120084F3
:1088C000BB302503D0E0F9D0E0B529CA3025197FA7
:1088D00030B9100D120084BB7F583024077F788098
:1088E00003B90804120084BB3022067F2D020084E5
:1088F000BB7F202028F77F2B2026F222922280CCDB
:108900007F00B40700500E246CF582E434BFF58379
:10891000759300E0FF22286E756C6C2900D221123D
:108920000084713021F7C221782930D50108F60280
:10893000008530120084717F4960087F4310E70290
:108940007F5814C0E0EF120084AC743A120084AC7B
:10895000D0E0600DC0E0C4120084A4D0E012008416
:10896000A4D223752904020087415265626F6F7497
:108970002E2E2E0030313233343536373839000060
:10898000000000000000000000000000F8000000EF
:108990000000330000000008060806000000000088
:1089A00000004040F840F840043F053F050470884F
:1089B000FC0830001820FF211E00F09860E038000D
:1089C00000310E1F330C00F0887000001E212619A4
:1089D0002720100E00000000000000000000000032
:1089E00000F00C020000000F3040000618E000000C
:1089F0000060180700004080F080400002010F0175
:108A000002000000F000000001011F010100000051
:108A10000000000080700000000000000000000066
:108A20000101010101000000000000000030000011
:108A30000000000080700C00601C03000000F008C3
:108A40000818E0001F2020300F000010F800000080
:108A500000203F20000070080808F000302C222180
:108A60003000300888887000182020311E000080F7
:108A700060F000000605243F2404F80888880800F8
:108A8000192120311F00E018889800000F312020A4
:108A90001F00380808E8180000003F000000708838
:108AA000088870001E2121211E00F0080818E0002F
:108AB000013222310F000000C00000000000300031
:108AC00000000000800000000000E0000000000046
:108AD000806010080001020C10204040404040001F
:108AE000040404040400000830408000002018043E
:108AF0000201700808887000000037010000F010C3
:108B00008878F0001F2027340F00008078E00000F4
:108B1000203F02033E2008F888887000203F202074
:108B20001F00F010080818001F202020100008F86F
:108B30000810E000203F20100F0008F888E8180017
:108B4000203F2023300008F888E81800203F200349
:108B50000000E010080818000F1020221E0208F87C
:108B60000000F808203F01013F200808F80808002D
:108B700020203F202000000808F80808C080807FDF
:108B8000000008F888601808203F20073C2008F8FB
:108B900008000000203F20202030F8F800F8F800FE
:108BA0003F003F003F0008F8E008F808203F21069A
:108BB0003F00F0080818E0001F2020300F0008F8E0
:108BC0000808F000203F21010000F0080818E0002C
:108BD0000F342C707F0008F888887000203F200335
:108BE0003C20708808081800302021221C0018083A
:108BF000F808180000203F20000008F80000F808DE
:108C0000001F20201F0008F80080F80800033C0F18
:108C100000007884F8C07800003F003F000008782A
:108C200080780800203C033C200008F88078080089
:108C300000203F200000180888780800203C2320EE
:108C400030000000FE02020000007F4040000038BB
:108C5000C00000000000011E6000000202FE0000D3
:108C60000040407F000000040204000000000000FB
:108C700000000000000000008080808080800002F2
:108C80000400000000000000000000008080800060
:108C9000003D26223F2008F800800000001F212010
:108CA0001F00000080808000001F212021000000A4
:108CB0008088F800001F20203F20000080800000F6
:108CC000001F222223000080F088881800203F2007
:108CD0002000000080808080006B9494936008F8EE
:108CE00000808000203F21003F200080980000008D
:108CF00000203F200000000080980000C080807F9E
:108D0000000008F800808080203F240639200808F1
:108D1000F800000020203F2020008080808000009C
:108D20003F003F003F00808000808000203F210006
:108D30003F20000080800000001F20201F00808056
:108D40008080000080FFA0201F0000008080800045
:108D5000001F20A0FF80808000808000203F210035
:108D6000010000008080800000232424390000805E
:108D7000E080000000001F20200080800080800034
:108D8000003F20203F208080000080800007381CAA
:108D90000300804080008000033C033E030080808D
:108DA0000080800020330E3B200080800000808007
:108DB0008087780C030000808080800000302C23A6
:108DC00030000000807E02000000003F40001C22B6
:108DD0001CC040400000003F0202F8F0E0C08000EC
:108DE0000F07030100001C221C8040400000001FF0
:108DF0002020000000FF0000000000FF000025739D
:108E00000D0A0025730D003E002B434D54490052BE
:108E10004543454956452041204D4553534147451B
:108E200021002B434D475200444953504C41592097
:108E3000544845204D45535341474520414E442019
:108E400044454C4554452049543A000D003B002B05
:108E50002B2B2B2B2B2B2B2B4D4F445F49443A00B4
:108E60002B2B2B2B2B2B2B2B2B5245475F49443A7B
:108E7000002B2B2B2B2B2B2B2B2B534554504F499B
:108E80004E543A000A002D2D2D2D2D2D2D2D4D4FF8
:108E9000445F6964006E6F2063720063616E2774C3
:108EA00020676574206D6F645F69640041542B43D3
:108EB0004D47443D310063616E206E6F74206765DD
:108EC0007420656E64706F696E740063616E206EED
:108ED0006F7420676574207265675F69640023237F
:108EE0002323232323737472737472206661696C65
:108EF0006564212121002B434D47533A004F4B001D
:108F00004552524F520045520053746172742067AB
:108F1000736D206D6F64756C6520696E69740041B6
:108F2000540053656E64202741542720636D64000C
:108F30004154453156310041542B4950523D300087
:108F400041542B43434C4B3F004154442A23303679
:108F5000230041542B434D47463D31004154265791
:108F60000031353631383038313532350041545FD3
:108F7000434D47463D310041542B434D47533D221D
:108F80002573220000000000000000000000000027
:108F900000000000000000000000000000000000D1
:108FA00000000000000000000000000000000000C1
:108FB00000000000000000000000000000000000B1
:108FC00000000000000000000000000000000000A1
:1092800000000000556E61636365737369626C650D
:10929000206572726F722021210A0D005355424DD4
:1092A00049540A0D00544558545F46414C53450AF1
:1092B0000D00504F53545F544558543A2025730ABB
:1092C0000D00504F53545F53454C4543543A2025AD
:1092D00062750A0D00504F5354206572726F7220F0
:1092E00066696C65206E6F7420666F756E642E0AF9
:1092F0000D00504F535420636F6E74696E75652E68
:109300000A0D00656E7472795B25303262785D3DBE
:1093100025732C25730A00504F5354206572726FC9
:10932000722064617461302E0A0D0075706772617D
:10933000646500504F5354206572726F72206461EF
:109340007461312E0A0D004368616E6765205365B4
:109350007474696E670A0D004C6F67696E3A204C31
:109360006F737420757365726E616D65206F722006
:1093700070617373776F72642064617461210A0D88
:10938000004C6F67696E3A20757365726E616D652A
:10939000206F722070617373776F7264206C656EDA
:1093A000677468206572726F72210A0D004C6F67D6
:1093B000696E3A20757365726E616D65206F7220FB
:1093C00070617373776F7264206E6F74206D657453
:1093D0006368210A0D004C6F67696E3A20757365EA
:1093E000726E616D6520616E642070617373776F5A
:1093F000726420636865636B206F6B210A0D004304
:1094000068616E67652050617373576F72643A20AC
:109410004C6F73742070617373776F726420646132
:109420007461210A0D004368616E676520506173A5
:1094300073576F72643A204E65772070617373774B
:109440006F7264206F7220636F6E6669726D207038
:10945000617373776F7264206C656E6774682065E2
:1094600072726F72210A0D004368616E6765205049
:10947000617373576F72643A204F6C64207061732C
:1094800073776F7264206E6F7420666F756E6421DF
:109490000A0D004368616E67652050617373576FF2
:1094A00072643A204E65772070617373776F7264CF
:1094B00020616E6420636F6E6669726D20706173E7
:1094C00073776F7264206C656E677468206E6F745A
:1094D00020657175616C210A0D004368616E6765D6
:1094E0002050617373576F72643A20446174612035
:1094F0006E6F7420657175616C20696E2025732014
:10950000746F2025730A0D004368616E67652050F3
:10951000617373576F72643A206368616E67652088
:109520006F6B212066726F6D3A20257320746F2057
:1095300025730A0D004368616E6765205573657277
:109540004E616D653A204E657720757365726E6168
:109550006D65206C656E677468206572726F72212C
:109560000A0D004368616E676520557365724E6130
:109570006D653A206368616E6765206F6B212066B8
:10958000726F6D3A20257320746F2025730A0D00C9
:10959000485454502F312E3020323030204F4B0D54
:1095A0000A43616368652D636F6E74726F6C3A2055
:1095B0006E6F2D63616368650D0A436F6E6E656340
:1095C00074696F6E3A204B6565702D416C697665E4
:1095D0000D0A436F6E74656E742D747970653A2050
:1095E000746578742F68746D6C0D0A0D0A00485408
:1095F00054502F312E3020323030204F4B0D0A4343
:10960000616368652D636F6E74726F6C3A206E6F64
:109610002D63616368650D0A436F6E6E65637469DF
:109620006F6E3A204B6565702D416C6976650D0A49
:10963000436F6E74656E742D747970653A2074652D
:1096400078742F6373730D0A0D0A00485454502F19
:10965000312E3020323030204F4B0D0A4361636889
:10966000652D636F6E74726F6C3A206E6F2D63613F
:109670006368650D0A436F6E6E656374696F6E3A59
:10968000204B6565702D416C6976650D0A436F6EE0
:1096900074656E742D747970653A206170706C69B0
:1096A000636174696F6E2F6A61766173637269704A
:1096B000740D0A0D0A00504F535400526561642026
:1096C00064656661756C7420636F6E666967757238
:1096D0006174696F6E20646174612E200A0D0061EF
:1096E000646D696E000061782E62696E00556E6B64
:1096F0006E6F776E2073797374656D20636C6F6322
:109700006B2072617465210A0D00206661696C65C9
:109710006421202877726F6E6720636865636B73BE
:10972000756D290A0D0020496E76616C69642063AD
:109730006F6E66696775726174696F6E20646174BB
:1097400061210A0D00206F6B2E0A0D004661696CC5
:10975000656420746F2070726F6772616D20436F53
:109760006E666967726174696F6E2044617461210D
:10977000210D0A002020446576696365204E616DE5
:10978000653A2000253032627820000A0D00202042
:109790004D414320416464723A200020204E65749C
:1097A000776F726B2053657474696E673A20002579
:1097B0003034780D0A00202053433A436C6920006E
:1097C000202053433A5365722000444843503A4F97
:1097D0006E2000444843503A4F666620005544507E
:1097E0003A4F6E20005544503A4F6666200054436D
:1097F000503A4F6E20005443503A4F666620004D59
:10980000433A4F6E20004D433A4F66662000424374
:109810003A4F6E200042433A4F66662000202053A4
:1098200049503A00256275200020506F72743A202A
:1098300044413A20257500204D433A2025750020EB
:1098400042433A2025750020204465737420486FF8
:1098500073743A20257300204465737420506F722E
:10986000743A2025750020204E65746D61736B3A43
:109870000020476174657761793A0020444E533A7D
:1098800000202053657269616C20506F7274205300
:10989000657474696E673A200042523A3932313643
:1098A0003030200042523A313135323030200042DF
:1098B000523A3537363030200042523A333834305D
:1098C00030200042523A3139323030200042523A90
:1098D00039363030200042523A343830302000429D
:1098E000523A32343030200042523A313230302055
:1098F0000044423A35200044423A36200044423A7D
:1099000037200044423A382000503A4F6464200027
:10991000503A4576656E2000503A4E6F6E652000D5
:1099200046433A586F6E2D586F6666200046433A9C
:109930004861726477617265200046433A4E6F6EEB
:1099400065200053423A31200053423A312E3520EF
:1099500000202054782054696D6520496E7465722A
:1099600076616C3A25750020557365726E616D6580
:109970003A25732050617373776F72643A257300D0
:109980002020452D4D61696C205365727665723AD1
:10999000257300202046726F6D3A257300202054F5
:1099A0006F313A2573002020546F323A257300201E
:1099B00020546F333A25730020204175746F57612E
:1099C000726E696E673A2578200043533A004F6EF5
:1099D00020004F6666200041463A004F6666004907
:1099E00050433A0050433A000A0D0A0D0073656E69
:1099F00064206F757420746865207061636B657492
:109A00002066726F6D206172702062756666657285
:109A10000A0D004448435020726571756573742EB9
:109A20002E2E20006970203D20002E006964203D0C
:109A30002000736E203D200066773A0068773A0078
:109A4000626C3A004E6574776F726B20436F6E7470
:109A5000726F6C6C6572005570646174696E672E0C
:109A60002E2E0041542B434D47533D222573220097
:109A70004E6574776F726B436F6E74726F6C6C654A
:109A80007200546573742047534D206D6F64756C7C
:109A9000652066697273742074696D650041542B8A
:109AA000434D47523D310041542B434D47443D31D6
:109AB0000054435049505F7461736B004C656442BD
:109AC0006561745F7461736B0054696D65725F7476
:109AD00061736B004C6564666C6173685F7461737D
:109AE0006B0055617274305F7461736B0055617205
:109AF00074315F7461736B0055617274325F7461AD
:109B0000736B005363616E5F7461736B00536368C2
:109B10006564756C655F7461736B0054696D655342
:109B200065727665725F7461736B00556470427222
:109B30006F6164636173745F7461736B005553424A
:109B40005F7461736B00D9000AFA00000000000125
:109B50000400000000000000000000000000000001
:109B600000000000000000000000000000000000F5
:109B700000000000000075EBAA75EB55759D02789A
:109B80007FE4F6D8FD900000007F007E807D01E438
:109B9000F0A3DFFCDEFADDF87535567536D8758131
:109BA0007A02009BCF0201787EE493A3F854072445
:109BB0000CC8C333C4540F4420C8834004F45680F7
:109BC0000146F6DFE4800C0102040810204080907A
:109BD000006077E47E019360CCA3FF543F30E50939
:109BE000541FFEE493A360010ECF54E0B4E026E4DA
:109BF00093FBA3E493FAA3E493F9A3E493C083C093
:109C00008212007CE0D082D083A309E970010ADFD0
:109C1000EADEE880BE54C025E0602B408CE493A3CC
:109C2000FAE493A3F8E493A3C8C582C8CAC583CA5B
:109C3000759300F0759300A3C8C582C8CAC583CACE
:109C4000DFE3DEE1808DE493A3F8E493A34003F621
:109C50008001F208DFF402009BD375930085358301
:109C6000853682E0F581A3A881E0F6A318B87BF9D8
:109C7000C0A8C2AF858335858236D0A8D0E0548095
:109C800085A8384238D007D006D005D004D003D0FC
:109C900002D001D000D0D0D082D083D093D0F0D0E9
:109CA000E08538A822C0E0C0F0C093C083C082C065
:109CB000D0C000C001C002C003C004C005C006C0BF
:109CC00007C0A8C2AF759300853583853682E581CC
:109CD000C3947BF804C3C582958250021583F58234
:109CE000C0A8C2AF858335858236D0A8E581F0A3B0
:109CF000D0E0F0D8FA020307C47593008535838558
:109D00003682E581C3947BF804C3C58295825002F4
:109D10001583F582C0A8C2AF858335858236D0A869
:109D2000E581F0A3D0E0F0D8FA0202FFD24E6F74C2
:109D300068696E6720746F20646F20696E204469C3
:109D400073636F767279206F66205050506F452094
:109D5000210D0A005050506F45204163636F756EAE
:109D600074206F722050617373776F7264206E6F0E
:109D70007420636F7272656374210D0A0046696E08
:109D800069736820746865205050502068616E6463
:109D90007368616B6520212120256C780D0A0025F0
:109DA000642F252E3262642F252E32626420252EE8
:109DB0003262643A252E3262643A252E32626400A1
:109DC000E94A4B70012212007C8FFF6D700122EF77
:109DD0007004FBFAF92209E970EC0A80E9286E7533
:109DE0006C6C29006D6F64656C3A31303020667799
:109DF0003A36392E31312068773A323620626C3A61
:109E000031340000000000000000000000000000ED
:109E10000000000000000000000000000000000042
:109E2000000000009000C434EFF090008C24E0FEAD
:109E3000A3E0AA06F99000C4357401F0A3EAF0A3E8
:109E4000E9F09000A9F7E0602A90008C217401F0FD
:109E5000A3748CF0A3743CF0F990008B0E7401F0A5
:109E6000A3748CF0A3E9F090008AFF7401F0A3744E
:109E70008C80559000A9DEE090008C216026740152
:109E8000F0A3748CF0A37434F0F990008B0E74017D
:109E9000F0A3748CF0A3E9F090008AFF7401F0A3A2
:109EA000748C80247401F0A3748CF0A37426F0F9F0
:109EB00090008B0E7401F0A3748CF0A3E9F0900075
:109EC0008AFF7401F0A3748CF0A3E9F09000C4340D
:109ED000E06402600301A3009000AC17E0FF900073
:109EE000A9DEE02FFFE433FE744E2FF9748C3EFAA6
:109EF00090008B047401F0A3EAF0A3E9F0786E06F9
:109F0000E6700C1806E670071806E670021806E4FC
:109F10007873F608F69000C435E0FBA3E0FAA3E0FE
:109F20002419F9E43AFA12007C8FFF64076005EF08
:109F30006405703D9000C435E0FBA3E0FAA3E02483
:109F40001AF9E43AFA740112007CC412007C8F649E
:109F500078600301CA659000C435A3E0FAA3E02449
:109F600019F9E43AFAE412007CE07861762001A065
:109F7000139000C435E0FBA3E0FAA3E02419F9E450
:109F80003AFA12007C8F700301CA659000C435A3B1
:109F9000E0FAA3E02410F9E43AFA12007DC045F09B
:109FA000700301A0E89000C435A3E0FAA3E0241AEE
:109FB000F9E43AFA74FF12007CA5600301CA6590C7
:109FC00000C435E0FBA3E0FAA3E0241BF9E43AFA6D
:109FD00012007C8FFF640860209000C435A3E0FA73
:109FE000A3E02419F9E43AFA12007C8FFE640260BF
:109FF00004EEB40125EFB403219000C435E0FBA3C7
:10A00000E0FAA3E02419F9E43AFAE412007CE078DB
:10A0100061768012017FEF01C2549000C435E0FBED
:10A02000A3E0FAA3E0241BF9E43AFA12007C8FFFC4
:10A03000D3940440067E047F0480007403A80708BC
:10A040008002C333D8FCFF9000C435E0FBA3E0FAE4
:10A05000A3E0241AF9E43AFAEF12007CE09000C47D
:10A0600035E0FBA3E0FAA3E0241BF9E43AFA74011B
:10A0700012007CC49000C435A3E0FAA3E02419F9CF
:10A08000E43AFA12007C8F540F14700301B5BB241C
:10A09000FE601E14700301C07024FE700301C070C6
:10A0A00024FE700301C0702406600301CA6501A389
:10A0B0004FE47873F608F67871F608F6786176045E
:10A0C00012017FEF90008C24E0FEA3E0AA06F97B4A
:10A0D000019000C435EBF0A3EAF0A3E9F07871E653
:10A0E000FE08E6FFE901A3819000C435E0FBA3E090
:10A0F000FAA3E02419F9E43AFA12007C8F540F64B1
:10A1000003600301CA659000C435A3E0FAA3E0240C
:10A110001EF9E43AFA12007C8F700301A2CB900082
:10A12000C435A3E0FAA3E0241FF9E43AFAE475F099
:10A130000112007DE4FEE5F064E07003EE6401606E
:10A140000301CA65F5F012007E1090008C21E0FB3F
:10A15000A3E0FAA3E02421F9E43AFA741012007C97
:10A16000E07873760008762990008C21E0FBA3E06C
:10A17000FAA3E02420F9E43AFA745012007CE0904B
:10A1800000C435E0FBA3E0FAA3E0240CF9E43AFABA
:10A1900012007C8FFF90008C21E0FBA3E0FAA3E08B
:10A1A0002418F9E43AFAEF12007CE09000C435E09C
:10A1B000FBA3E0FAA3E0240DF9E43AFA12007C8F45
:10A1C000FF90008C21E0FBA3E0FAA3E02419F9E45E
:10A1D0003AFAEF12007CE09000C435E0FBA3E0FA0D
:10A1E000A3E0240EF9E43AFA12007C8FFF90008C71
:10A1F00021E0FBA3E0FAA3E0241AF9E43AFAEF1213
:10A20000007CE09000C435E0FBA3E0FAA3E0240F5B
:10A21000F9E43AFA12007C8FC39401FF90008C217C
:10A22000E0FBA3E0FAA3E0241BF9E43AFAEF120002
:10A230007CE0F4600301C6EB9000C435E0FBA3E0D2
:10A24000FAA3E0240EF9E43AFA12007C8FC39401D9
:10A25000FF90008C21E0FBA3E0FAA3E0241AF9E4CC
:10A260003AFAEF12007CE0F4600301C6EB9000C400
:10A2700035E0FBA3E0FAA3E0240DF9E43AFA12007A
:10A280007C8FC39401FF90008C21E0FBA3E0FAA334
:10A29000E02419F9E43AFAEF12007CE0F4600301DB
:10A2A000C6EB9000C435E0FBA3E0FAA3E0240CF970
:10A2B000E43AFA12007C8FC39401FF90008C21E0F5
:10A2C000FBA3E0FAA3E0241801C6E29000C435E045
:10A2D000FBA3E0FAA3E0241FF9E43AFAE475F001E5
:10A2E00012007DE4FEE5F064807003EE6407600315
:10A2F00001CA65F5F012007E107861760801C21679
:10A300009000C434E0FFB4032690008B02E0FCA36D
:10A31000E08C837593002404F582E43583F583751E
:10A320009300E0FCA3E04C700301CA6501A9FBEFB8
:10A330006404705D9000C435E0FBA3E0FAA3E02460
:10A3400019F9E43AFA12007C8F540F24FE7015902C
:10A35000008C21E0FBA3E0FAA3E02421F9E43AFA1F
:10A36000E401B5CE90009212E020E20301C21A7817
:10A3700071E6FE08E6FF9000C435E0FBA3E0FAA317
:10A38000E02410F9E43AFAEE8FF012007E1001C3D7
:10A39000B09000AC17E0FF9000A9DEE02FFFE4339F
:10A3A000FE744E2FF9748C3EFA90008B047401F009
:10A3B000A3EAF0A3E9F0C37874E69FF618E69EF6E8
:10A3C00090008C21E0FBA3E0FAA3E0F912007C8F5F
:10A3D0006445600301CA65E92402F9E43AFA12000F
:10A3E0007C8FFDFB7873E66B7001E4600BEDFE087B
:10A3F000E6FDEE18F6ED08F690008C21E0FBA3E0F8
:10A40000FAA3E02403F9E43AFA12007C8FFF78748F
:10A41000E66F7001E4600818E60818F6EF08F69099
:10A42000008C21E0FBA3E0FAA3E02406F9E43AFA69
:10A4300012007C8F543F600301CA6590008C21A3F9
:10A44000E0FAA3E02407F9E43AFA12007C8F6003F3
:10A4500001CA659000A9DEE0606F7850E6FE08E66C
:10A46000FF4E606590008C21E0FBA3E0FAA3E0249E
:10A4700010F9E43AFA12007DC0FDACF0C3EC94E0B0
:10A480005047ED6F7002EC6E600301CA6590008C5E
:10A4900021E0FBA3E0FAA3E02412F9E43AFA120067
:10A4A0007DC0FFAEF07852E6FC08E6FD6F7002EE6C
:10A4B0006C6016EFF4600301CA6512007DC0E470A1
:10A4C00003E5F06C600301CA6590008C21E0FBA3FA
:10A4D000E0FAA3E02409F9E43AFA12007C8FFF6461
:10A4E00006700301AB8EEF6411700301A60EEF64DA
:10A4F00001600301CA6590008AFFE0FBA3E0FAA3B4
:10A50000E02414F9E43AFA12007C8FFF6408602119
:10A51000EF600301CA659000A9DBE0FBA3E0FAA3AA
:10A52000E0F9EA494B700301CA651200816A01CA69
:10A530006590008AFFE0FBA3E0FAA3E02414F9E4AD
:10A540003AFAE412007CE090008C21E0FBA3E0FAF0
:10A55000A3E02410F9E43AFA12007DC0FFAEF078CF
:10A560005FEEF608EFF690008C21E0FBA3E0FAA383
:10A57000E0240CF9E43AFA12007DC0FD90008C2131
:10A58000A3E0FAA3E02410F9E43AFAE5F08DF01222
:10A59000007E1090008C21E0FBA3E0FAA3E0240CE5
:10A5A000F9E43AFAEE8FF012007E1090008C21E070
:10A5B000FBA3E0FAA3E02412F9E43AFA12007DC00A
:10A5C000FFAEF018EEF608EFF690008C21E0FBA34A
:10A5D000E0FAA3E0240EF9E43AFA12007DC0FD90FF
:10A5E000008C21A3E0FAA3E02412F9E43AFAE5F0A2
:10A5F0008DF012007E1090008C21E0FBA3E0FAA306
:10A60000E0240EF9E43AFAEE8FF002007E10E478CE
:10A6100061F690008B02748AF0A374B4F090008B02
:10A6200002E0FCA3E0FDC394FCEC948A400301A883
:10A63000578D828C83759300E5822404F582E4357E
:10A6400083F583759300E0FEA3E0FF4E700301A83D
:10A650004490008B0EE0FBA3E0FAA3E02416F9E49B
:10A660003AFA12007DC0FDEF6D7003EE65F06003F5
:10A6700001A84490008B02E0FEA3E08E8375930056
:10A680002406F582E43583F583759300E0FEA3E0AC
:10A69000FF4E602090008B0EA3E0FAA3E02414F993
:10A6A000E43AFA12007DC0FDEF6D7003EE65F060D4
:10A6B0000301A84490008B02E0FEA3E0FFF5828E28
:10A6C00083759300E0FCA3E0FD4C70138F828E83B2
:10A6D000759300A3A3E0FEA3E04E700301A76BBC3B
:10A6E000FF1FBDFF1C90008B02E0FEA3E0F5828EF1
:10A6F00083759300A3A3E0FEA3E0F47002EEF46080
:10A700006A90008C21E0FBA3E0FAA3E0240CF9E4BA
:10A710003AFA12007DC0FFAEF090008B02E0FCA37D
:10A72000E0F5828C83759300E0FCA3E06F7002EC8F
:10A730006E600301A84490008C21A3E0FAA3E024FA
:10A740000EF9E43AFA12007DC0FFAEF090008B02E1
:10A75000E0FCA3E0F5828C83759300A3A3E0FCA347
:10A76000E06F7002EC6E600301A84490008B02E081
:10A77000FEA3E0FF8E837593002406F582E4358303
:10A78000F583759300E0FCA3E04C703590008B0ED0
:10A79000E0FBA3E0FAA3E02414F9E43AFA12007D06
:10A7A000C0FDACF08F828E83759300E5822406F5A0
:10A7B00082E43583F583759300ECF0A3EDF001A9F5
:10A7C000BB90008B02E0FEA3E0FFF5828E837593C1
:10A7D00000E0FCA3E04C600301A9BB8F828E83756F
:10A7E0009300A3A3E0FEA3E04E600301A9BB900089
:10A7F0008C21E0FBA3E0FAA3E0240CF9E43AFA127E
:10A80000007DC0FFAEF090008B02E0FCA3E0FDF500
:10A81000828C83759300EEF0A3EFF090008C21E022
:10A82000FBA3E0FAA3E0240EF9E43AFA12007DC09B
:10A83000FFAEF08D828C83759300A3A3EEF0A3EF9F
:10A84000F001A9BB90008B03E02409F090008B027B
:10A85000E03400F001A61DE47870F67870E6FFC3DE
:10A860009404400301CA6590008B0EE0FBA3E0FA5C
:10A87000A3E02416F9E43AFA12007DC0FDEF25E0CA
:10A880002457F9ED677004E5F019676005787006E4
:10A8900080C9E47870F67870E6FFC394084003013D
:10A8A000A9B1EF75F009A424B8F582E4348AF583E0
:10A8B000759300E0FEA3E04E600301A9AB90008B0E
:10A8C0000EE0FBA3E0FAA3E02416F9E43AFA120042
:10A8D0007DC0FFAEF0E6FD75F009A424B8F582E472
:10A8E000348AF583759300EEF0A3EFF090008B0EA1
:10A8F000E0FBA3E0FAA3E02414F9E43AFA12007DA5
:10A90000C0FFAEF0ED75F009A424BAF582E4348AF4
:10A91000F583759300EEF0A3EFF090008C21E0FB3F
:10A92000A3E0FAA3E0240CF9E43AFA12007DC0FF98
:10A93000AEF0ED75F009A424B4F582E4348AF58311
:10A94000759300EEF0A3EFF090008C21E0FBA3E004
:10A95000FAA3E0240EF9E43AFA12007DC0FFAEF04B
:10A96000ED75F009A424B6F582E4348AF583759375
:10A9700000EEF0A3EFF0ED75F009A424BCF582E43D
:10A98000348AF5837593007408F0ED75F009A424FA
:10A99000B4F582E4348A759300AF8290008B02F0A4
:10A9A000A3EFF07861E64440F6800678700601A8CF
:10A9B000967870E66408700301CA65787474E426BA
:10A9C000F61874FF36F69000AC17E0FF9000A9DE91
:10A9D000E02FFFE433FE74422FF9748C3EFA9000AE
:10A9E0008B047401F0A3EAF0A3E9F07861E6440275
:10A9F000F6E47871F608F61201BDAE7872E61846F4
:10AA0000700301CA657872E6241C7974F718E4367D
:10AA100019F77873E6FF90008C21E0FBA3E0FAA31E
:10AA2000E02402F9E43AFAEF12007CE008E6FF9035
:10AA3000008C21E0FBA3E0FAA3E02403F9E43AFA56
:10AA4000EF12007CE090008C21E0FBA3E0FAA3E091
:10AA50002409F9E43AFA741112007CE07872E624D1
:10AA600008FF18E436FE90008B0EE0FBA3E0FAA38B
:10AA7000E02418F9E43AFAEE8FF012007E1090000C
:10AA80008B0EE0FBA3E0FAA3E0241AF9E43AFAE41F
:10AA9000F5F012007E1090008B02E0FEA3E0FF8E26
:10AAA000837593002404F582E43583F58375930060
:10AAB000E0FCA3E0FD90008C21E0FBA3E0FAA3E022
:10AAC0002414F9E43AFAEC8DF012007E108F828E95
:10AAD00083759300E5822406F582E43583F583755A
:10AAE0009300E0FEA3E0FF90008C21E0FBA3E0FADE
:10AAF000A3E02416F9E43AFAEE8FF012007E107803
:10AB000050E6FE08E6FF90008C21E0FBA3E0FAA3EC
:10AB1000E0240CF9E43AFAEE8FF012007E1008E619
:10AB2000FE08E6FF90008C21E0FBA3E0FAA3E024FE
:10AB30000EF9E43AFAEE8FF012007E1090008B02CC
:10AB4000E0FEA3E0FFF5828E83759300E0FCA3E0B6
:10AB5000FD90008C21E0FBA3E0FAA3E02410F9E4CF
:10AB60003AFAEC8DF012007E108F828E837593007E
:10AB7000A3A3E0FEA3E0FF90008C21E0FBA3E0FA9A
:10AB8000A3E02412F9E43AFAEE8FF001C9859000AF
:10AB9000C4357401F0A3748BF0A37411F09000C459
:10ABA00035A3E0FAA3E0C390008C219582EA958357
:10ABB000400301ACE09000C435E0FBA3A3E02419FE
:10ABC000F9E43AFA12007C8F700301ACD19000C412
:10ABD00035A3E0FAA3E02404F9E43AFA12007DC0B8
:10ABE000FFAEF090008C21E0FBA3E0FAA3E0241676
:10ABF000F9E43AFA12007DC06F7003E5F06E60036D
:10AC000001ACD19000C435E0FBA3E0FAA3E0240638
:10AC1000F9E43AFA12007DC0FFAEF090008C21E01A
:10AC2000FBA3E0FAA3E02414F9E43AFA12007DC091
:10AC30006F7003E5F06E600301ACD190008C21A32E
:10AC4000E0FAA3E0240CF9E43AFA12007DC0FFAE6A
:10AC5000F09000C435E0FBA3E0FAA3E0F912007D18
:10AC6000C06F7003EE65F07068E92402F9E43AFA07
:10AC700012007DC0FFAEF090008C21E0FBA3E0FA53
:10AC8000A3E0240EF9E43AFA12007DC0B50742E5CC
:10AC9000F0B5063D9000C435E0FBA3E0FAA3E02444
:10ACA00019F9E43AFA12007C8F6407600301B66F69
:10ACB00090008C21E0FBA3E0FAA3E02421F9E43A20
:10ACC000FA12007C8F543F6402600301B66F01B139
:10ACD000419000C436E475F02212007D9401AB9DD2
:10ACE00090008C21E0FBA3E0FAA3E02421F9E43AF0
:10ACF000FA12007C8F543F6402704290008C21E075
:10AD0000FBA3E0FAA3E02416F9E43AFA12007DC0AE
:10AD1000785FA6F008F6E47870F67870E6FFC394E2
:10AD200004501AEF25E02449F97860E667700418AA
:10AD3000E61967700301B06378700680DD90008CBF
:10AD400021E0FBA3E0FAA3E02421F9E43AFA12009F
:10AD50007C8F30E20301CA65741412007CE07873C2
:10AD6000760008762890008C21E0FBA3E0FAA3E0AF
:10AD70002420F9E43AFA745012007CE090008C210F
:10AD8000E0FBA3E0FAA3E0241BF9E43AFA12007C0A
:10AD90008FFF7870F690008C21E0FBA3E0FAA3E02F
:10ADA000241FF9E43AFA12007C8FFE90008C21A354
:10ADB000E0FAA3E0241BF9E43AFAEE12007CE090FA
:10ADC000008C21E0FBA3E0FAA3E0241FF9E43AFAA7
:10ADD000EF12007CE090008C21E0FBA3E0FAA3E0FE
:10ADE000241AF9E43AFA12007C8FFFF690008C21C5
:10ADF000E0FBA3E0FAA3E0241EF9E43AFA12007C97
:10AE00008FFE90008C21A3E0FAA3E0241AF9E43A23
:10AE1000FAEE12007CE090008C21E0FBA3E0FAA3A4
:10AE2000E0241EF9E43AFAEF12007CE090008C2155
:10AE3000E0FBA3E0FAA3E02419F9E43AFA12007C5B
:10AE40008FFFF690008C21E0FBA3E0FAA3E0241D25
:10AE5000F9E43AFA12007C8FFE90008C21A3E0FA0C
:10AE6000A3E02419F9E43AFAEE12007CE090008C99
:10AE700021E0FBA3E0FAA3E0241DF9E43AFAEF1283
:10AE8000007CE090008C21E0FBA3E0FAA3E0241812
:10AE9000F9E43AFA12007C8FFFF690008C21E0FB77
:10AEA000A3E0FAA3E0241CF9E43AFA12007C8FFE36
:10AEB00090008C21A3E0FAA3E02418F9E43AFAEE1A
:10AEC00012007CE090008C21E0FBA3E0FAA3E024D8
:10AED0001CF9E43AFAEF12007CE090008C21E0FBD0
:10AEE000A3E0FAA3E0241FF9E43AFA740112007C0B
:10AEF000C4704390008C21A3E0FAA3E0241EF9E47F
:10AF00003AFA740112007CC4702C90008C21A3E0EA
:10AF1000FAA3E0241DF9E43AFA740112007CC4702B
:10AF20001590008C21A3E0FAA3E0241CF9E43AFA7E
:10AF3000740112007CC490008C21E0FBA3E0FAA312
:10AF4000E02414F9E43AFA12007DC0FFAEF0785F15
:10AF5000EEF608EFF690008C21E0FBA3E0FAA3E008
:10AF60002416F9E43AFA12007DC0FD90008C21A36A
:10AF7000E0FAA3E02414F9E43AFAE5F08DF01200C7
:10AF80007E1090008C21E0FBA3E0FAA3E02416F9E8
:10AF9000E43AFAEE8FF012007E1090008C21E0FB74
:10AFA000A3E0FAA3E02410F9E43AFA12007DC0FF0E
:10AFB000AEF018EEF608EFF690008C21E0FBA3E06F
:10AFC000FAA3E0240CF9E43AFA12007DC0FD9000E7
:10AFD0008C21A3E0FAA3E02410F9E43AFAE5F08D1D
:10AFE000F012007E1090008C21E0FBA3E0FAA3E0B9
:10AFF000240CF9E43AFAEE8FF012007E1090008CE7
:10B0000021E0FBA3E0FAA3E02412F9E43AFA1200EB
:10B010007DC0FFAEF018EEF608EFF690008C21E050
:10B02000FBA3E0FAA3E0240EF9E43AFA12007DC093
:10B03000FD90008C21A3E0FAA3E02412F9E43AFA8F
:10B04000E5F08DF012007E1090008C21E0FBA3E073
:10B05000FAA3E0240EF9E43AFAEE8FF012007E1023
:10B0600001C9129000C435E4F0A374FFF0A3F0E42A
:10B070007870F67870E6FFC39408400301B11E753E
:10B08000F022EFA4242AF582E5F0348BF583759342
:10B0900000E0701CE675F022A42411F9748B35F0E1
:10B0A000FA9000C4357401F0A3EAF0A3E9F0806ED1
:10B0B0007870E6FF75F022A4242AF582E5F0348B3F
:10B0C000F583759300E06407704E9000C435E0FB93
:10B0D000A3E0FAA3E0F94A6023E9241AF9E43AFA72
:10B0E00012007C8FFE75F022EFA4242BF582E5F090
:10B0F000348BF583759300E0D39E401C7870E67521
:10B10000F022A42411F9748B35F0FA9000C4357440
:10B1100001F0A3EAF0A3E9F078700601B0739000A3
:10B12000C435E0FBA3E0FAA3E0F9F47002EAF4709E
:10B130000301CA65E92421F9E43AFA740812007C93
:10B14000E09000C435E0FBA3E0FAA3E0FF90008CA0
:10B1500024EAF0A3EFF0241AF9E43AFA7403120097
:10B160007CE09000C435E0FBA3E0FAA3E02418F9EA
:10B17000E43AFA740312007CE09000C435E0FBA3CB
:10B18000E0FAA3E02416F9E43AFAE412007CE09035
:10B1900000C435E0FBA3E0FAA3E02417F9E43AFA8F
:10B1A000740412007CE09000C435E0FBA3E0FAA335
:10B1B000E0241BF9E43AFAE412007CE090008C21D0
:10B1C000E0FBA3E0FAA3E02416F9E43AFA12007DCA
:10B1D000C0FF9000C435E0FBA3E0FAA3E02404F92B
:10B1E000E43AFAE5F08FF012007E1090008C21E036
:10B1F000FBA3E0FAA3E02414F9E43AFA12007DC0BC
:10B20000FF9000C435E0FBA3E0FAA3E02406F9E4D4
:10B210003AFAE5F08FF012007E1090008C21E0FBEE
:10B22000A3E0FAA3E0240CF9E43AFA12007DC0FF8F
:10B230009000C435E0FBA3E0FAA3E0F9E5F08FF05D
:10B2400012007E1090008C21E0FBA3E0FAA3E02422
:10B250000EF9E43AFA12007DC0FF9000C435E0FB1D
:10B26000A3E0FAA3E02402F9E43AFAE5F08FF01241
:10B27000007E109000C435E0FBA3E0FAA3E024199F
:10B28000F9E43AFA740112007CE09000C435E0FB66
:10B29000A3E0FAA3E0241EF9E43AFAE412007CE009
:10B2A0009000C435E0FBA3E0FAA3E0241FF9E43AE0
:10B2B000FAE4F5F012007E10786BE6FF9000C435DA
:10B2C000E0FBA3E0FAA3E0240CF9E43AFAEF120061
:10B2D0007CE008E6FF9000C435E0FBA3E0FAA3E0C1
:10B2E000240DF9E43AFAEF12007CE008E6FF900042
:10B2F000C435E0FBA3E0FAA3E0240EF9E43AFAEF48
:10B3000012007CE008E6FF9000C435E0FBA3E0FA01
:10B31000A3E0240FF9E43AFAEF12007CE09000C4B5
:10B3200035E0FBA3E0FAA3E02410F9E43AFAE4756F
:10B33000F00112007E1090008C21E0FBA3E0FAA344
:10B34000E0241BF9E43AFA12007C8FFF9000C43528
:10B35000E0FBA3E0FAA3E0240BF9E43AFAEF1200D1
:10B360007CE090008C21E0FBA3E0FAA3E0241AF932
:10B37000E43AFA12007C8FFF9000C435E0FBA3E0B2
:10B38000FAA3E0240AF9E43AFAEF12007CE0900014
:10B390008C21E0FBA3E0FAA3E02419F9E43AFA12C5
:10B3A000007C8FFF9000C435E0FBA3E0FAA3E0240B
:10B3B00009F9E43AFAEF12007CE090008C21E0FBFE
:10B3C000A3E0FAA3E02418F9E43AFA12007C8FFF14
:10B3D0009000C435E0FBA3E0FAA3E02408F9E43AC6
:10B3E000FAEF12007CE07F017E001202BBA7900002
:10B3F0008C21E0FBA3E0FAA3E02422F9E43AFA125C
:10B40000007C8FFF9000C435E0FBA3E0FAA3E024AA
:10B410001CF9E43AFAEF12007CE090008C21E0FB8A
:10B42000A3E0FAA3E02423F9E43AFA12007C8FFFA8
:10B430009000C435E0FBA3E0FAA3E0241DF9E43A50
:10B44000FAEF12007CE090008C21E0FBA3E0FAA36D
:10B45000E02420F9E43AFA12007C8F54F0D394509F
:10B46000500301B5BBE47870F690008C21E0FBA39B
:10B47000E0FAA3E02420F9E43AFA12007C8FC454E5
:10B480000FC39405FFE49400FEEF7802C333CE337C
:10B49000CED8F9FF7870E6FDC39FEE6480F8748023
:10B4A00098400301B5BBEDFF9000A9DEE02FFFE45B
:10B4B00033FE9000AC17E0F97C002FFFEC3EFE74E9
:10B4C0004E2FF582748C3EF583759300E0786FF60D
:10B4D000700301B5BB786FE6FDB4010408068089EE
:10B4E000ED6402600301B588744F2FF582748C3EC1
:10B4F000F583759300E06404600301B5887870E615
:10B50000FF9000A9DEE02FFFE433FEE97C002FFD71
:10B51000EC3EFC74502DF582748C3CF583759300E1
:10B52000E0FE74512DF582748C3CF583759300E038
:10B53000FDEDFF785FEEF608EFF69000AC11E0FC51
:10B54000A3E0FDC39FEC9E5006AE04AF05800778D4
:10B550005FE6FE08E6FF9000C435E0FBA3E0FAA337
:10B56000E02412F9E43AFAEE8FF012007E10900017
:10B57000C435E0FBA3E0FAA3E02414F9E43AFAEEC0
:10B580008FF012007E1080337870E6FF9000A9DE05
:10B59000E02FFFE433FE9000AC17E07C002FFFECBF
:10B5A0003EFE744F2FF582748C3EF583759300E058
:10B5B000FF60087870EF26F601B46990008C21E0F6
:10B5C000FBA3E0FAA3E02421F9E43AFA7410120094
:10B5D0007CE090008C21E0FBA3E0FAA3E02421F9B9
:10B5E000E43AFA12007C8F440212007CE090008C56
:10B5F00021E0FBA3E0FAA3E02428F9E43AFA74027C
:10B6000012007CE090008C21E0FBA3E0FAA3E02490
:10B6100029F9E43AFA740412007CE09000AC11E0DD
:10B62000FCA3E0FDECFF90008C21E0FBA3E0FAA37B
:10B63000E0242AF9E43AFAEF12007CE090008C2131
:10B64000E0FBA3E0FAA3E0242BF9E43AFAED1200C0
:10B650007CE07873760008762C90008C21E0FBA3C8
:10B66000E0FAA3E02420F9E43AFA746001C63790C6
:10B6700000C435A3E0FAA3E0FF90008C24EAF0A315
:10B68000EFF0E47861F690009212F090008C21E0E7
:10B69000FBA3E0FAA3E02421F9E43AFA12007C8F3C
:10B6A00030E21B9000C435E0FBA3E0FAA3E02419CC
:10B6B000F9E43AFAE412007CE0762001C4769000C6
:10B6C0008C21E0FBA3E0FAA3E02420F9E43AFA128B
:10B6D000007C8FC4540F25E025E0FF7870F6C37816
:10B6E00074E69FFF18E69400CFC3941408F6EF9415
:10B6F0000018F6D308E6940018E69400501B90005A
:10B700008C21E0FBA3E0FAA3E02421F9E43AFA1249
:10B71000007C8F20E00301B7DD9000C435E0FBA37F
:10B72000E0FAA3E02408F9E43AFA12007C8FFF90D3
:10B73000008C21E0FBA3E0FAA3E02418F9E43AFA34
:10B7400012007C8F6F600301C6069000C435E0FBD9
:10B75000A3E0FAA3E02409F9E43AFA12007C8FFF8F
:10B7600090008C21E0FBA3E0FAA3E02419F9E43A6D
:10B77000FA12007C8F6F600301C6069000C435E0AA
:10B78000FBA3E0FAA3E0240AF9E43AFA12007C8F62
:10B79000FF90008C21E0FBA3E0FAA3E0241AF9E477
:10B7A0003AFA12007C8F6F600301C6069000C43520
:10B7B000E0FBA3E0FAA3E0240BF9E43AFA12007CE0
:10B7C0008FFF90008C21E0FBA3E0FAA3E0241BF99B
:10B7D000E43AFA12007C8F6F600301C60690008C79
:10B7E00021E0FBA3E0FAA3E02421F9E43AFA1200F5
:10B7F0007C8F20E40301BC189000C435E0FBA3E07B
:10B80000FAA3E02410F9E43AFA12007DC0FDACF08E
:10B810004C700301BC189000C435A3E0FAA3E024E7
:10B820000CF9E43AFA1202B3E590008C21E0FBA394
:10B83000E0FAA3E0241CF9E43AFA12007C8FFF90AE
:10B84000008B0AE06F600301BA3190008C21A3E005
:10B85000FAA3E0241DF9E43AFA12007C8FFE90006E
:10B860008B0BE06E600301BA3190008C21A3E0FAEB
:10B87000A3E0241EF9E43AFA12007C8FFE90008BBC
:10B880000CE06E600301BA3190008C21A3E0FAA3B2
:10B89000E0241FF9E43AFA12007C8FFE90008B0D31
:10B8A000E06E600301BA3190008B0AE0FE9000C4A4
:10B8B00035E0FBA3E0FAA3E0240CF9E43AFAEE1237
:10B8C000007CE090008B0BE0FE9000C435E0FBA311
:10B8D000E0FAA3E0240DF9E43AFAEE12007CE090DD
:10B8E000008B0CE0FE9000C435E0FBA3E0FAA3E07F
:10B8F000240EF9E43AFAEE12007CE090008B0DE0A1
:10B90000FE9000C435E0FBA3E0FAA3E0240FF9E4C5
:10B910003AFAEE12007CE09000C435E0FBA3E0FAB6
:10B92000A3E0241BF9E43AFA12007C8F600301BA09
:10B93000049000C435A3E0FAA3E0241AF9E43AFA2B
:10B9400012007C8FFE9000C435A3E0FAA3E0241817
:10B95000F9E43AFA12007C8FC39EFE9000C438F0DE
:10B960009000C435A3E0FAA3E02416F9E43AFA12F1
:10B97000007C8F131313541FFDC3EE9DFE9000C473
:10B9800038F012007CC4C3EE6480948050089000AC
:10B99000C438E0F404F09000C438E0FE9000C435F0
:10B9A000E0FBA3E0FAA3E02417F9E43AFA12007CE2
:10B9B0008F1313543FFDC3EE9D9000C438F0120066
:10B9C0007CC49000C435A3E0FAA3E02416F9E43A5D
:10B9D000FA12007C8F131313541FFE9000C435A37A
:10B9E000E0FAA3E02417F9E43AFA12007C8F2EFE65
:10B9F0009000C435A3E0FAA3E02418F9E43AFAEE83
:10BA000012007CE0786176019000C435E0FBA3E091
:10BA1000FAA3E02418F9E43AFA12007C8FFE9000B1
:10BA2000C435A3E0FAA3E0241AF9E43AFAEE01BB24
:10BA3000FC9000C435E0FBA3E0FAA3E0240CF9E499
:10BA40003AFA12007C8F6F600301BC189000C43575
:10BA5000A3E0FAA3E0240DF9E43AFA12007C8FFF88
:10BA600090008C21E0FBA3E0FAA3E0241DF9E43A66
:10BA7000FA12007C8F6F600301BC189000C435E09F
:10BA8000FBA3E0FAA3E0240EF9E43AFA12007C8F5B
:10BA9000FF90008C21E0FBA3E0FAA3E0241EF9E470
:10BAA0003AFA12007C8F6F600301BC189000C43515
:10BAB000E0FBA3E0FAA3E0240FF9E43AFA12007CD9
:10BAC0008FFF90008C21E0FBA3E0FAA3E0241FF994
:10BAD000E43AFA12007C8F6F600301BC1890009268
:10BAE00012E04480F09000C435E0FBA3E0FAA3E04C
:10BAF000241BF9E43AFA12007C8F600301BBD29058
:10BB000000C435A3E0FAA3E0241AF9E43AFA1200DB
:10BB10007C8FFF9000C435A3E0FAA3E02418F9E479
:10BB20003AFA12007C8FC39FFF9000C438F0900057
:10BB3000C435A3E0FAA3E02416F9E43AFA12007C33
:10BB40008F131313541FFEC3EF9EFF9000C438F0F1
:10BB500012007CC4C3EF6480948050089000C43805
:10BB6000E0F404F09000C438E0FF9000C435E0FB3E
:10BB7000A3E0FAA3E02417F9E43AFA12007C8F1349
:10BB800013543FFEC3EF9E9000C438F012007CC4F3
:10BB90009000C435A3E0FAA3E02416F9E43AFA12BF
:10BBA000007C8F131313541FFF9000C435A3E0FAD9
:10BBB000A3E02417F9E43AFA12007C8F2FFF9000DB
:10BBC000C435A3E0FAA3E02418F9E43AFAEF12002E
:10BBD0007CE0786176019000C435E0FBA3E0FAA335
:10BBE000E02418F9E43AFA12007C8FFF9000C43583
:10BBF000A3E0FAA3E0241AF9E43AFAEF12007CE099
:10BC00009000C435E0FBA3E0FAA3E0241FF9E43A76
:10BC1000FAE4F5F012007E1090008C21E0FBA3E026
:10BC2000FAA3E02422F9E43AFA12007C8FC394408C
:10BC300050229000C435E0FBA3E0FAA3E0241CF9F5
:10BC4000E43AFA12007C8FD394804008900092125C
:10BC5000E04440F09000C435E0FBA3E0FAA3E02408
:10BC600019F9E43AFA12007C8F540F14B40800401A
:10BC70000301CA659000BC8375F004A4C58325F058
:10BC8000C583730200BCA30200BCE50200BFD90259
:10BC900000C47D0200C5560200C5CD0200C60602E2
:10BCA00000C4557861E620E00301CA657403120000
:10BCB0007CE076409000C435E0FBA3E0FAA3E024EA
:10BCC00010F9E43AFAE4F5F012007E10D37874E645
:10BCD000940018E6940040041202BB9AE47871F6CE
:10BCE00008F601C2167861E620E00301BFCE90009D
:10BCF0008C21E0FBA3E0FAA3E02421F9E43AFA1254
:10BD0000007C8F6412600301BFCE90008C21A3E001
:10BD1000FAA3E02420F9E43AFA12007C8F54F0D31D
:10BD20009450500301BE7DE47870F690008C21E0C1
:10BD3000FBA3E0FAA3E02420F9E43AFA12007C8F96
:10BD4000C4540FC39405FFE49400FEEF7802C3339C
:10BD5000CE33CED8F9FF7870E6FDC39FEE6480F84D
:10BD6000748098400301BE7DEDFF9000A9DEE02FB6
:10BD7000FFE433FE9000AC17E0F97C002FFFEC3EAF
:10BD8000FE744E2FF582748C3EF583759300E07837
:10BD90006FF6700301BE7D786FE6FDB401040806FE
:10BDA0008089ED6402600301BE4A744F2FF58274EE
:10BDB0008C3EF583759300E06404600301BE4A780D
:10BDC00070E6FF9000A9DEE02FFFE433FEE97C007F
:10BDD0002FFDEC3EFC74502DF582748C3CF5837580
:10BDE0009300E0FE74512DF582748C3CF5837593BD
:10BDF00000E0FDEDFF785FEEF608EFF69000AC1185
:10BE0000E0FCA3E0FDC39FEC9E5006AE04AF0580AE
:10BE100007785FE6FE08E6FF9000C435E0FBA3E08C
:10BE2000FAA3E02412F9E43AFAEE8FF012007E1041
:10BE30009000C435E0FBA3E0FAA3E02414F9E43A4F
:10BE4000FAEE8FF012007E1080337870E6FF9000DB
:10BE5000A9DEE02FFFE433FE9000AC17E07C002F5A
:10BE6000FFEC3EFE744F2FF582748C3EF583759384
:10BE700000E0FF60087870EF26F601BD2B9000C44B
:10BE800035E0FBA3E0FAA3E02419F9E43AFA7403DD
:10BE900012007CE090008C21E0FBA3E0FAA3E024F8
:10BEA00018F9E43AFA12007C8FFF9000C435E0FBE9
:10BEB000A3E0FAA3E02408F9E43AFAEF12007CE0E8
:10BEC00090008C21E0FBA3E0FAA3E02419F9E43A06
:10BED000FA12007C8FFF9000C435E0FBA3E0FAA3C8
:10BEE000E02409F9E43AFAEF12007CE090008C219A
:10BEF000E0FBA3E0FAA3E0241AF9E43AFA12007C8A
:10BF00008FFF9000C435E0FBA3E0FAA3E0240AF918
:10BF1000E43AFAEF12007CE090008C21E0FBA3E011
:10BF2000FAA3E0241BF9E43AFA12007C8FFF900098
:10BF3000C435E0FBA3E0FAA3E0240BF9E43AFAEFFE
:10BF400012007CE07F017E001202BBA790008C21D2
:10BF5000E0FBA3E0FAA3E02422F9E43AFA12007C21
:10BF60008FFF9000C435E0FBA3E0FAA3E0241CF9A6
:10BF7000E43AFAEF12007CE090008C21E0FBA3E0B1
:10BF8000FAA3E02423F9E43AFA12007C8FFF900030
:10BF9000C435E0FBA3E0FAA3E0241DF9E43AFAEF8C
:10BFA00012007CE0786176429000C435E0FBA3E0AB
:10BFB000FAA3E02410F9E43AFAE4F5F012007E1056
:10BFC000E47873F608F67871F608F601C21678611F
:10BFD000762012017FEF01AD3D90008C21E0FBA3A4
:10BFE000E0FAA3E02421F9E43AFA12007C8F20E081
:10BFF0000301C0737874E62401FF18E436FE1202D0
:10C00000BBA778617610D37874E6940018E69400A4
:10C0100040067861E64402F612017FEF90008C241E
:10C02000E0FEA3E0AA06F97B019000C435EBF0A383
:10C03000EAF0A3E9F02410F9E43AFAE475F0011209
:10C04000007E109000C435E0FBA3E0FAA3E02419C1
:10C05000F9E43AFA740812007CE09000C435E0FB81
:10C06000A3E0FAA3E0241BF9E43AFAE412007CE02E
:10C0700001C2BC90008C21E0FBA3E0FAA3E02421E4
:10C08000F9E43AFA12007C8F30E57690008C21A317
:10C09000E0FAA3E02426F9E43AFA12007C8F90003B
:10C0A0008C21A3E0FAA3E02427F9E43AFA12007CF9
:10C0B0008F7862F6E6D3787496E41896400508E621
:10C0C0007862F67862E6FF7E001202BBA77862E62D
:10C0D000FFC37874E69FF618E69400F690008B0490
:10C0E000E0F9A3E0FAA3E0A3C9F0A3EAF0A3E9F022
:10C0F0007862E6FF90008B05E48FF012007D94805B
:10C1000045E47862F690008C21E0FBA3E0FAA3E01E
:10C110002426F9E43AFA12007C8FFE90008C21A3C9
:10C12000E0FAA3E02427F9E43AFA12007C8FFDED4F
:10C13000FF90008B05EE8FF012007D94C37874E6BB
:10C140009FF618E69EF6D37874E6940018E69400FD
:10C15000401C9000C435E0FBA3E0FAA3E02419F9E9
:10C16000E43AFA12007C8F20E4041202BB9A900099
:10C170008C21E0FBA3E0FAA3E02422F9E43AFA12CE
:10C18000007C8FFE90008C21A3E0FAA3E02423F929
:10C19000E43AFA12007C8F7C002400FFEC3EFE782B
:10C1A0005FF608EFF69000C435E0FBA3E0FAA3E0E9
:10C1B0002414F9E43AFA12007DC0FDACF0D3EF9DEF
:10C1C000EE9C5005E618467007785FA60408A605A1
:10C1D000785FE6FE08E6FF9000C435E0FBA3E0FAD6
:10C1E000A3E02412F9E43AFAEE8FF012007E100870
:10C1F000E65403700301CA659000C435E0FBA3E078
:10C20000FAA3E0241FF9E43AFAE4F5F012007E10F4
:10C21000E47871F608F612017FEF90008C24E0FEBE
:10C22000A3E0AA06F99000C4357401F0A3EAF0A3D4
:10C23000E9F07861E630E532E47871F608F69000CE
:10C24000C435E0FBA3E0FAA3E02419F9E43AFAE4E8
:10C2500012007CE090008C21E0FBA3E0FAA3E02434
:10C2600021F9E43AFA741401C6197861E630E462FF
:10C27000E47871F608F69000C435E0FBA3E0FAA379
:10C28000E02410F9E43AFAE475F00112007E10900F
:10C2900000C435E0FBA3E0FAA3E02419F9E43AFA7C
:10C2A000740412007CE09000C435E0FBA3E0FAA324
:10C2B000E0241BF9E43AFAE412007CE090008C21BF
:10C2C000E0FBA3E0FAA3E02421F9E43AFA741101B7
:10C2D000C61990009212E030E10301CA65D378726A
:10C2E000E6940018E69400500301C3827861E630BA
:10C2F000E0189000C435E0FBA3E0FAA3E02410F9B5
:10C30000E43AFAE4F5F012007E109000C435E0FB48
:10C31000A3E0FAA3E02410F9E43AFA12007DC04544
